:100000000C94F5040C9426050C9426050C942605F6
:100010000C9426050C9426050C9426050C942605B4
:100020000C9426050C9426050C9426050C942605A4
:100030000C9426050C9426050C9426050C94260594
:100040000C9426050C9426050C9426050C94260584
:100050000C9426050C9426050C9426050C949B3FC5
:100060000C9426050C940F400C94E53F0C94260547
:100070000C9426050C9426050C9426050C94260554
:100080000C9426050C9426050C9426050C94260544
:100090000C9426050C9426050C9426050C94260534
:1000A0000C9426050C9426050C9426050C94260524
:1000B0000C9426050C9426050C9426050C94260514
:1000C0000C9426050C9426050C9426050C94260504
:1000D0000C9426050C9426050C9426050C942605F4
:1000E0000C9426050C94C3150C94E40B0C94BD37AA
:1000F0000C94AD140C94B1340C94A5140C94663586
:100100000C94B7140C94A93E0C94540D0C947D16C9
:100110000C948A140C94A9140C944D0C0C94C514D2
:100120000C948E140C94B6130C94193A0C94C715B5
:100130000C9492140C9409110C9430160C944540B4
:100140000C943A120C949F140C94C50D0C941A093B
:100150000C9486140C94A40B0C94120E0C94410E67
:100160000C9426290C94EA150C948B090C94372BCB
:100170000C9495140C94673A0C94C4150C94D615F1
:100180000C94D2200C94F8150C94FC090C94BB141C
:100190000C94C0140C949B140C94623F0C94961510
:1001A0000C94DB110C94B2120C9419080C94313F8E
:1001B0000C9407360C94B3140C9480140C94C11452
:1001C0000C94880A0C94B8074552524F523A204773
:1001D0006574584461746146726F6D526566285447
:1001E0007970652025642C204C696E652025642972
:1001F00020705844617461206973204E554C4C0A3C
:10020000004552524F523A20476574584461746118
:1002100046726F6D52656628547970652025642C8E
:10022000204C696E652025642920456C656D20741D
:10023000797065206D69736D617463680A00455259
:10024000524F523A20476574584461746146726F48
:100250006D52656628547970652025642C204C69A0
:100260006E65202564292070456C656D20697320BA
:100270004E554C4C0A004552524F523A2047657435
:10028000584461746146726F6D5265662854797086
:10029000652025642C204C696E652025642920701A
:1002A000456C656D526566206973204E554C4C0A4D
:1002B000004552524F523A2047534C435F53445FDC
:1002C000454E206E6F7420656E61626C65640A0035
:1002D0004552524F523A2067736C635F456C656DAF
:1002E00058546F67676C6562746E44726177282535
:1002F000732920705844617461206973204E554CF5
:100300004C0A002D20496E697420746F7563682053
:1003100068616E646C6572205B25735D204F4B0ACB
:10032000002D20496E697420646973706C617920B6
:1003300068616E646C6572205B25735D204F4B0AAB
:1003400000475549736C6963652076657273696F00
:100350006E205B25735D3A0A0000000A0B02090C4F
:100360000D0E08070304010000000000000000005B
:10037000000000000000000000000000000000007D
:10038000000000000012111000000000000000003A
:10039000000000000000000000000000000000005D
:1003A000000000003E5B4F5B3E3E6B4F6B3E1C3ED1
:1003B0007C3E1C183C7E3C181C577D571C1C5E7FE5
:1003C0005E1C00183C1800FFE7C3E7FF0018241864
:1003D00000FFE7DBE7FF30483A060E262979292699
:1003E000407F050507407F05253F5A3CE73C5A7F83
:1003F0003E1C1C08081C1C3E7F14227F22145F5FD9
:10040000005F5F06097F017F006689956A60606012
:10041000606094A2FFA29408047E040810207E204D
:100420001008082A1C08081C2A08081E10101010A2
:100430000C1E0C1E0C30383E3830060E3E0E0600E8
:100440000000000000005F00000007000700147FAC
:10045000147F14242A7F2A12231308646236495613
:1004600020500008070300001C2241000041221C0C
:10047000002A1C7F1C2A08083E08080080703000F3
:100480000808080808000060600020100804023E08
:100490005149453E00427F40007249494946214149
:1004A000494D331814127F1027454545393C4A49B8
:1004B00049314121110907364949493646494929F7
:1004C0001E00001400000040340000000814224107
:1004D0001414141414004122140802015909063E90
:1004E000415D594E7C1211127C7F494949363E418B
:1004F0004141227F4141413E7F494949417F0909AC
:1005000009013E414151737F0808087F00417F4146
:10051000002040413F017F081422417F404040407D
:100520007F021C027F7F0408107F3E4141413E7FD5
:10053000090909063E4151215E7F091929462649CC
:1005400049493203017F01033F4040403F1F2040A3
:10055000201F3F4038403F631408146303047804AD
:10056000036159494D43007F414141020408102075
:10057000004141417F0402010204404040404000EC
:100580000307080020545478407F284444383844F6
:10059000444428384444287F385454541800087E72
:1005A000090218A4A49C787F0804047800447D40C4
:1005B000002040403D007F1028440000417F400063
:1005C0007C047804787C080404783844444438FC7B
:1005D0001824241818242418FC7C080404084854FF
:1005E00054542404043F44243C4040207C1C2040BC
:1005F000201C3C4030403C44281028444C909090B3
:100600007C4464544C4400083641000000770000EC
:10061000004136080002010204023C2623263C1E4B
:10062000A1A161123A4040207A38545455592155BD
:1006300055794122545478422155547840205455DC
:1006400079400C1E5272123955555559395454542B
:100650005939555454580000457C410002457D42AB
:100660000001457C407D1211127DF0282528F07C88
:10067000545545002054547C547C0A097F49324922
:100680004949323A4444443A324A4848303A41416E
:10069000217A3A42402078009DA0A07D3D4242420E
:1006A0003D3D4040403D3C24FF2424487E49436674
:1006B0002B2FFC2F2BFF0929F620C0887E09032051
:1006C000545479410000447D413048484A32384012
:1006D00040227A007A0A0A727D0D19317D26292975
:1006E0002F28262929292630484D40203808080877
:1006F0000808080808382F10C8ACBA2F102834FA98
:1007000000007B000008142A142222142A14085521
:1007100000550055AA55AA55AAFF55FF55FF0000E0
:1007200000FF00101010FF00141414FF001010FF41
:1007300000FF1010F010F0141414FC001414F70053
:10074000FF0000FF00FF1414F404FC141417101F22
:1007500010101F101F1414141F00101010F00000B0
:1007600000001F101010101F10101010F0100000CB
:1007700000FF101010101010101010FF10000000DB
:10078000FF140000FF00FF00001F10170000FC0412
:10079000F414141710171414F404F40000FF00F7F5
:1007A00014141414141414F700F714141417141058
:1007B000101F101F141414F4141010F010F0000087
:1007C0001F101F0000001F14000000FC140000F0A8
:1007D00010F01010FF10FF141414FF141010101F4D
:1007E00000000000F010FFFFFFFFFFF0F0F0F0F05E
:1007F000FFFFFF0000000000FFFF0F0F0F0F0F387B
:1008000044443844FC4A4A4A347E02020606027EC8
:10081000027E0263554941633844443C04407E20D3
:100820001E2006027E020299A5E7A5991C2A492AE4
:100830001C4C7201724C304A4D4D30304878483073
:10084000BC625A463D3E494949007E0101017E2A6B
:100850002A2A2A2A44445F444440514A444040449E
:100860004A51400000FF0103E080FF000008086BD0
:100870006B083612362436060F090F0600001818CA
:100880000000001010003040FF0101001F01011E98
:1008900000191D1712003C3C3C3C00000000000009
:1008A000002100240027002A002D00300033000121
:1008B000010000040107010A01EF03038002CF03D6
:1008C00000C130ED0464031281E803850078CB0594
:1008D000392C003402F70120EA020000C00123C1D4
:1008E0000110C5023E28C701863601483701003A8B
:1008F0000155B1020018B603088227F20100260153
:1009000001E00F0F312B0C0E084EF1370710030ECC
:100910000900E10F000E1403110731C148080F0C44
:1009200031360F11802980000000200023002600AE
:1009300029002C002F0032000001000003010601F5
:1009400009010102102020080810204010204080DA
:100950000201020108040201010204081020408083
:100960008040201008040201800402018040201011
:10097000080402010804020101020408102040805A
:1009800001020408102040800000220025002800F9
:100990002B002E0031003400020100000501080187
:1009A0000B010505050507050808080802020202F3
:1009B0000A0A0808040404040101010101010101FB
:1009C0000303030303030303040707070C0C0C0CC6
:1009D0000C0C0C0C020202020606060606060606AF
:1009E0000B0B0B0B0B0B0B0B454011241FBECFEF5A
:1009F000D1E2DEBFCDBF00E00CBF13E0A0E0B2E06B
:100A0000EAEFF0EB00E00BBF02C007900D92A634B6
:100A1000B107D9F72BE0A6E4B3E001C01D92AC34D6
:100A2000B207E1F714E0C5EFD4E000E006C021977B
:100A30000109802FFE010E943452C43FD10780E09B
:100A40000807A9F70E94D9410C947B580C94000028
:100A5000FC01A091260AB091270A892BD1F420919C
:100A60006C0930916D0980916E0990916F0914960F
:100A70001C921E92139716961C921E92159718960A
:100A80003C932E9317971A969C938E93199781E017
:100A9000089598E0139601900D929A95E1F7F7CF9B
:100AA0001092450A88E0EAE0F2E0A6E4BAE001909C
:100AB0000D928A95E1F7089520911E0B30911F0B3E
:100AC000009789F0232B51F42091130B3091140BD4
:100AD0002A5F3F4F3093140B2093130B90931F0BFF
:100AE00080931E0B0895232BC9F32091130B309193
:100AF000140B26503109EECF2F923F924F925F9206
:100B00006F927F928F929F92AF92BF92CF92DF921D
:100B1000EF92FF920F931F93CF93DF93CDB7DEB782
:100B20006D970FB6F894DEBF0FBECDBF7A87698789
:100B30005C874B873E872D87188B0F87FB011182BF
:100B40001082FA0111821082F80111821082F901DB
:100B50001182108220901E0B30901F0B20911C0BD5
:100B60002C83F090190B2F2D30E0388F2F8B46E01F
:100B7000F49E900111243E832D83A0900D0BB09024
:100B80000E0BE0901A0BE8E0EE9E6001112491013B
:100B90002C5F3F4F3A8B298B2E5F3F4F3C8B2B8B2B
:100BA000245031093A8F298F2A5F3F4F3B832A8394
:100BB00098878F8344244A94542CAFEFBFEF8FEF74
:100BC0009FE79C8F8B8F0FEF1FE770E060E050E096
:100BD00040E0EF81F8858191F887EF83882309F45D
:100BE000C0C02114310409F487C08A3041F4EA817D
:100BF000FB8184918E9D600D711D1124E8CF8D3095
:100C000041F3E989FA899491EB89FC892491891748
:100C100000F32817F0F2E98DFA8D25913491891BA4
:100C2000F7E08F9F200D311D1124F9013296849138
:100C30008983319694919D8B319684918E8B3196D8
:100C400084912A5F3F4FF901F491FD8F2C8122237B
:100C5000F1F03981632E712C680E711C87FD7A9436
:100C60002F89388D629E4001639E900C729E900C7D
:100C70001124840E951EA814B9044CF4EA81FB815A
:100C800094919E9D600D711D112450E040E02F2D28
:100C9000382F3203C0011124840F951F2E2D3D8D56
:100CA0003203F00111249F01260F371F801791078F
:100CB0000CF48C01EB8DFC8D2E173F0714F43C8F48
:100CC0002B8FF981FF9D800D911D11240197A8178D
:100CD000B9070CF4DC018D898E9D200D311D112486
:100CE00021503109421653060CF429019E899F9D1B
:100CF000400D511D11246DCF8A3019F46C0D7D1DEE
:100D000066CF8D3009F465CF2C81222359F08D8177
:100D10009E81840F951FA816B90624F46C0D7D1DC5
:100D200050E040E02D813E81240F351FC90101971D
:100D3000A817B9070CF4DC01C601860F971F0197AD
:100D4000481659060CF42C01401751070CF48A017F
:100D50008B8D9C8D6817790714F47C8F6B8FA9019C
:100D600038CFA017B1075CF0E985FA8511830083BD
:100D7000A01BB10B1196ED85FE85B183A0832B8D51
:100D80003C8D421653066CF0EB85FC853183208345
:100D9000421A530AFFEF4F1A5F0AEF85F889518212
:100DA00040826D960FB6F894DEBF0FBECDBFDF91C7
:100DB000CF911F910F91FF90EF90DF90CF90BF9058
:100DC000AF909F908F907F906F905F904F903F90EB
:100DD0002F900895863308F0865320917B00982F3A
:100DE0009870277F922B90937B008770806480930C
:100DF0007C0080917A00806480937A0080917A00F0
:100E000086FDFCCF80917800909179000895FC01D7
:100E1000A5A1B6A18C9192A589238C93A5A1B6A179
:100E20008C9191A5892B8C930895DC019396ED917B
:100E3000FC919497908198968C9189238083089552
:100E4000DC019396ED91FC919497908197968C910B
:100E5000892B80830895FF920F931F93CF93DF9385
:100E6000EC018B018DA981110EC01EBD0DB407FED2
:100E7000FDCF0EBD0DB407FEFDCFDF91CF911F91C9
:100E80000F91FF9008958130C9F490E1F92EE9A106
:100E9000FAA1808117FF0FC09DA1892B8083CE010D
:100EA0000E942007CE010E941507000F111FFA941F
:100EB000F110EDCFE2CF9EA18923F0CFEF8DF8A105
:100EC0001083CE010E940707EF8DF8A10083CE01A9
:100ED000DF91CF911F910F91FF900C9407070F9313
:100EE0001F93CF93DF93EC01162F8DA9811109C0B9
:100EF0006EBD0DB407FEFDCFDF91CF911F910F9115
:100F000008958130B1F408E0E9A1FAA1808117FFCA
:100F10000DC09DA1892B8083CE010E942007110F57
:100F2000CE010E941507015079F7E6CF9EA18923D3
:100F3000F2CFEF8DF8A16083CE01DF91CF911F91A9
:100F40000F910C940707CF93DF93EC01ED8DFE8D8D
:100F500080819CA989238083CE010E946F07ED8D3B
:100F6000FE8D80819BA9892B8083DF91CF9108958D
:100F7000AF92BF92CF92DF92EF92FF920F931F93A7
:100F8000CF93DF93EC015B016A01215031097901B4
:100F9000E60EF71E01501109040F151F6AE20E94A8
:100FA000A307B501CE010E942B07B701CE010E9415
:100FB0002B076BE2CE010E94A307B601CE010E946F
:100FC0002B07B801CE010E942B076CE2CE01DF9106
:100FD000CF911F910F91FF90EF90DF90CF90BF9036
:100FE000AF900C94A307FC0185A9811104C091A1C5
:100FF00082A19CBD8DBD08951F93CF93DF93EC011B
:10100000162FE881F9810284F385E02D19951123CB
:1010100071F06DADCE010E94A307E881F9810688C9
:10102000F789E02DCE01DF91CF911F9119946EAD1C
:10103000F1CFAF92BF92CF92DF92EF92FF920F93D8
:101040001F93CF93DF93EC0177FD38C08885998596
:10105000681779079CF557FD31C08A859B8548172D
:10106000590764F569017A015B01E881F98102841D
:10107000F385E02DCE011995E881F98102A4F3A54D
:10108000E02D01E010E021E030E0A701B501CE0144
:101090001995B601CE010E942B07E881F9810688D7
:1010A000F789E02DCE01DF91CF911F910F91FF9035
:1010B000EF90DF90CF90BF90AF901994DF91CF91D8
:1010C0001F910F91FF90EF90DF90CF90BF90AF9066
:1010D00008958F929F92AF92BF92CF92DF92EF923C
:1010E000FF920F931F93CF93DF93EC0149015701B8
:1010F000E881F98102A4F3A5E02D19959401D801A6
:101100000E943C526B017C01C114D104E104F10442
:1011100009F483C08DA9811115C081E0C81AD108D6
:10112000E108F1088FEFC816D806E806F80609F4BA
:1011300074C0BEBC0DB407FEFDCFAEBC0DB407FE3F
:10114000FDCFEBCF8130C9F581E0C81AD108E108A5
:10115000F1088FEFC816D806E806F80609F45DC056
:101160000B2D18E0E9A1FAA1808107FF20C09DA105
:10117000892B8083CE010E942007CE010E94150793
:10118000000F115079F70A2D18E0E9A1FAA180812A
:1011900007FF10C09DA1892B8083CE010E942007EC
:1011A000CE010E941507000F115079F7CDCF9EA1F7
:1011B0008923DFCF9EA18923EFCFBA1016C0CC0CB4
:1011C000DD1CEE1CFF1CEF8DF8A1B08281E0C81A77
:1011D000D108E108F1088FEFC816D806E806F8062E
:1011E000E1F0CE010E940707F1CF81E0C81AD108D3
:1011F000E108F1088FEFC816D806E806F80669F08E
:10120000EF8DF8A1B082CE010E940707EF8DF8A103
:10121000A082CE010E940707E8CFDF91CF911F91F6
:101220000F91FF90EF90DF90CF90BF90AF909F9085
:101230008F9008958F929F92AF92BF92CF92DF923C
:10124000EF92FF920F931F93CF93DF935C014B01BB
:101250006A01E90177FD52C0DC0118968D919C91DD
:10126000681779070CF04AC0209709F447C037FF88
:1012700007C0C9010196C80ED91ED195C195D109E3
:10128000F50182859385C816D906C4F5A6014C0FD1
:101290005D1F9A012150310937FD30C0D7FE03C0D0
:1012A000EA01D12CC12C281739071CF0EC01CC190C
:1012B000DD09D501ED91FC910284F385E02DC50196
:1012C000199578018E0121E030E0A601B401C50135
:1012D0000E946908D501ED91FC910688F789E02DFF
:1012E000C501DF91CF911F910F91FF90EF90DF909B
:1012F000CF90BF90AF909F908F901994DF91CF9136
:101300001F910F91FF90EF90DF90CF90BF90AF9023
:101310009F908F9008958F929F92AF92BF92CF929D
:10132000DF92EF92FF920F931F93CF93DF935C01B5
:101330006B014A01E90157FD52C0DC011A968D91FB
:101340009C91481759070CF04AC0209709F447C0F0
:1013500037FF07C0C9010196C80ED91ED195C195A6
:10136000D109F50180859185C816D906C4F5A60175
:101370004C0F5D1F9A012150310937FD30C0D7FE57
:1013800003C0EA01D12CC12C281739071CF0EC014D
:10139000CC19DD09D501ED91FC910284F385E02D96
:1013A000C5011995780101E010E09E01A401B60184
:1013B000C5010E946908D501ED91FC910688F78965
:1013C000E02DC501DF91CF911F910F91FF90EF901C
:1013D000DF90CF90BF90AF909F908F901994DF9146
:1013E000CF911F910F91FF90EF90DF90CF90BF9022
:1013F000AF909F908F9008958F929F92AF92BF92DF
:10140000CF92DF92EF92FF920F931F93CF93DF93D0
:101410004C016B015A01E901209709F46CC00115D8
:10142000110509F468C037FF07C0C9010196C80E4D
:10143000D91ED195C195D109F401A085B185CA16EF
:10144000DB060CF058C017FF07C0C8010196A80EB4
:10145000B91E119501951109F40182859385A8168D
:10146000B9060CF048C0F601EC0FFD1FAF0141506A
:10147000510957FD40C0B501600F711F9B012150FC
:10148000310937FD38C0D7FE03C0EF01D12CC12C84
:10149000B7FE03C08B01B12CA12C4A175B071CF0CF
:1014A000ED01CC19DD09281739071CF08C010A1948
:1014B0001B09D401ED91FC910284F385E02DC40158
:1014C00019959E01A501B601C4010E946908D401C5
:1014D000ED91FC910688F789E02DC401DF91CF9151
:1014E0001F910F91FF90EF90DF90CF90BF90AF9042
:1014F0009F908F901994DF91CF911F910F91FF9042
:10150000EF90DF90CF90BF90AF909F908F90089515
:10151000EF92FF920F931F93CF93DF9377FD32C02B
:10152000DC011896ED91FC916E177F075CF5211593
:10153000310541F137FF07C0F90131964E0F5F1FAA
:10154000319521953109DC011A96ED91FC914E17E8
:101550005F07C4F4EA01C20FD31FDE011197B7FD84
:1015600011C057FF03C09E0150E040E0AE17BF0717
:101570001CF09F01241B350B7801890121E030E02C
:101580000E946908DF91CF911F910F91FF90EF901A
:1015900008952F923F924F925F926F927F928F9217
:1015A0009F92AF92BF92CF92DF92EF92FF920F93F2
:1015B0001F93CF93DF93CDB7DEB72C970FB6F89478
:1015C000DEBF0FBECDBF3C017C836B835C874B8746
:1015D0001801270181E090E05C01A41AB50ACA0154
:1015E000919581959109AC01440F551F5A83498308
:1015F000C80101969E838D83F12CE12C882483946D
:10160000912C922F91709F8322702887AB014F5F9E
:101610005F4F5A8749878B859C85E816F9060CF041
:101620007AC0CB84DC84B7FC0CC06C0191E0C91A91
:10163000D10849815A814E5F5F4F5A834983A40E76
:10164000B51E5FEFE51AF50A82E0880E911CA80C22
:10165000B91CCE14DF0464F19F81992399F096019F
:10166000220F331F4D815E81240F351F82014B8174
:101670005C814C195D09B701660D771D85E09BE023
:101680000E94880A5885552399F09601220F331F2E
:101690008D819E81280F391F82014B815C814C19FD
:1016A0005D09B3016E197F0985E09BE00E94880AFD
:1016B0004B855C854C155D0559F15F81552391F093
:1016C000940122503109220D331D820149855A852A
:1016D0004E195F096B857C85660D771D85E09BE063
:1016E0000E94880A8885882399F094012250310944
:1016F000220D331DB3014B855C85641B750B820184
:1017000049855A854E195F0985E09BE00E94880A49
:10171000DC86CB8680CF2C960FB6F894DEBF0FBE4A
:10172000CDBFDF91CF911F910F91FF90EF90DF9090
:10173000CF90BF90AF909F908F907F906F905F9071
:101740004F903F902F900895EF92FF920F931F9329
:10175000CF93DF9357FD31C0DC011A96ED91FC91D8
:101760004E175F0754F52115310539F137FF07C0D2
:10177000F90131966E0F7F1F319521953109DC01FA
:101780001896ED91FC916E177F07BCF4EB01C20F28
:10179000D31FDE011197B7FD10C077FF03C09E0174
:1017A00070E060E0AE17BF071CF09F01261B370BEF
:1017B000780101E010E00E946908DF91CF911F914C
:1017C0000F91FF90EF9008958F929F92AF92BF92EA
:1017D000CF92DF92EF92FF920F931F93CF93DF93FD
:1017E00047012115310509F44BC00115110509F414
:1017F00047C037FF07C0F90131966E0F7F1F319543
:1018000021953109DC011896AD90BC906A157B05D5
:10181000BCF517FF07C0F80131964E0F5F1F1195F9
:1018200001951109DC011A96ED91FC914E175F07A5
:101830003CF56B01C20ED31EE6012197D7FD20C0F7
:101840007A01E00EF11ED7011197B7FD19C077FF9D
:1018500003C0960170E060E057FF03C0870150E0CD
:1018600040E0CA15DB051CF09501261B370BAE17AF
:10187000BF071CF08F01041B150B74010E9469083F
:10188000DF91CF911F910F91FF90EF90DF90CF905C
:10189000BF90AF909F908F900895EF92FF920F931B
:1018A0001F93CF93DF93EC0177FD22C08885998544
:1018B00068177907ECF457FD1BC08A859B8548178C
:1018C0005907B4F47901E881F98102A4F3A5E02D68
:1018D00001E010E021E030E0CE011995B701CE0122
:1018E000DF91CF911F910F91FF90EF900C942B07F8
:1018F000DF91CF911F910F91FF90EF9008952F925C
:101900003F924F925F926F927F928F929F92AF928F
:10191000BF92CF92DF92EF92FF920F931F93CF93DC
:10192000DF9300D01F92CDB7DEB76C015B015C8303
:101930004B8381E090E04C01841A950A2A0151946E
:1019400041945108440C551CF12CE12C66246394FD
:10195000712C422F44704983522F52705A83822F28
:101960008870282E2170322E4B815C81E416F5069A
:101970000CF083C097FC09C0415051095C834B8334
:1019800052E0450E511C840C951C8FEFE81AF80AA2
:1019900092E0690E711C860C971C49814423C1F0AA
:1019A00098014B815C814A0D5B1DB6016E0D7F1D58
:1019B00085E09BE00E944D0C9801A5014E0D5F1D36
:1019C0006B817C816C0D7D1D85E09BE00E944D0C40
:1019D0005A815523C9F09801A5018B819C81481B30
:1019E000590BB6016E0D7F1D85E09BE00E944D0CEA
:1019F0009801A5014E195F096B817C816C0D7D1DDD
:101A000085E09BE00E944D0C2220C9F09801A501C1
:101A10004E0D5F1DB6018B819C81681B790B85E0A3
:101A20009BE00E944D0C98014B815C814A0D5B1D2F
:101A3000B6016E197F0985E09BE00E944D0C3320B2
:101A400009F492CF9801A5014E195F09B6018B8167
:101A50009C81681B790B85E09BE00E944D0C9801EE
:101A6000A5018B819C81481B590BB6016E197F091A
:101A700085E09BE00E944D0C77CF0F900F900F9068
:101A80000F90DF91CF911F910F91FF90EF90DF901A
:101A9000CF90BF90AF909F908F907F906F905F900E
:101AA0004F903F902F900895CF93DF93EC010E94C9
:101AB000F3078FA987FD06C0EB8DFC8D80819AA965
:101AC00089238083DF91CF9108950895AF92BF92CB
:101AD000CF92DF92EF92FF920F931F93CF93DF93FA
:101AE000EC01E62E8A01A22E0E94F3078FA987FD42
:101AF00006C0EB8DFC8D80819AA989238083ED8DB2
:101B0000FE8D80819CA9892380836E2DCE010E9449
:101B10006F07ED8DFE8D80819BA9892B8083D12C51
:101B2000C12CB12CCA14DB04E4F48DA978018230F5
:101B300079F488A9882361F0F801619171917F019E
:101B4000CE010E942B07FFEFCF1ADF0A8701EACFF1
:101B5000FFEFEF1AFF0AF8016491CE010E946F07B0
:101B6000F2CF8FA987FD06C0EB8DFC8D808199A9EE
:101B7000892B8083DF91CF911F910F91FF90EF9080
:101B8000DF90CF90BF90AF900895611106C060E2E2
:101B900020E050E040E00C94660D61E2F9CFFF9246
:101BA0000F931F93CF93DF93EC01F62E8A010E94CF
:101BB000F3078FA987FD06C0EB8DFC8D80819AA964
:101BC00089238083ED8DFE8D80819CA9892380836C
:101BD0006F2DCE010E946F07ED8DFE8D80819BA938
:101BE000892B80838DA9F801823099F06081CE0124
:101BF0000E946F078FA987FD06C0EB8DFC8D808149
:101C000099A9892B8083DF91CF911F910F91FF902C
:101C1000089588A9882351F360817181CE010E94C3
:101C20002B07E8CFCF93DF931F92CDB7DEB7FC0130
:101C30006370668B623071F0633009F188E4613063
:101C400051F488E2898380E491E09187808780EF76
:101C500090E008C088E8898380EF90E091878087D2
:101C600080E491E093878287AE014F5F5F4F66E328
:101C7000CF010E94CF0D0F90DF91CF91089588EE94
:101C8000E1CFFC0187A987FD06C0A38DB48D9C918F
:101C900081A9892B8C9308950F931F93CF93DF9382
:101CA0001F92CDB7DEB7182F80E18983AE014F5F59
:101CB0005F4F69ED85E09BE00E94CF0D85E09BE0E2
:101CC0000E94540DE091220BF091230B80819091A2
:101CD000390B89238083612F85E09BE00E946F0789
:101CE000E091220BF091230B80819091380B892B8E
:101CF000808380913A0B811111C01EBC00000DB48D
:101D000007FEFDCF1EB585E09BE00E94410E812FAE
:101D10000F90DF91CF911F910F9108958130E9F4D9
:101D20008091300B10E087FDEECF08E010E085E0F9
:101D30009BE00E942007110FE091240BF091250BEE
:101D4000808190912E0B892309F01F5F85E09BE035
:101D50000E941507015059F7D6CF8091340B87FDAB
:101D60001BC0E0912C0BF0912D0B80819091310BD9
:101D700089238083E091280BF091290B1082E09158
:101D8000260BF091270B8081E091280BF091290B15
:101D90002FEF2083182FB7CF80E0FCCF0895FC01F0
:101DA0006370668B8481958126813781613039F03B
:101DB000633029F0918780873387228708953187A0
:101DC00020879387828708952F923F924F925F9248
:101DD0006F927F928F929F92AF92BF92CF92DF923B
:101DE000EF92FF920F931F93CF93DF93CDB7DEB7A0
:101DF0006A970FB6F894DEBF0FBECDBF9A8F898F5A
:101E00007A8369834A01D22E18870F833701BC2C4D
:101E1000DC0159962D913C915A972115310509F015
:101E200015C118968D919C911997681779070CF038
:101E3000D7C11A968D919C91481759070CF0D0C1C3
:101E40004C2C512CB6E0CB9E600D711D11247C876B
:101E50006B87161617060CF0C3C1EA2DF0E0FA875F
:101E6000E98793E0EE0FFF1F9A95E1F7F88BEF8774
:101E7000CF01840F951F181619060CF0B1C1A98D5A
:101E8000BA8D58968C91811104C0BFEABD1508F433
:101E9000D394A98DBA8DED91FC9111970284F385AD
:101EA000E02DCD011995B5E0DB9EC0011124E9813B
:101EB000FA81FC83EB83312C212C9C0121563C4F71
:101EC000388F2F8B4A2D50E05E8B4D8BEF89F88D2C
:101ED000E20DF31D44919E828D82D12CC12C69812B
:101EE0007A81620D731D7A8B698B842F90E09C8BB5
:101EF0008B8BE98DFA8DA081B18140FF82C0F1E02A
:101F0000BF126FC0AF126DC01C96ED91FC912F8176
:101F10003885A4014C0D5D1D69897A89898D9A8D5A
:101F20001995EB89FC89F595E7954E2F5FEFC51A5A
:101F3000D50A6D817E818D899E89680F791F7E8388
:101F40006D8398E0C916D10481F6AFEF2A1A3A0AD8
:101F5000EB81FC81E40DF51DFC83EB83F5E02F168E
:101F6000310409F0B3CF2F81388526153705B9F034
:101F7000A98DBA8DED91FC91B1E0BB1257C0AB12A7
:101F800055C069817A816B5F7F4F0088F189E02DB0
:101F9000830128E030E0A401898D9A8D1995A98DDF
:101FA000BA8DED91FC9111970688F789E02DCD014E
:101FB0006A960FB6F894DEBF0FBECDBFDF91CF910A
:101FC0001F910F91FF90EF90DF90CF90BF90AF9057
:101FD0009F908F907F906F905F904F903F902F9049
:101FE00019941E96ED91FC91EF80F88409851A856D
:101FF00092014D815E816B817C81898D9A8D1995CD
:1020000090CF2F8138852615370509F48ACF31E026
:10201000B31207C0A31205C01C96ED91FC91930169
:1020200078CF1E96ED91FC917301E0CF6B857C8596
:10203000641975090684F785E02D73010F851889E9
:102040009201A401898D9A8D1995A9CFF901349631
:102050009491329745915491D91AB7E0DB9E400D87
:10206000511D1124F901259134913C8B2B8BFA01E0
:1020700025903490FA013296749031963491398BD0
:10208000329664903196449041E04C1518F04A1510
:1020900008F07FC0662D062C000C770B7C836B83C9
:1020A000842D042C000C990B9E838D83A98DBA8DF1
:1020B000ED91FC9111970284F385E02DCD011995E6
:1020C000512CD12CC12CEA2DF0E0FA87E9872B2D79
:1020D00030E03C872B87A401440D511D47FC5A95E5
:1020E000588F4F8B69817A81660D711D67FC7A95D7
:1020F0007E876D877989C71608F051CF2C2D30E087
:102100004D815E81420F531FA985BA854A9FC00148
:102110004B9F900D5A9F900D1124FC01E80DF91D65
:10212000F88BEF87852D612C4F89588D420F531FF7
:102130005E8B4D8B671408F050C044244394480EC6
:10214000877041F4C1010196EB89FC89E20DF31D12
:10215000D4901C01D7FE19C0A98DBA8DED91FC91C8
:10216000662D70E0B1E0BB1219C0AB1217C02D850F
:102170003E85620F731F0484F585E02D2F8138851D
:102180004D895E89898D9A8D1995DD0C6394842D16
:10219000D1CF1E821D821C821B8288CF4B815C8125
:1021A000640F751FAB85BC856A9FC0016B9F900D46
:1021B0007A9F900D112469817A81680F791F0684B6
:1021C000F785E02DEF80F88409851A859D014F85FC
:1021D0005889898D9A8D1995D8CF570CC3948ACF79
:1021E0006A960FB6F894DEBF0FBECDBFDF91CF91D8
:1021F0001F910F91FF90EF90DF90CF90BF90AF9025
:102200009F908F907F906F905F904F903F902F9016
:1022100008958F929F92AF92CF92EF92FF920F9379
:102220001F93CF93DF93EC01262F898D9A8D009712
:1022300009F051C06A30D1F41D861C868D8948E0B2
:10224000849F900111248E859F85820F931F9F8705
:102250008E8781E090E0DF91CF911F910F91FF90E9
:10226000EF90CF90AF909F908F9008956D3089F34D
:10227000CC88AD888F898823C1F08C859D8536E018
:10228000C39E800D911D1124488559854817590713
:1022900064F44E855F851D861C8638E0A39EC001D0
:1022A0001124840F951F9F878E87EA88FB880889F1
:1022B00019894E855F856C857D85CE010E94E40E6F
:1022C0002C898C859D8546E0249F800D911D1124CD
:1022D0009D878C87BECF6A3069F41D861C86FC0101
:1022E0003896E4912D898E859F85E29F800D911D02
:1022F0001124ADCF6D3009F4ACCFFC01349634918C
:10230000631708F4A6CF3296E491E61708F4A1CF3C
:10231000FC01329685909490462F431B342F47E062
:10232000349F800C911C1124F40132963491319623
:10233000E4913323A9F1EE2399F1CC88F401359689
:10234000E491AD884F89442301F10E2E000CFF0B60
:10235000E30FF11DCE9EA001CF9E500D11246C8580
:102360007D85460F571F68857985641775076CF45E
:102370004E855F851D861C86FC013896E491AE9ED5
:10238000400D511D11245F874E87EA88FB8808891C
:1023900019894E855F856C857D85CE010E94E40E8E
:1023A000F4013496E4912C898C859D85E29F800D03
:1023B000911D11248DCF6F927F928F929F92AF9239
:1023C000BF92CF92DF92EF92FF920F931F93CF9322
:1023D000DF93EC016B015A0139014801E881F98171
:1023E0000284F385E02D1995E881F9810288F3894B
:1023F000E02D87019301A501B601CE011995A50134
:10240000480D591D41505109E881F9810288F3892D
:10241000E02D9301B601CE011995E881F98100887C
:10242000F189E02D9401A501B601CE011995C60CE4
:10243000D71CB60161507109E881F9810088F189E2
:10244000E02D9401A501CE011995E881F981068856
:10245000F789E02DCE01DF91CF911F910F91FF9071
:10246000EF90DF90CF90BF90AF909F908F907F9034
:102470006F9019946F927F928F929F92AF92BF92BA
:10248000CF92DF92EF92FF920F931F93CF93DF9340
:102490005C01EB016A01490138018701DC01ED9122
:1024A000FC916217730719F5641675062CF0962DCA
:1024B000872D3A01C92ED82E9601261937092F5F8C
:1024C0003F4F048CF58DE02DA301BE01C501199588
:1024D000DF91CF911F910F91FF90EF90DF90CF9000
:1024E000BF90AF909F908F907F906F90089546150A
:1024F000570591F42617370724F0892D4B01C22F79
:10250000D82F9E01281939092F5F3F4F068CF78D70
:10251000E02DA601B401DACF0284F385E02D1995F0
:10252000D501ED91FC910488F589E02D830194019A
:10253000A601BE01C5011995D501ED91FC91068852
:10254000F789E02DC501DF91CF911F910F91FF9089
:10255000EF90DF90CF90BF90AF909F908F907F9043
:102560006F901994EF92FF920F931F93DC011A96CC
:102570000D911C911B9718962D913C911997ED91F7
:10258000FC9100A0F1A1E02D7B0150E040E070E063
:1025900060E019951F910F91FF90EF9008954F9271
:1025A0005F926F927F928F929F92AF92BF92CF92E3
:1025B000DF92EF92FF920F931F93CF93DF936C0103
:1025C0002B015A0139014801DC01ED91FC91028493
:1025D000F385E02D1995E201640C751CD601ED918F
:1025E000FC91C615D7055CF40088F189E02D8701C0
:1025F0009401A501BE01C60119952196EFCF068869
:10260000F789E02DC601DF91CF911F910F91FF90C7
:10261000EF90DF90CF90BF90AF909F908F907F9082
:102620006F905F904F9019948F929F92AF92BF924C
:10263000CF92DF92EF92FF920F931F93CF93DF938E
:10264000EC015B014A016901E881F9810284F385AB
:10265000E02D199595012C0D3D1D21503109E88182
:10266000F9810488F589E02D78018401A401B50180
:10267000CE011995E881F9810688F789E02DCE0110
:10268000DF91CF911F910F91FF90EF90DF90CF904E
:10269000BF90AF909F908F9019948F929F92AF921E
:1026A000BF92CF92DF92EF92FF920F931F93CF933F
:1026B000DF93EC015B014A0169017801E881F9814E
:1026C0000284F385E02D1995C80CD91C86010150B0
:1026D0001109E881F9810488F589E02D9501A401AB
:1026E000B501CE011995E881F9810688F789E02DB9
:1026F000CE01DF91CF911F910F91FF90EF90DF906E
:10270000CF90BF90AF909F908F9019940895EF92C3
:10271000FF920F931F93DC01ED91FC9100A0F1A1BA
:10272000E02D19951F910F91FF90EF9008950F9351
:102730001F93DC01ED91FC91068CF78DE02D19952E
:102740001F910F9108950F931F93DC01ED91FC9160
:10275000048CF58DE02D19951F910F910895DC01E2
:10276000ED91FC910084F185E02D19942F923F9218
:102770004F925F926F927F928F929F92AF92BF9291
:10278000CF92DF92EF92FF920F931F93CF93DF933D
:1027900000D000D0CDB7DEB73C016A013E832D8367
:1027A000FC82EB825801A41AB50AB7FE03C0B194AB
:1027B000A194B1088D809E80861A970A97FE03C067
:1027C0009194819491088A149B045CF0902F812F3E
:1027D0000D811E819D838E839C2D8D2D6B01692F14
:1027E000782F0C151D055CF09D818E817E836D8395
:1027F000692F782F902F812F8601C92ED82E160190
:10280000201A310A2B012D813E81421A530A57FEAC
:1028100003C0519441945108710137FE03C03FEF4A
:10282000E31AF30AF594E7948D819E818617970742
:102830005CF5A1E0B0E0BA83A983C016D1064CF1E3
:10284000D301ED91FC910484F585E02D2B813C8131
:10285000A8016D817E818A149B041CF04D815E81EC
:10286000B801C3011995E418F508F7FE0AC02D81D7
:102870003E8189819A81280F391F3E832D83E20C86
:10288000F31C0F5F1F4FD9CF2FEF3FEF3A83298300
:10289000D4CF26960FB6F894DEBF0FBECDBFDF9122
:1028A000CF911F910F91FF90EF90DF90CF90BF904D
:1028B000AF909F908F907F906F905F904F903F90E0
:1028C0002F9008958150823108F05AC0E82FF0E02F
:1028D0008827E259FB4E8F4F0C9434528E14921479
:1028E000801486148A14C01495149B149F14A51484
:1028F000A914AD14B314B714C014BB14C114C51477
:10290000809180008F77809380000895809180006F
:102910008F7DF9CF80918000877FF5CF84B58F7749
:1029200084BD089584B58F7DFBCF8091B0008F77F3
:102930008093B00008958091B0008F7DF9CF809191
:1029400090008F77809390000895809190008F7D04
:10295000F9CF80919000877FF5CF8091A0008F778D
:102960008093A00008958091A0008F7DF9CF809181
:10297000A000877FF5CF809120018F778093200181
:102980000895809120018F7DF9CF80912001877F6C
:10299000F5CF1F93CF93DF93282F30E0F901E75A4B
:1029A000FC4F8491F901EE5BF64FD491F901EE559D
:1029B000F64FC491CC23A9F0162F81110E94621406
:1029C000EC2FF0E0EE0FFF1FE857F64FA591B49102
:1029D0008FB7F894EC91111108C0D095DE23DC93E9
:1029E0008FBFDF91CF911F910895DE2BF8CFCF934A
:1029F000DF9390E0FC01EE5BF64F24918E55964FED
:102A0000FC0184918823C9F090E0880F991FFC0194
:102A1000E156F74FA591B491FC01E857F64FC591E7
:102A2000D49161110DC09FB7F8948C9120958223A9
:102A30008C938881282328839FBFDF91CF910895AD
:102A4000623051F49FB7F8943C91822F8095832394
:102A50008C93E8812E2BEFCF8FB7F894EC912E2B2F
:102A60002C938FBFEACF3FB7F8948091670990917C
:102A70006809A0916909B0916A0926B5A89B05C0AB
:102A80002F3F19F00196A11DB11D3FBFBA2FA92FED
:102A9000982F8827BC01CD01620F711D811D911DEA
:102AA00042E0660F771F881F991F4A95D1F7089556
:102AB0008F929F92AF92BF92CF92DF92EF92FF924E
:102AC0004B015C010E9433156B017C010E943315A0
:102AD0006C197D098E099F09683E73408105910537
:102AE000A8F321E0821A9108A108B10888EEC80E67
:102AF00083E0D81EE11CF11C81149104A104B104EF
:102B000029F7FF90EF90DF90CF90BF90AF909F900C
:102B10008F9008952FB7F8946091630970916409BC
:102B200080916509909166092FBF0895AF92BF9279
:102B3000CF92DF92EF92FF920F931F93CF93DF9389
:102B40006C017B018B01040F151FEB015E01AE18B8
:102B5000BF08C017D10759F06991D601ED91FC91DA
:102B60000190F081E02DC6011995892B79F7C501F7
:102B7000DF91CF911F910F91FF90EF90DF90CF9059
:102B8000BF90AF900895089590E080E00895FC0113
:102B9000538D448D252F30E0842F90E0821B930BC2
:102BA000541710F0CF96089501970895FC01918D68
:102BB000828D981761F0A28DAE0FBF2FB11D5D966B
:102BC0008C91928D9F5F9F73928F90E008958FEF0D
:102BD0009FEF0895FC01918D828D981731F0828DC1
:102BE000E80FF11D858D90E008958FEF9FEF089518
:102BF000FC01918D228D892F90E0805C9F4F821B7C
:102C000091098F739927089584E59AE00E94F81539
:102C100021E0892B09F420E0822F0895FC01A48D86
:102C2000A80FB92FB11DA35ABF4F2C91848D90E0EE
:102C300001968F739927848FA689B7892C93A089D1
:102C4000B1898C91837080648C93938D848D98135B
:102C500006C00288F389E02D80818F7D80830895EE
:102C6000EF92FF920F931F93CF93DF93EC0181E0DC
:102C7000888F9B8D8C8D98131AC0E889F989808183
:102C800085FF15C09FB7F894EE89FF896083E889B6
:102C9000F98980818370806480839FBF81E090E0A8
:102CA000DF91CF911F910F91FF90EF900895F62E35
:102CB0000B8D10E00F5F1F4F0F731127E02E8C8DCF
:102CC0008E110CC00FB607FCFACFE889F989808114
:102CD00085FFF5CFCE010E940E16F1CFEB8DEC0FE4
:102CE000FD2FF11DE35AFF4FF0829FB7F8940B8F31
:102CF000EA89FB8980818062CFCFCF93DF93EC019B
:102D0000888D8823B9F0AA89BB89E889F9898C91D3
:102D100085FD03C0808186FD0DC00FB607FCF7CF8F
:102D20008C9185FFF2CF808185FFEDCFCE010E948F
:102D30000E16E9CFDF91CF91089580E090E0892BC6
:102D400029F00E94041681110E94000080E090E0AA
:102D5000892B49F080E090E0892B29F00E94000047
:102D600081110E94000080E090E0892B49F080E012
:102D700090E0892B29F00E94000081110E94000040
:102D800080E090E0892B49F080E090E0892B29F0E9
:102D90000E94000081110C9400000895272F669571
:102DA0006695669570E0762F6627770F770F770F19
:102DB0002695269590E2299F90011124622B732B72
:102DC0008695869586959B01282BC90108957F924B
:102DD0008F929F92AF92BF92CF92DF92EF92FF922B
:102DE0000F931F93CF93DF935C014B01EA01722E87
:102DF000F32E8E2DB6010E94CE166C01E8848E81D2
:102E00009F810E945C05D092180BC092170BD09244
:102E1000160BC092150BB092120BA092110B909250
:102E2000140B8092130B8E2DE11001C081E0809372
:102E3000190B80931A0B680183E0C822DD24C72D8B
:102E4000DF2DE1E0CE16D10481F01881112381F04D
:102E5000612F85E09BE00E9409111A3021F4B092A5
:102E6000120BA092110B2196ECCFFE011491EECF24
:102E700090E080E00E945C0581E0DF91CF911F919E
:102E80000F91FF90EF90DF90CF90BF90AF909F9009
:102E90008F907F9008950F931F93CF93DF93182FF8
:102EA000062FEA01642F0E94F714219741F4602F46
:102EB000812FDF91CF911F910F910C94C914DF9155
:102EC000CF911F910F9108950F931F93CF93DF938D
:102ED000EB01BC016E5B764FFB01A4919C012E556A
:102EE000364FF901449150E0440F551FFA01E15665
:102EF000F74F05911491F801B081EB2FEA2371F49B
:102F0000FA01E857F64F45915491FA014081A42304
:102F100050E040E029F042E050E002C041E050E0E3
:102F200059834883875A9C4FFC018491FB0104918B
:102F3000F9011491112379F081110E946214E12F9B
:102F4000F0E0EE0FFF1FE85DF64FA591B4916C9194
:102F5000602381E009F480E081708A83DF91CF9162
:102F60001F910F9108952F923F924F925F926F920F
:102F70007F928F929F92AF92BF92CF92DF92EF9209
:102F8000FF920F931F93CF93DF93CDB7DEB72F97A9
:102F90000FB6F894DEBF0FBECDBF7F836E83598717
:102FA0004887D901B9016E5F7F4F002309F4B9C08A
:102FB000F901F4912F2F30E0322F2227FD013196B5
:102FC0004491E42FF0E0FB83EA834A815B81422B4A
:102FD000532B5F874E87AD014C5F5F4F002309F491
:102FE000A9C0FB01649170E0762F6627FD0133963E
:102FF000E491F0E09F01262B372B3B832A83BA0113
:103000006F5F7F4F002309F49EC0FA01F491F983AA
:103010009A012E5F3F4F002309F499C0FB015490A1
:10302000F90144901A01B4E02B0E311C2E853F8526
:10303000295F3F4F37FF04C02E853F85225F3F4FFA
:10304000F90123E0F595E7952A95E1F7FD83EC83F7
:10305000D12CC12C10E0B12CA12C9C0126543F4F47
:103060003D872C874A815B81A416B5060CF084C08D
:10307000F12CE12CC1018C0D9D1D9B878A878884D2
:1030800099848A0C9B1CAE85BF85EA16FB060CF062
:103090006BC0C70187709927110F892B71F4F70155
:1030A00083E0F595E7958A95E1F7002309F456C08A
:1030B000EC0DFD1DE20DF31D149117FF2EC06E8067
:1030C0007F806E0C7F1CAC85BD85ED91FC912381CA
:1030D0003481621673060CF1878190850197820F07
:1030E000931F86159705CCF02581368182169306AD
:1030F000A4F0818592850197820F931F8815990509
:1031000064F06981752D842D0E94CE169C01A40166
:10311000B30185E09BE00E941908BFEFEB1AFB0AA0
:10312000B2CF2C91298330E0322F222711964C9177
:10313000119747CF12966C91129770E0762F662701
:103140001396EC9156CFDA01BC91B98361CFDA01C5
:1031500011965C90119712964C9064CF2A853B850E
:10316000E20FF31F1081A9CFEFEFAE1ABE0A2C8138
:103170003D81C20ED31E76CF2F960FB6F894DEBFD8
:103180000FBECDBFDF91CF911F910F91FF90EF90B8
:10319000DF90CF90BF90AF909F908F907F906F9077
:1031A0005F904F903F902F9008952F923F924F92B3
:1031B0005F926F927F928F929F92AF92BF92CF92C7
:1031C000DF92EF92FF920F931F93CF93DF9300D084
:1031D00000D01F921F92CDB7DEB709831A832B83CD
:1031E0003C834D835E836F83788749815A818654FF
:1031F0009F4FDC01ED91FC91A380B4806D807E80B7
:10320000B1E06B1A7108640E751E6A147B040CF42D
:1032100045C02780308421E0221A31082A0C3B1C4B
:1032200024163506DCF18B819C81858096804F8049
:103230005884A1E04A1A5108480E591E48145904EE
:103240006CF10185128501501109080D191D08172F
:10325000190724F1A416B5060CF45A01881699062C
:103260000CF44C018E2DB6010E94CE16401651066C
:103270000CF48201081919090F5F1F4F62147304BF
:103280000CF413012A183B0891012F5F3F4F7C017A
:10329000A401B50185E09BE00E94FC0981E028962D
:1032A0000FB6F894DEBF0FBECDBFDF91CF911F9157
:1032B0000F91FF90EF90DF90CF90BF90AF909F90D5
:1032C0008F907F906F905F904F903F902F900895D8
:1032D000CF93DF93FC01892B09F45BC0128281E359
:1032E00098EF9183808384E090E09483838389EADC
:1032F00094EE96878587DF01159688E0ED01199297
:103300008A95E9F7148E138E168E158E10A2178EDD
:1033100012A211A214A213A216A215A210A617A2FD
:1033200012A611A68091120290911302A09114028C
:103330008787908BA18B828B938BA48B858B968BAD
:10334000A78B808F918FA28F11AA10AA16A615A6FF
:1033500017A682AB93ABA4AB85AB96ABA7AB82E2CF
:1033600080AF11AE12AE14AE13AE16AE15AEDF01C5
:10337000DF9611961C921E92129611961C921E9226
:10338000129611961C921E9212961D921C9214A6D1
:1033900013A6DF91CF910895CF93DF93FC01E753FC
:1033A000FF4F408150E020E032973CE1822F022E17
:1033B000000C990B841795072CF090E080E0DF91CA
:1033C000CF910895808191812302800D911D112458
:1033D000EC01AA89BB89A617B70789F32F5FE6CF4F
:1033E0008F929F92AF92BF92CF92DF92EF92FF9215
:1033F0000F931F93CF93DF93EC015B014A016901A7
:10340000802FB7010E94CE167C0185E09BE00E94D0
:10341000540D9601220F331F2F5F3F4FA4014C190B
:103420005D098701B50185E09BE00E94880A10E0F4
:1034300000E023E0A601B401C5010E94C90A85E0AD
:103440009BE00E94410E209721F0C852DF4F81E09F
:103450008883DF91CF911F910F91FF90EF90DF90C4
:10346000CF90BF90AF909F908F9008952F923F92F2
:103470004F925F926F927F928F929F92AF92BF9284
:10348000CF92DF92EF92FF920F931F93CF93DF9330
:1034900000D000D01F921F92CDB7DEB79E838D83E0
:1034A0005B016A014901802FB7010E94CE168C0191
:1034B0008F82988681E090E03C012F813885621AE6
:1034C000730AC9019195819591099C01220F331FBF
:1034D0003A83298385E09BE00E94540D4F815885F3
:1034E0004C0D5D1D9801B50185E09BE00E944D0CDF
:1034F000A6018F819885481B590B9801B50185E07D
:103500009BE00E944D0C6F8178856A0D7B1D9801B0
:10351000A60185E09BE00E944D0CB5012F81388506
:10352000621B730B9801A60185E09BE00E944D0C85
:10353000F12CE12C81E090E09C838B832F813885F6
:10354000E216F3060CF06FC077FC0BC02150310976
:1035500038872F8389819A8102969A838983680E9E
:10356000791E9FEFE91AF90A2B813C812E5F3F4FAC
:103570003C832B83620E731E25014E0C5F1C980149
:103580008F8098848C0C9D1CA401B20185E09BE087
:103590000E944D0C15012E183F089801A401B1019D
:1035A00085E09BE00E944D0C980146018F81988533
:1035B000881A990AA401B20185E09BE00E944D0C93
:1035C0009801A401B10185E09BE00E944D0C4701E8
:1035D0008C0C9D1C9801A4014F8058844A0C5B1CE4
:1035E000B20185E09BE00E944D0C9801A4011501F9
:1035F0008F819885281A390AB10185E09BE00E94E5
:103600004D0C46018E189F089801A401B20185E077
:103610009BE00E944D0C9801A401B10185E09BE064
:103620000E944D0C8BCF85E09BE00E94410E2D81C6
:103630003E812115310529F0F901E852FF4F81E063
:10364000808328960FB6F894DEBF0FBECDBFDF9102
:10365000CF911F910F91FF90EF90DF90CF90BF908F
:10366000AF909F908F907F906F905F904F903F9022
:103670002F900895EF92FF920F931F93CF93DF93B4
:1036800000D000D01F921F92CDB7DEB7DC010983B6
:103690001A832B833C834D835E836F8378871496D4
:1036A0000D911C9115970115110531F01696ED91AC
:1036B000FC9117973097A1F488E0FE0131960190B4
:1036C0000D928A95E1F728960FB6F894DEBF0FBEEB
:1036D000CDBFDF91CF911F910F91FF90EF90089593
:1036E00029813A81EB80FC806D917C911197129633
:1036F0004D915C91139701501109060F171F3197D7
:10370000E40FF51F261737070CF4B901E416F50688
:103710000CF4A7018D819E810197820F931F801762
:1037200091070CF4C8012F813885215031092E0DE5
:103730003F1D2E173F070CF49F0111967C936E934B
:1037400013965C934E931297861B970B01961596D2
:103750009C938E931497241B350B2F5F3F4F179626
:103760003C932E931697AFCF0F931F93CF93DF9376
:1037700000D000D01F921F92CDB7DEB728E0FC0129
:103780007496DE01119601900D922A95E1F78091D1
:10379000450A8823D1F009811A812B813C814D8112
:1037A0005E816F81788586E49AE00E943A1B81E011
:1037B0008093450A28960FB6F894DEBF0FBECDBFA2
:1037C000DF91CF911F910F91089588E0FE0131960E
:1037D000A6E4BAE001900D928A95E1F7E8CF0F9345
:1037E0001F93CF93DF93C091390AD0913A0A09E42D
:1037F00014EF209711F00A891B8970E060E08CE6D5
:1038000099E00E94CC19009711F190933A0A8093A5
:10381000390A012B19F081E08093430A209719F0AF
:10382000CE010E94B41B8091390A90913A0A009708
:1038300011F00E94B41B80913B0A90913C0A0097C2
:1038400031F0DF91CF911F910F910C94B41BDF9158
:10385000CF911F910F910895EF92FF920F931F93B5
:10386000CF93DF93CDB7DEB760970FB6F894DEBF86
:103870000FBECDBF29873A874B875C876D877E87D0
:103880008F87988B4D855E8590E080E09C01201BA2
:10389000310B220F331F421753074CF02F85388905
:1038A0008E199F09880F991F28173907ECF41A827F
:1038B00019821C821B821E821D8218861F8229810A
:1038C0003A814B815C816D817E818F819885609684
:1038D0000FB6F894DEBF0FBECDBFDF91CF911F9121
:1038E0000F91FF90EF9008958B859C858E199F090D
:1038F00069857A85601B710B7A8369839C838B83CE
:10390000000F111F040F151F1E830D83EE0CFF1CEB
:10391000E20EF31EF886EF82D2CF2F923F924F92A3
:103920005F926F927F928F929F92AF92BF92CF924F
:10393000DF92EF92FF920F931F93CF93DF93CDB758
:10394000DEB72E970FB6F894DEBF0FBECDBF09834A
:103950001A832B833C834D835E836F8378874C2D42
:103960008D809E808114910409F467C0CF80D88433
:10397000C114D10409F461C09E878D8789819A8121
:103980009C878B876B807C80842FB5010E94CE162C
:103990002C018C149D042CF4C40197FE05C00196E3
:1039A00003C0C601D7FCFBCF9595879557018E15AF
:1039B0009F050CF45C0185E09BE00E94540DC5015D
:1039C000880F991F9A8789872B843C842A0C3B1C7B
:1039D0009401281B390B72018601A301B10185E016
:1039E0009BE00E94E40B89859A85C81AD90A91E068
:1039F000C91AD1086A0C7B1C8B859C85880E991E80
:103A0000C4018A199B09860121E0A501B301019730
:103A10000E94C90A22E0A501B301C1010E94C90A9E
:103A200085E09BE00E94410E8D859E85009729F0E0
:103A3000FC01E852FF4F81E080832E960FB6F89488
:103A4000DEBF0FBECDBFDF91CF911F910F91FF90D1
:103A5000EF90DF90CF90BF90AF909F908F907F902E
:103A60006F905F904F903F902F900895AF92BF92CC
:103A7000CF92DF92EF920F931F93CF93DF9300D0FB
:103A800000D01F921F92CDB7DEB72B833C834D83AE
:103A90005E836F8378872D813E81232B89F02F8170
:103AA0003885232B69F05C012B813C810E94D5185D
:103AB000A114B10429F0F501E852FF4F81E08083A1
:103AC00028960FB6F894DEBF0FBECDBFDF91CF9121
:103AD0001F910F91EF90DF90CF90BF90AF9008951E
:103AE0002F923F924F925F926F927F928F929F920E
:103AF000AF92BF92CF92DF92EF92FF920F931F93FC
:103B0000CF93DF93CDB7DEB760970FB6F894DEBFE3
:103B10000FBECDBF09831A832B833C834D835E8305
:103B20006F8378874D805E804114510409F496C0FC
:103B30008F8098848114910409F490C0988B8F87AA
:103B400069807A808B819C819A8789878C2DB501C9
:103B50000E94CE165C01481459042CF4C20157FE91
:103B600005C0019603C0C40197FCFBCF95958795CE
:103B700067018E159F050CF46C0185E09BE00E94A7
:103B8000540D7601EE0CFF1CC2018E199F099C8713
:103B90008B871601260C371C85019C0149855A85A7
:103BA000B10185E09BE00E94A40B89859A85880D70
:103BB000991D9E878D87AC01415051092B853C850D
:103BC000B10185E09BE00E94A40B8E189F08E98458
:103BD000FA84EC0CFD1C9401A701B30185E09BE085
:103BE0000E94880A460C571CB20161507109940169
:103BF000A70185E09BE00E94880A21E0A601B701A9
:103C0000C1010E947F0C4C185D0891E0491A5108CF
:103C100022E0A601B701C2010E947F0CED84FE8460
:103C2000EC18FD0881E0E81AF10824E0A601B701CC
:103C3000C2010E947F0C28E0A601B701C1010E94C9
:103C40007F0C85E09BE00E94410E8F85988900974C
:103C500029F0FC01E852FF4F81E0808360960FB6A7
:103C6000F894DEBF0FBECDBFDF91CF911F910F91B2
:103C7000FF90EF90DF90CF90BF90AF909F908F908C
:103C80007F906F905F904F903F902F9008952F926C
:103C90003F924F925F926F927F928F929F92AF92DC
:103CA000BF92CF92DF92EF92FF920F931F93CF9329
:103CB000DF93CDB7DEB72C970FB6F894DEBF0FBEFB
:103CC000CDBFFC017C836B835E834D8338872F835C
:103CD0001A870987C080D180A280B38084809580B4
:103CE00021E0821A91088C0C9D1CE680F78031E05F
:103CF000E31AF108EA0CFB1C8C149D040CF46AC056
:103D00001401DA82C98237012501EA14FB0414F494
:103D10003501270170E060E090E080E0EB81FC81FC
:103D200000811181ED81FE810190F081E02DFC8701
:103D3000EB87EF81F88540815181A985BA85ED91A6
:103D4000FC9131E00C151D052CF032E08016910637
:103D50000CF030E0AB85BC85AA15BB050CF03EC06D
:103D6000346021E04C155D052CF022E084169506A8
:103D70000CF020E0EA15FB05CCF52460A32FA2236C
:103D800009F0B2C03111232F23FF53C0401B510B48
:103D9000D3018B859C85A81BB90B4A9FC0014B9F03
:103DA000900D5A9F900D1124BF014B855C85641BBB
:103DB000750B0E942052CB01800F911FB30132136B
:103DC0008CC0EB81FC8191838083ED81FE817183C6
:103DD0006083A4CF16019A82898295CFAB85BC857A
:103DE000EA16FB060CF0BDCF3860BBCFEE16FF061F
:103DF00014F42860C3CF3111C1CF2111BFCF81E0AE
:103E00002C960FB6F894DEBF0FBECDBFDF91CF91D9
:103E10001F910F91FF90EF90DF90CF90BF90AF90E8
:103E20009F908F907F906F905F904F903F902F90DA
:103E3000089522FF1AC0401B510BD2018B859C852F
:103E4000A81BB90B4A9FC0014B9F900D5A9F900D24
:103E50001124BF014B855C85641B750B0E942052A9
:103E6000CB01800F911FB201AACF21FF19C08B8512
:103E70009C85E81BF90BD101A01BB10BEA9FC00187
:103E8000EB9F900DFA9F900D1124BA01601B710BEE
:103E90000E942052EB85FC856E0F7F1FC1018FCFE2
:103EA00020FF8DCF8B859C85E81BF90B69817A817A
:103EB000601B710BE69FC001E79F900DF69F900D70
:103EC0001124BA01601B710B0E942052EB85FC8506
:103ED0006E0F7F1F89819A8172CFEF81F885918360
:103EE0008083E985FA8573CF80E08ACFCF92DF9215
:103EF000EF92FF920F931F93CF93DF9300D000D0E8
:103F00001F921F92CDB7DEB77A8369835C834B83A0
:103F10003E832D8318870F8386549F4FFC01808139
:103F200091818E01095F1F4F9E012B5F3F4FAE01B4
:103F30004D5F5F4FBE016F5F7F4F03960E94471E2C
:103F4000882389F08E2DB6010E94CE160F81188528
:103F50002D813E814B815C8169817A817C0185E084
:103F60009BE00E943A1281E028960FB6F894DEBFDB
:103F70000FBECDBFDF91CF911F910F91FF90EF90BA
:103F8000DF90CF9008952F923F924F925F926F9261
:103F90007F928F929F92AF92BF92CF92DF92EF92D9
:103FA000FF920F931F93CF93DF93CDB7DEB7629746
:103FB0000FB6F894DEBF0FBECDBFFC0109871A878C
:103FC0002B873C874D875E876F87788B4D845E8417
:103FD0004114510409F4C5C02F84388821143104D8
:103FE00009F4BFC08E2DB601FA8BE98B89849A84BF
:103FF000AB84BC840E94CE163C01E989FA89E65460
:10400000FF4FC080D18098868F82BE82AD8281E0D2
:10401000481A5108480C591C5C824B82BA82A9820A
:1040200093E0C90ED11C8E010F5F1F4F9E012D5FC3
:104030003F4FAE014B5F5F4FBE01695F7F4FC601CF
:104040000E94471E882369F009811A812B813C81D7
:104050004D815E816F817885730185E09BE00E94D0
:104060003A1298868F8281E0281A31082A0C3B1C6C
:104070003E822D825C824B823A8229828E010F5FC2
:104080001F4F9E012D5F3F4FAE014B5F5F4FBE0143
:10409000695F7F4FC6010E94471E882369F009812E
:1040A0001A812B813C814D815E816F8178857301FE
:1040B00085E09BE00E943A1298868F82BE82AD8294
:1040C0009C828B823A8229828E010F5F1F4F9E0154
:1040D0002D5F3F4FAE014B5F5F4FBE01695F7F4F6A
:1040E000C6010E94471E882369F009811A812B812D
:1040F0003C814D815E816F817885730185E09BE015
:104100000E943A1258864F82BE82AD825C824B82F8
:104110003A8229828E010F5F1F4F9E012D5F3F4F14
:10412000AE014B5F5F4FBE01695F7F4FC6010E94CA
:10413000471E882369F009811A812B813C814D81BA
:104140005E816F817885730185E09BE00E943A1261
:1041500089899A89009729F0FC01E852FF4F81E094
:10416000808362960FB6F894DEBF0FBECDBFDF919D
:10417000CF911F910F91FF90EF90DF90CF90BF9064
:10418000AF909F908F907F906F905F904F903F90F7
:104190002F90089542E050E066EC72E084E59AE0EA
:1041A0000C9496158A3069F450E040E068EC72E0B7
:1041B00084E59AE00E9496150E94CA2090E080E073
:1041C0000895682F84E59AE00E943016F7CFCF93C8
:1041D000DF93EC01FB0180E090E0309791F080816B
:1041E000918122813381237033272230310549F4B4
:1041F000C759DF4F47E450E0BC01CE010E94425056
:10420000CE01DF91CF9108956115710511F00C94E5
:10421000E72090E080E008950F931F93CF93DF9302
:104220008A01E9010E940421FC01892BE1F08281CD
:1042300083FF19C04581568187819085618572858C
:10424000238534850417150774F0460F571F401750
:10425000510748F0C817D90734F0280F391F81E0FB
:104260002C173D0708F480E0DF91CF911F910F914B
:104270000895AF92BF92CF92DF92EF92FF920F9389
:104280001F93CF93DF936115710571F4D0E0C0E007
:10429000CE01DF91CF911F910F91FF90EF90DF90B2
:1042A000CF90BF90AF900895433328EF520771F33A
:1042B0006A018B015C01F12CE12CF8018485958564
:1042C000E816F90618F7F801C085D185C701880FEF
:1042D000991F880F991FC80FD91FBE01C5010E94E1
:1042E000E720FC0180819181C816D90689F2FFEF91
:1042F000EF1AFF0AE2CF2F923F924F925F926F9296
:104300007F928F929F92AF92BF92CF92DF92EF9265
:10431000FF920F931F93CF93DF93CDB7DEB7C155B5
:10432000D1090FB6F894DEBF0FBECDBF3C011B0113
:104330002A0162963FAF2EAF62972996AFAE2997BA
:104340002A96BFAE2A972B96CFAE2B972C96DFAE30
:104350002C972D96EFAE2D972E96FFAE2E972F967B
:104360000FAF2F9760961FAF6097CE0101960E9406
:10437000681989E4481684EF580691F1B2018CE679
:1043800099E00E94CC19009719F587E4FE01319657
:10439000D30101900D928A95E1F7C301CF5ADF4F07
:1043A0000FB6F894DEBF0FBECDBFDF91CF911F9146
:1043B0000F91FF90EF90DF90CF90BF90AF909F90C4
:1043C0008F907F906F905F904F903F902F900895C7
:1043D000A101BC018CE699E00E943921892BA9F644
:1043E0003A82298288E0FE01E85BFF4FDE011696E3
:1043F00001900D928A95E1F76296EEADFFAD62975E
:10440000FD83EC8350918509809182099091830905
:1044100020E0251311C040E030E04CAF3DAF89A94A
:104420009AA9837F81149104B9F418AA9AAB89AB35
:104430008B8180688B83A9CF482F392F0A96FC0186
:104440003A9760817181AA96EEADFFADAA97E61703
:10445000F70719F32F5FDDCF9FA68EA6A8962FAD85
:10446000A89728AB8860E2CFCF92DF92EF92FF92BD
:104470000F931F93CF93DF93EC010E9404210097C9
:1044800029F1FC01E080F1808E0105531F4F6E0180
:10449000F1EDCF0ED11CF801619171918F01611581
:1044A0007105C9F0A701CE010E943921009799F04A
:1044B000FC018281881F8827881FDF91CF911F917F
:1044C0000F91FF90EF90DF90CF90089581E3E82E59
:1044D00088EFF82ED9CF0C151D05E9F680E0EDCF59
:1044E0002F923F924F925F926F927F928F929F9204
:1044F000AF92BF92CF92DF92EF92FF920F931F93F2
:10450000CF93DF93CDB7DEB760970FB6F894DEBFD9
:104510000FBECDBF5C017B012A011C0189ED280E75
:10452000311CF501E652FF4F4F01E114F104E1F0B7
:10453000F701C280D380B701C5010E9404213C016C
:10454000FFECCF2281E04816510439F192E0491680
:10455000510409F44EC0F701D382C282F301E3A4EF
:10456000F4A4E114F10409F760960FB6F894DEBFE5
:104570000FBECDBFDF91CF911F910F91FF90EF90B4
:10458000DF90CF90BF90AF909F908F907F906F9073
:104590005F904F903F902F9008956894C4F8B701B2
:1045A000C5010E9434228823B1F288E0F3013596D8
:1045B000DE01199601900D928A95E1F7F101808153
:1045C000882361F009851A852B853C854D855E859C
:1045D0006F857889C4010E943A1BBDCF81E080833A
:1045E00088E0FE013996D40101900D928A95E1F799
:1045F000B2CF6894C5F8B701C5010E943422882360
:1046000009F4A9CF88E0F3013596DE0111960190F7
:104610000D928A95E1F7F1018081882349F00981A3
:104620001A812B813C814D815E816F817885D2CF4B
:1046300081E0808388E0FE013196D5CFCF92DF9272
:10464000EF92FF920F931F93CF93DF93DC016115DD
:10465000710509F45AC01C96CD91DC911D978E010D
:104660000F5F1F4F1A968D919C911B978017910792
:1046700008F44BC01496CD90DC90159776018FEF1F
:10468000E81AF80A12968D919C9113978E159F0542
:10469000E0F1FB01CD0147E44C9D90014D9D300DB3
:1046A00011246D917C91260F371FD90101900D9235
:1046B0004A95E1F7DC011596FC92EE921497AE0153
:1046C000440F551F440F551F1896CD91DC91199733
:1046D000C40FD51F41E850E05B834A8339832883A8
:1046E0001D961C930E931C9741E050E0BE018CE692
:1046F00099E00E947022CE01DF91CF911F910F911E
:10470000FF90EF90DF90CF900895D0E0C0E0F3CF1E
:10471000EF92FF920F931F93CF93DF93893424EF8F
:10472000920739F1EB01BC018CE699E00E94CC19AB
:104730007C010097F1F0BE010E941E23EC01BC0138
:104740008CE699E00E94E720FC0105811681278113
:1047500030854185528563857485C70144960E94E2
:104760003A1BCE01DF91CF911F910F91FF90EF90F7
:104770000895D0E0C0E0F5CF6F927F928F929F9224
:10478000AF92BF92CF92DF92EF92FF920F931F935F
:10479000CF93DF93CDB7DEB7C659D1090FB6F894E2
:1047A000DEBF0FBECDBF3B012996EFAE29972A96FB
:1047B000FFAE2A972B960FAF2B972C961FAF2C97F7
:1047C0002D962FAF2D972E963FAF2E972F964FAF4A
:1047D0002F9760965FAF60979F928F92AF9246013E
:1047E0002996AFAC29972A96BFAC2A972B96CFACC7
:1047F0002B972C96DFAC2C972D96EFAC2D972E9601
:10480000FFAC2E972F960FAD2F9760961FAD609738
:1048100023E030E0AB01BC01CE01805B9F4F0E94E2
:104820007B2187E4FE01E05BFF4FDE0111960190E2
:104830000D928A95E1F71B8A1C8A1D8A198E1A8EA1
:104840001B8E8091150290911602A0911702888B01
:10485000998BAA8B8E8B9F8BA88F80911802909139
:104860001902A0911A028BAB9CABADAB8EAB9FAB88
:10487000A8AF8B8181608B8381E289AF0F900F900D
:104880000F9089E4681684EF7806E1F0BE016F5F4F
:104890007F4FC3010E948823CA56DF4F0FB6F8949A
:1048A000DEBF0FBECDBFDF91CF911F910F91FF9063
:1048B000EF90DF90CF90BF90AF909F908F907F90C0
:1048C0006F90089587E4FE013196AAE8B9E001905F
:1048D0000D928A95E1F78AE899E09093D209809346
:1048E000D10981E990E09093D4098093D30981EDB7
:1048F00099E0D2CFFF920F931F93CF93DF938C0158
:10490000F42ED52FC62FBC018CE699E00E9404211D
:10491000FC01892B51F183A994A922A92F1104C06C
:104920008D1302C081E09C1380E080FF0CC086A93B
:1049300097A925A9F21204C0D81302C081E0C913B7
:1049400080E080FD12C0F2AAD3ABC4ABF5AAD6AB0F
:10495000C7AB41E050E0B8018CE699E0DF91CF9120
:104960001F910F91FF900C947022DF91CF911F91B6
:104970000F91FF9008952F923F924F926F927F92E6
:104980008F92CF92DF92EF920F931F93CF93DF938B
:10499000EC011A01462E3801822EBC018CE699E00A
:1049A0000E940421FC01892B09F444C0808991896B
:1049B0002785211105C0811103C081E0903C09F0D9
:1049C00080E080FF1AC0838994892289211105C063
:1049D000811103C081E0903809F080E080FF0DC0B4
:1049E000818D928D208D211105C0811103C081E040
:1049F000903E09F080E080FD1DC02786308A418A04
:104A0000628A738A848AC08ED18EE28E41E050E041
:104A1000BE018CE699E0DF91CF911F910F91EF904D
:104A2000DF90CF908F907F906F904F903F902F901E
:104A30000C947022DF91CF911F910F91EF90DF9036
:104A4000CF908F907F906F904F903F902F900895D0
:104A5000FF920F931F93CF93DF936115710521F19F
:104A6000F42EEB018C010E9404210097E9F0FC0177
:104A7000828182FF19C02A8126FB992790F980E064
:104A8000F11080E42F7B282B30E03B832A83F9163A
:104A900059F042E050E0BE01C801DF91CF911F9173
:104AA0000F91FF900C947022DF91CF911F910F9185
:104AB000FF9008958F929F92AF92BF92CF92DF9214
:104AC000EF92FF920F931F93CF93DF93CDB7DEB793
:104AD000CF54D1090FB6F894DEBF0FBECDBF2996D3
:104AE0000FAF29972A961FAF2A972B962FAF2B9798
:104AF0002C963FAF2C972D964FAF2D972E965FAFEC
:104B00002E972F966FAF2F9760967FAF609730915B
:104B10008509E0918209F091830920E0231303C005
:104B200090E080E071C0AF01465F5F4F60817181AE
:104B3000C616D70619F02F5FFA01F0CFEF2B81F3DD
:104B40004701BC01DF92CF9282E08F932996AFACF0
:104B500029972A96BFAC2A972B96CFAC2B972C96E9
:104B6000DFAC2C972D96EFAC2D972E96FFAC2E97A1
:104B70002F960FAD2F9760961FAD609722E030E023
:104B800049E454EFCE0101960E947B218B81209154
:104B9000120230911302409114022BAB3CAB4DAB8F
:104BA0002EAB3FAB48AF8F608B83188A198A80EC9D
:104BB0008A8B1B8A1C8A90E89D8B1E8A1F8A888F8D
:104BC000198E1A8E80EE8B8F87E39BE226969FAF1D
:104BD0008EAF269787E4FE013196AAE8B9E00190EE
:104BE0000D928A95E1F78AE899E09093D209809333
:104BF000D10981E990E09093D4098093D3090F9073
:104C00000F900F9081ED99E0C15BDF4F0FB6F894E4
:104C1000DEBF0FBECDBFDF91CF911F910F91FF90EF
:104C2000EF90DF90CF90BF90AF909F908F900895BE
:104C30002F923F924F926F927F928F929F92AF925C
:104C4000BF92CF92DF92EF92FF920F931F93CF9379
:104C5000DF93CDB7DEB7C65BD1090FB6F894DEBFE0
:104C60000FBECDBF1C013B016996EFAE69976A96F6
:104C7000FFAE6A976B960FAF6B976C961FAF6C97F2
:104C80006D962FAF6D976E963FAF6E976F964FAF45
:104C90006F97A0965FAFA0976C962EAD3FAD6C97C7
:104CA000C555DF4F39832883CB5AD040A0968EADAF
:104CB0009FADA097C355DF4F99838883CD5AD040CD
:104CC0006E968EAD9FAD6E97FC01E055F109C15512
:104CD000DF4FF983E883CF5AD040C355DF4F888137
:104CE0009981CD5AD040889796958795280F391F7E
:104CF000C755DF4F39832883C95AD0401F921F926E
:104D000089EC92E09F938F931F9287E08F939E018F
:104D1000205B3F4FC955DF4F39832883C75AD040A6
:104D20003F932F930E9498558CEE8F9389E78F9332
:104D30001F92912C812C6996AFAC69976A96BFAC93
:104D40006A976B96CFAC6B976C96DFAC6C976D9651
:104D5000EFAC6D976E96FFAC6E976F960FAD6F9739
:104D6000A0961FADA0972FE030E150E040E0B101E8
:104D7000CE01805A9F4F0E947B2187E4FE01E05ABA
:104D8000FF4FDE01119601900D928A95E1F78B811C
:104D90008B7F8B608B8389EA94EE9F878E87F301EC
:104DA000178216821182108283E690E093838283B9
:104DB00081E090E09583848381E39FE391878087FE
:104DC000C3018A969301245F3F4FCF54DF4F39834D
:104DD0002883C15BD04003E010E017870687118A63
:104DE000108A20E030E4338B228B958784870E94E1
:104DF0006819F30184859585895B9F4F0E94681926
:104E0000F3018485958582579F4F0E946819F301AD
:104E1000178B068B118E108EC3014E96958B848B4B
:104E2000178E168E13A212A217A216A2138E128E1E
:104E300081EF98ED958F848F7FAE6EAE81EB94E31A
:104E400024969FAF8EAF249786E695E326969FAF74
:104E50008EAF26971B8A1C8A1D8A198E1A8E1B8E6E
:104E60008091150290911602A0911702888B998B60
:104E7000AA8B2090120230901302409014022E8AC6
:104E80003F8A488E6A962EAD3FAD6A97CD54DF4F6C
:104E900039832883C35BD040430139EF831A3EEF47
:104EA000930A6CEC72E0C4010E947455C155DF4F47
:104EB00088819981CF5AD040CD54DF4FE881F98164
:104EC000C35BD0408E0F9F1FCB54DF4F99838883E5
:104ED000C55BD040CB54DF4F2881C55BD0402A96BC
:104EE0009FAF8EAF2A97C755DF4F4881C95AD04030
:104EF000C755DF4F88819981C95AD0402C969FAF02
:104F00008EAF2C9758E2B52E6B2DEE24EA94FE2C32
:104F10000FEF1FEF2A963FAD2A972C965FAD2C9787
:104F200070E08B2D90E00E942C1CD12CC12C7401C0
:104F300089019A01AB01BC0184E690E00E945A25E8
:104F40004C01D12CE0EEEE2E00E010E020E840E035
:104F500050E060EC0E94BB24642DA101C4010E94BA
:104F60007A24B4018CE699E00E94E720BC01CF547A
:104F7000DF4F88819981C15BD0400E941E2343018D
:104F800097EF891A9EEF990A6EEC72E0C4010E94B5
:104F90007455CB54DF4F88819981C55BD04088968A
:104FA000282F2A969FAF8EAF2A97C755DF4F48818B
:104FB000C95AD040C755DF4FE881F981C95AD0405E
:104FC0002C96FFAFEEAF2C976B2DEE24EA94FE2CBF
:104FD0000FEF1FEF2A963FAD2A972C965FAD2C97C7
:104FE00070E08B2D90E00E942C1CD12CC12C740100
:104FF00089019A01AB01BC0185E690E00E945A2527
:105000005C01D12CA0EEEA2E00E010E020E840E0A8
:1050100050E060EC0E94BB24642DA101C5010E94F8
:105020007A24B5018CE699E00E94E720BC01CF54B8
:10503000DF4F88819981C15BD0400E941E23CD54EF
:10504000DF4F2881C35BD040CD54DF4F88819981E9
:10505000C35BD0402A969FAF8EAF2A97C555DF4FCE
:105060004881CB5AD040C555DF4FE881F981CB5AF2
:10507000D0402C96FFAFEEAF2C97C155DF4F688123
:10508000CF5AD040C155DF4F88819981CF5AD04047
:105090002E969FAF8EAF2E97C355DF4FE881F981D3
:1050A000CD5AD0406096FFAFEEAF6097EE24EA9401
:1050B000FE2C0FEF1FEF2A963FAD2A972C965FAD7F
:1050C0002C972E967FAD2E97C355DF4F8881CD5AF2
:1050D000D04060969FAD60970E942C1C29962FAF00
:1050E00029972A963FAF2A972B964FAF2B972C964E
:1050F0005FAF2C972D966FAF2D972E967FAF2E9783
:105100002F968FAF2F9760969FAF60976301FFEF49
:10511000CF0ED11C47E050E0BE01605B7F4FC6015F
:105120000E948955F301EA5FFE4F1082912C812C79
:1051300018E0A12E2996EFAC29972A96FFAC2A9762
:105140002B960FAD2B972C961FAD2C972D962FAD30
:105150002D972E963FAD2E972F964FAD2F97609699
:105160005FAD609769E474EF86E690E00E94BC232F
:105170005C01BC018CE699E00E9404210FB6F89412
:10518000DEBF0FBECDBF009751F022E2FC0120AF81
:1051900041E050E0B5018CE699E00E947022B50133
:1051A0008CE699E00E94E720BC01CF54DF4F888154
:1051B0009981C15BD0400E941E23BE016F5F7F4F6B
:1051C00090E080E00E9488234C01F301938782875E
:1051D000B12CA12CF301808D918DA816B906D0F0C9
:1051E000C401CA54DF4F0FB6F894DEBF0FBECDBF67
:1051F000DF91CF911F910F91FF90EF90DF90CF90B3
:10520000BF90AF909F908F907F906F904F903F9006
:105210002F900895F30164897589C501880F991F3E
:10522000880F991F680F791FFB018281938183701A
:105230009927019739F48CE699E00E94E720FC0158
:1052400094A683A6FFEFAF1ABF0AC4CFCF92DF9216
:10525000EF92FF920F931F93CF93DF93EC016A01BC
:105260007B01C114D104E104F10431F4C12C42E109
:10527000D42E4AE7E42EF12C8FA987FD07C061E008
:105280000E94F71461E08FA90E94C91461E088AD03
:105290000E94F71461E088AD0E94C9148DA98111A4
:1052A000A3C040E052E16AE770E0C416D506E60606
:1052B000F70640F476956795579547958F5F86304A
:1052C000A1F787E0982F906A969599A380958170B1
:1052D0008AA31BA21CA21DA21EA21FB7F894809134
:1052E0006B09811127C0E7EDF9E08491E7E7F9E068
:1052F0009491E82FF0E0EE0FFF1FE156F74FA591D4
:10530000B491EC91E92321F461E085E30E94C91492
:1053100061E085E30E94F7148CB580618CBD8CB58B
:1053200080648CBD61E084E30E94F71461E083E354
:105330000E94F71480916B098F5F80936B091FBFE8
:105340008EA987FD21C061E00E94F71461E08EA95B
:105350000E94C91464E670E080E090E00E94581555
:1053600060E08EA90E94C91464E670E080E090E0DD
:105370000E94581561E08EA90E94C91468EC70E083
:1053800080E090E00E9458158EA987FF0DC020E0B4
:1053900050E040E061E0CE010E94660D66E970E0F9
:1053A00080E090E00E94581509EB18E0C8010196D2
:1053B000F8016491662309F463C00E5F1F4FFC017E
:1053C000F490EF2CE894E7F82E2DA801CE010E946E
:1053D000660D0E0D111DF7FEE9CF66E970E080E065
:1053E00090E00E945815E2CF02EA19E0F12C8130DA
:1053F000B9F461E08AA50E94F71460E08AA50E94D2
:10540000C91461E08CA50E94F71460E08CA50E948D
:10541000C9148BA587FD94CF60E00E94F71490CF4C
:10542000F8018491E82FF0E0EE0FFF1FE857F64FE8
:10543000859194912F8D38A12817390741F461E0A7
:105440008F2D0E94F71460E08F2D0E94C914F394F1
:105450000F5F1F4FF6E4FF12E3CF61E08EA50E94BD
:10546000F71461E08EA50E94C9148FA587FD68CF4F
:1054700061E00E94F71461E08FA50E94C91460CF1B
:1054800080EF90E09987888780E491E09B878A8706
:10549000DF91CF911F910F91FF90EF90DF90CF9010
:1054A00008950E9466550F931F93CF93DF93EC01ED
:1054B00088819981009759F02A813B812617370707
:1054C00030F081E0DF91CF911F910F9108958B0112
:1054D0006F5F7F4F0E948554009759F099838883AE
:1054E0001B830A832C813D81232B59F7FC011082F9
:1054F000E8CF80E0E7CFEF92FF920F931F93CF9317
:10550000DF93EC017B018A01BA010E94532A2881B2
:105510003981811114C02115310519F0C9010E948A
:10552000FC53198218821D821C821B821A82CE01B2
:10553000DF91CF911F910F91FF90EF9008951D8300
:105540000C83B701C9010E947455F1CF8F929F92CD
:10555000AF92BF92CF92DF92EF92FF920F931F9381
:10556000CF93DF937C016B015A010E9404210097C5
:1055700059F1FC0187A4C5A5D6A5912C8401015041
:105580001109A801B501CE010E947B55892BE1F0DC
:10559000892841F0A801B501CE010E948955C00FAC
:1055A000D11F188242E050E0B601C701DF91CF91D0
:1055B0001F910F91FF90EF90DF90CF90BF90AF9031
:1055C0009F908F900C947022DF91CF911F910F913B
:1055D000FF90EF90DF90CF90BF90AF909F908F9013
:1055E0000895CF92DF92EF92FF920F931F93CF9384
:1055F000DF93CDB7DEB76E970FB6F894DEBF0FBE60
:10560000CDBF7C018B01FB01468357835F934F9392
:1056100080ED92E09F938F931F928EE18F93CE0146
:1056200001966C019F938F930E949855B801645F17
:105630007F4F46E650E0C7010E943921A601BC0118
:10564000C7010E94A62A0FB6F894DEBF0FBECDBFD9
:105650006E960FB6F894DEBF0FBECDBFDF91CF912F
:105660001F910F91FF90EF90DF90CF900895EF92F0
:10567000FF920F931F93CF93DF937C018A010E94C7
:105680000421009741F480E0DF91CF911F910F91A9
:10569000FF90EF900895FC0163A574A56115710555
:1056A00091F3C7010E94E720FC01C5ADD6AD20975C
:1056B00051F30530110511F081E0E6CF0E811F8115
:1056C0006A8D7B8DC7010E94E720FC01808191815A
:1056D00084369105D9F48A819B810817190724F42F
:1056E0008C819D81080F191FA801BE01C7010E946E
:1056F000F12AE885F9853097F9F26A857B8530E0F3
:1057000020E043E050E0C7011995D6CF85369105DA
:1057100081F7888199818017910734F78C819D8169
:10572000081B190BE1CF2F923F924F925F926F921D
:105730007F928F929F92AF92BF92CF92DF92EF9221
:10574000FF920F931F93CF93DF93CDB7DEB7809176
:10575000460390914703892BB9F07E0188E1E80E5A
:10576000F11CEE89FF89849110E000E0512C712C2E
:10577000612C88248394912C412C312CD12CC12C68
:10578000B12CA12C811113C0DF91CF911F910F91EA
:10579000FF90EF90DF90CF90BF90AF909F908F9051
:1057A0007F906F905F904F903F902F9008950115DC
:1057B000110599F4853271F0E0914603F0914703A9
:1057C0001995FFEF6F1A7F0AEE89FF89E60DF71D25
:1057D0008491D8CF01E010E0F4CF0130110509F039
:1057E0004AC08436C1F4F701C080D18082E0E80E5F
:1057F000F11CD7FE18C0D194C194D10802E010E08A
:10580000E0E18E2EE7E29E2E44244394312C9FEF5C
:10581000691A790AD9CF853771F4F701C080D18030
:10582000C70102967C0102E010E070E1872E77E26A
:10583000972E412CEBCF833641F4F7015080C701FE
:1058400002967C0103E010E0E2CF833749F4F701D0
:10585000A080B180C70102967C0104E010E0D7CFA0
:105860008A37A9F6F701A080B180C70102967C01B2
:1058700005E010E0CCCF0430110599F48501580102
:10588000F80120800F5F1F4F211003C010E000E0DF
:105890009BCFE0914603F0914703822D1995522C3E
:1058A000EECF0530110571F4F5015490552071F3D8
:1058B000E0914603F0914703852D1995FFEFAF1A4C
:1058C000BF0AF2CF0330110539F4E0914603F0919D
:1058D0004703852D1995DACF0230110509F074CFF1
:1058E000442041F0E0914603F09147038DE2199581
:1058F0006DE2562EC814D90440F53320A1F0E09192
:105900004603F091470380E3199550E3552E81E05B
:105910008816910459F1C4016AE070E00E940C52AB
:105920004B01412C51CFC114D10489F7E0914603BA
:10593000F091470380E31995412C10E000E030E33B
:10594000532E88248394912C3FCFC601B4010E942A
:105950000C5220E3522E560E6C01E0914603F0915A
:105960004703852D199533243394D1CF10E000E0FF
:10597000D8CF2F923F924F925F926F927F928F92E9
:105980009F92AF92BF92CF92DF92EF92FF920F93CE
:105990001F93CF93DF93CDB7DEB72C970FB6F89454
:1059A000DEBF0FBECDBF3C014B015A01C982DA8276
:1059B000EB82FC820D831E832F8338878D819E812D
:1059C0000097D1F481E02C960FB6F894DEBF0FBE9D
:1059D000CDBFDF91CF911F910F91FF90EF90DF909E
:1059E000CF90BF90AF909F908F907F906F905F907F
:1059F0004F903F902F900895AC014770552741304C
:105A0000510509F40EC129813A814330510509F04D
:105A100098C08077992700E08033910509F49BC0F6
:105A2000409709F0FEC080910D0B90910E0B681706
:105A3000790744F640910F0B5091100BA416B50650
:105A40000CF6F901C280D3803B016C0C7D1C8301F4
:105A50000150110917FDB6CFE080F180F501EE0D80
:105A6000FF1DBF016150710977FDACCF97FC04C0E9
:105A70003601312C212C06C0222433242818390861
:105A8000912C812CB0E0A0E0B7FE07C0AA27BB276D
:105A9000AA19BB097F01B12CA12C081719071CF00A
:105AA0003C0168187908641775071CF07A01EA1838
:105AB000FB082C5F3F4FCA9E2001CB9E500CDA9E04
:105AC000500C1124420C531C440C551C420E531E06
:105AD00085E09BE00E94540D87019301A501B4016C
