:100000000C9472050C94A3050C94A3050C94A30501
:100010000C94A3050C94A3050C94A3050C94A305C0
:100020000C94A3050C94A3050C94A3050C94A305B0
:100030000C94A3050C94A3050C94A3050C94A305A0
:100040000C94A3050C94A3050C94A3050C94A30590
:100050000C94A3050C94A3050C94A3050C941541D2
:100060000C94A3050C9489410C945F410C94A30556
:100070000C94A3050C94A3050C94A3050C94A30560
:100080000C94A3050C94A3050C94A3050C94A30550
:100090000C94A3050C94A3050C94A3050C94A30540
:1000A0000C94A3050C94A3050C94A3050C94A30530
:1000B0000C94A3050C94A3050C94A3050C94A30520
:1000C0000C94A3050C94A3050C94A3050C94A30510
:1000D0000C94A3050C94A3050C94A3050C94A30500
:1000E0000C94A3050C9440160C94610C0C94E13B09
:1000F0000C942A150C9422150C94B12C0C943415E4
:100100000C94D10D0C94FA160C9407150C9426152A
:100110000C94CA0C0C94AB400C9442150C940B1527
:100120000C9433140C9444160C940F150C942B3629
:100130000C9486110C94933B0C94AD160C94B62938
:100140000C94BF410C94B7120C941C150C946221B2
:100150000C94420E0C9497090C9403150C94210CEA
:100160000C948F0E0C94BE0E0C9481370C94671671
:100170000C9437390C94080A0C9412150C94DC403A
:100180000C94E0360C9441160C9453160C9475168E
:100190000C94790A0C9438150C9423400C943D155A
:1001A0000C9418150C9413160C9458120C942F13CD
:1001B0000C9496080C9430150C94FD140C943E1578
:1001C0000C94050B0C94350800407A10F35A00A0EB
:1001D000724E18090010A5D4E80000E87648170010
:1001E00000E40B54020000CA9A3B000000E1F50550
:1001F000000080969800000040420F000000A0869A
:1002000001000000102700000000E80300000000CB
:100210006400000000000A0000000000010000006F
:1002200000002C76D888DC674F0823DFC1DFAE5989
:10023000E1B1B796E5E3E453C63AE651997696E81C
:10024000E6C28426EB898C9B62ED407C6FFCEFBCA0
:100250009C9F40F2BAA56FA5F490055A2AF75C93CB
:100260006B6CF9676DC11BFCE0E40D47FEF520E601
:10027000B500D0ED902E0300943577050080841EE4
:10028000080000204E0A000000C80C333333330F3F
:10029000986E12831141EF8D2114893BE65516CFDC
:1002A000FEE6DB18D1844B381BF77C1D901DA4BBE8
:1002B000E424203284725E228100C9F124ECA1E59D
:1002C0003D274552524F523A204765745844617455
:1002D0006146726F6D526566285479706520256499
:1002E0002C204C696E652025642920705844617467
:1002F00061206973204E554C4C0A004552524F52B2
:100300003A20476574584461746146726F6D526556
:100310006628547970652025642C204C696E652010
:1003200025642920456C656D2074797065206D69A0
:10033000736D617463680A004552524F523A204708
:100340006574584461746146726F6D5265662854D5
:100350007970652025642C204C696E652025642900
:100360002070456C656D206973204E554C4C0A0019
:100370004552524F523A2047657458446174614661
:10038000726F6D52656628547970652025642C2043
:100390004C696E65202564292070456C656D526539
:1003A00066206973204E554C4C0A004552524F52FC
:1003B0003A2047534C435F53445F454E206E6F7461
:1003C00020656E61626C65640A004552524F523A74
:1003D0002067736C635F456C656D58546F67676C1D
:1003E0006562746E447261772825732920705844C1
:1003F000617461206973204E554C4C0A002D2049D0
:100400006E697420746F7563682068616E646C65D2
:1004100072205B25735D204F4B0A002D20496E69C9
:100420007420646973706C61792068616E646C65B6
:1004300072205B25735D204F4B0A00475549736C52
:100440006963652076657273696F6E205B25735DE5
:100450003A0A0000000A0B02090C0D0E08070304FB
:10046000010000000000000000000000000000008B
:10047000000000000000000000000000000000126A
:10048000111000000000000000000000000000004B
:1004900000000000000000000000000000003E5BC3
:1004A0004F5B3E3E6B4F6B3E1C3E7C3E1C183C7EC1
:1004B0003C181C577D571C1C5E7F5E1C00183C18A6
:1004C00000FFE7C3E7FF0018241800FFE7DBE7FFA2
:1004D00030483A060E2629792926407F050507402F
:1004E0007F05253F5A3CE73C5A7F3E1C1C08081CF0
:1004F0001C3E7F14227F22145F5F005F5F06097F2E
:10050000017F006689956A606060606094A2FFA2C6
:100510009408047E040810207E201008082A1C0875
:10052000081C2A08081E101010100C1E0C1E0C307F
:10053000383E3830060E3E0E060000000000000077
:100540005F00000007000700147F147F14242A7F37
:100550002A12231308646236495620500008070304
:1005600000001C2241000041221C002A1C7F1C2A82
:1005700008083E08080080703000080808080800D5
:100580000060600020100804023E5149453E0042D0
:100590007F400072494949462141494D33181412A0
:1005A0007F1027454545393C4A49493141211109C8
:1005B000073649494936464949291E0000140000BA
:1005C00000403400000008142241141414141400D4
:1005D0004122140802015909063E415D594E7C1220
:1005E00011127C7F494949363E414141227F4141B8
:1005F000413E7F494949417F090909013E41415135
:10060000737F0808087F00417F41002040413F017F
:100610007F081422417F404040407F021C027F7FC0
:100620000408107F3E4141413E7F090909063E41D1
:1006300051215E7F09192946264949493203017F24
:1006400001033F4040403F1F2040201F3F403840B3
:100650003F631408146303047804036159494D434C
:10066000007F4141410204081020004141417F04C4
:1006700002010204404040404000030708002054AB
:100680005478407F2844443838444444283844440B
:10069000287F385454541800087E090218A4A49CDA
:1006A000787F0804047800447D40002040403D00ED
:1006B0007F1028440000417F40007C047804787C4F
:1006C000080404783844444438FC182424181824B6
:1006D0002418FC7C08040408485454542404043F9F
:1006E00044243C4040207C1C2040201C3C403040A6
:1006F0003C44281028444C9090907C4464544C44D2
:100700000008364100000077000000413608000272
:10071000010204023C2623263C1EA1A161123A409C
:1007200040207A3854545559215555794122545412
:100730007842215554784020545579400C1E52720D
:1007400012395555555939545454593955545458EA
:100750000000457C410002457D420001457C407D12
:100760001211127DF0282528F07C545545002054A4
:10077000547C547C0A097F4932494949323A4444FD
:10078000443A324A4848303A4141217A3A4240207C
:1007900078009DA0A07D3D4242423D3D4040403D0D
:1007A0003C24FF2424487E4943662B2FFC2F2BFF3B
:1007B0000929F620C0887E0903205454794100009D
:1007C000447D413048484A32384040227A007A0A13
:1007D0000A727D0D19317D2629292F2826292929DC
:1007E0002630484D4020380808080808080808380E
:1007F0002F10C8ACBA2F102834FA00007B00000874
:10080000142A142222142A14085500550055AA55FA
:10081000AA55AAFF55FF55FF000000FF0010101059
:10082000FF00141414FF001010FF00FF1010F01050
:10083000F0141414FC001414F700FF0000FF00FF74
:100840001414F404FC141417101F10101F101F149C
:1008500014141F00101010F0000000001F101010E2
:10086000101F10101010F010000000FF10101010DA
:100870001010101010FF10000000FF140000FF0007
:10088000FF00001F10170000FC04F41414171017C9
:100890001414F404F40000FF00F7141414141414D6
:1008A00014F700F7141414171410101F101F141449
:1008B00014F4141010F010F000001F101F000000BE
:1008C0001F14000000FC140000F010F01010FF10C6
:1008D000FF141414FF141010101F00000000F0107B
:1008E000FFFFFFFFFFF0F0F0F0F0FFFFFF00000060
:1008F0000000FFFF0F0F0F0F0F3844443844FC4A2D
:100900004A4A347E02020606027E027E026355498E
:1009100041633844443C04407E201E2006027E028F
:100920000299A5E7A5991C2A492A1C4C7201724C10
:10093000304A4D4D303048784830BC625A463D3ED2
:10094000494949007E0101017E2A2A2A2A2A444473
:100950005F444440514A444040444A51400000FFF3
:100960000103E080FF000008086B6B083612362494
:1009700036060F090F0600001818000000101000BE
:100980003040FF0101001F01011E00191D17120058
:100990003C3C3C3C000000000000002100240027FB
:1009A000002A002D0030003300010100000401077F
:1009B000010A01EF03038002CF0300C130ED04649C
:1009C000031281E803850078CB05392C003402F747
:1009D0000120EA020000C00123C10110C5023E2827
:1009E000C701863601483701003A0155B1020018A7
:1009F000B603088227F20100260101E00F0F312B18
:100A00000C0E084EF1370710030E0900E10F000E1F
:100A10001403110731C148080F0C31360F1180291A
:100A20008000000020002300260029002C002F0059
:100A3000320000010000030106010901010210203B
:100A40002008081020401020408002010201080404
:100A50000201010204081020408080402010080498
:100A600002018004020180402010080402010804F1
:100A70000201010204081020408001020408102035
:100A8000408000002200250028002B002E003100AD
:100A9000340002010000050108010B0105050505F0
:100AA000070508080808020202020A0A08080404E6
:100AB0000404010101010101010103030303030314
:100AC0000303040707070C0C0C0C0C0C0C0C0202A3
:100AD000020206060606060606060B0B0B0B0B0BA0
:100AE0000B0BBF4111241FBECFEFD1E2DEBFCDBF44
:100AF00000E00CBF13E0A0E0B2E0E2E4F9EB00E0BC
:100B00000BBF02C007900D92AA35B107D9F72BE0B1
:100B1000AAE5B3E001C01D92A236B207E1F715E0E5
:100B2000C2E7D5E000E006C021970109802FFE0151
:100B30000E945856C137D10780E00807A9F70E94E4
:100B400053430C949F5C0C940000FC01A0913C0A60
:100B5000B0913D0A892BD1F420918209309183090B
:100B6000809184099091850914961C921E92139786
:100B700016961C921E92159718963C932E931797D3
:100B80001A969C938E93199781E0089598E0139696
:100B900001900D929A95E1F7F7CF10925B0A88E0E9
:100BA000EAE0F2E0ACE5BAE001900D928A95E1F757
:100BB00008952091340B3091350B009789F0232B49
:100BC00051F42091290B30912A0B2A5F3F4F30932B
:100BD0002A0B2093290B9093350B8093340B0895A7
:100BE000232BC9F32091290B30912A0B2650310970
:100BF000EECF2F923F924F925F926F927F928F92A1
:100C00009F92AF92BF92CF92DF92EF92FF920F939B
:100C10001F93CF93DF93CDB7DEB76D970FB6F894E0
:100C2000DEBF0FBECDBF7A8769875C874B873E8763
:100C30002D87188B0F87FB0111821082FA01118218
:100C40001082F80111821082F90111821082209025
:100C5000340B3090350B2091320B2C83F0902F0BFE
:100C60002F2D30E0388F2F8B46E0F49E9001112419
:100C70003E832D83A090230BB090240BE090300B8B
:100C8000E8E0EE9E6001112491012C5F3F4F3A8B0A
:100C9000298B2E5F3F4F3C8B2B8B245031093A8F91
:100CA000298F2A5F3F4F3B832A8398878F83442471
:100CB0004A94542CAFEFBFEF8FEF9FE79C8F8B8F41
:100CC0000FEF1FE770E060E050E040E0EF81F88553
:100CD0008191F887EF83882309F4C0C0211431047F
:100CE00009F487C08A3041F4EA81FB8184918E9DAA
:100CF000600D711D1124E8CF8D3041F3E989FA8927
:100D00009491EB89FC892491891700F32817F0F25C
:100D1000E98DFA8D25913491891BF7E08F9F200D85
:100D2000311D1124F9013296849189833196949171
:100D30009D8B319684918E8B319684912A5F3F4FA3
:100D4000F901F491FD8F2C812223F1F03981632E7A
:100D5000712C680E711C87FD7A942F89388D629EE4
:100D60004001639E900C729E900C1124840E951E7F
:100D7000A814B9044CF4EA81FB8194919E9D600D06
:100D8000711D112450E040E02F2D382F3203C00197
:100D90001124840F951F2E2D3D8D3203F001112457
:100DA0009F01260F371F801791070CF48C01EB8DE4
:100DB000FC8D2E173F0714F43C8F2B8FF981FF9D7C
:100DC000800D911D11240197A817B9070CF4DC01BF
:100DD0008D898E9D200D311D11242150310942161F
:100DE00053060CF429019E899F9D400D511D11242D
:100DF0006DCF8A3019F46C0D7D1D66CF8D3009F4EE
:100E000065CF2C81222359F08D819E81840F951FFF
:100E1000A816B90624F46C0D7D1D50E040E02D812C
:100E20003E81240F351FC9010197A817B9070CF49B
:100E3000DC01C601860F971F0197481659060CF46E
:100E40002C01401751070CF48A018B8D9C8D68177B
:100E5000790714F47C8F6B8FA90138CFA017B107E5
:100E60005CF0E985FA8511830083A01BB10B119614
:100E7000ED85FE85B183A0832B8D3C8D42165306F4
:100E80006CF0EB85FC8531832083421A530AFFEF17
:100E90004F1A5F0AEF85F889518240826D960FB62E
:100EA000F894DEBF0FBECDBFDF91CF911F910F91A0
:100EB000FF90EF90DF90CF90BF90AF909F908F907A
:100EC0007F906F905F904F903F902F900895863362
:100ED00008F0865320917B00982F9870277F922BE3
:100EE00090937B008770806480937C0080917A006F
:100EF000806480937A0080917A0086FDFCCF809197
:100F00007800909179000895FC01A5A1B6A18C917B
:100F100092A589238C93A5A1B6A18C9191A5892B2B
:100F20008C930895DC019396ED91FC9194979081B8
:100F300098968C91892380830895DC019396ED9196
:100F4000FC919497908197968C91892B808308953A
:100F5000FF920F931F93CF93DF93EC018B018DA929
:100F600081110EC01EBD0DB407FEFDCF0EBD0DB428
:100F700007FEFDCFDF91CF911F910F91FF90089554
:100F80008130C9F490E1F92EE9A1FAA1808117FF1F
:100F90000FC09DA1892B8083CE010E949D07CE01A9
:100FA0000E949207000F111FFA94F110EDCFE2CFCB
:100FB0009EA18923F0CFEF8DF8A11083CE010E946E
:100FC0008407EF8DF8A10083CE01DF91CF911F91AF
:100FD0000F91FF900C9484070F931F93CF93DF938F
:100FE000EC01162F8DA9811109C06EBD0DB407FE4D
:100FF000FDCFDF91CF911F910F9108958130B1F412
:1010000008E0E9A1FAA1808117FF0DC09DA1892BFD
:101010008083CE010E949D07110FCE010E9492078E
:10102000015079F7E6CF9EA18923F2CFEF8DF8A189
:101030006083CE01DF91CF911F910F910C948407B3
:10104000CF93DF93EC01ED8DFE8D80819CA98923E8
:101050008083CE010E94EC07ED8DFE8D80819BA9DF
:10106000892B8083DF91CF910895AF92BF92CF9269
:10107000DF92EF92FF920F931F93CF93DF93EC01D8
:101080005B016A01215031097901E60EF71E01501A
:101090001109040F151F6AE20E942008B501CE0154
:1010A0000E94A807B701CE010E94A8076BE2CE01FB
:1010B0000E942008B601CE010E94A807B801CE0107
:1010C0000E94A8076CE2CE01DF91CF911F910F9192
:1010D000FF90EF90DF90CF90BF90AF900C942008DE
:1010E000FC0185A9811104C091A182A19CBD8DBD87
:1010F00008951F93CF93DF93EC01162FE881F981B8
:101100000284F385E02D1995112371F06DADCE01A8
:101110000E942008E881F9810688F789E02DCE0138
:10112000DF91CF911F9119946EADF1CFAF92BF9225
:10113000CF92DF92EF92FF920F931F93CF93DF93A3
:10114000EC0177FD38C088859985681779079CF58B
:1011500057FD31C08A859B854817590764F5690199
:101160007A015B01E881F9810284F385E02DCE01EB
:101170001995E881F98102A4F3A5E02D01E010E0C2
:1011800021E030E0A701B501CE011995B601CE01ED
:101190000E94A807E881F9810688F789E02DCE0131
:1011A000DF91CF911F910F91FF90EF90DF90CF9043
:1011B000BF90AF901994DF91CF911F910F91FF9045
:1011C000EF90DF90CF90BF90AF9008958F929F9255
:1011D000AF92BF92CF92DF92EF92FF920F931F9345
:1011E000CF93DF93EC0149015701E881F98102A413
:1011F000F3A5E02D19959401D8010E9460566B016A
:101200007C01C114D104E104F10409F483C08DA967
:10121000811115C081E0C81AD108E108F1088FEFEB
:10122000C816D806E806F80609F474C0BEBC0DB4AA
:1012300007FEFDCFAEBC0DB407FEFDCFEBCF813076
:10124000C9F581E0C81AD108E108F1088FEFC81686
:10125000D806E806F80609F45DC00B2D18E0E9A1F0
:10126000FAA1808107FF20C09DA1892B8083CE0138
:101270000E949D07CE010E949207000F115079F73E
:101280000A2D18E0E9A1FAA1808107FF10C09DA1F5
:10129000892B8083CE010E949D07CE010E94920778
:1012A000000F115079F7CDCF9EA18923DFCF9EA1EA
:1012B0008923EFCFBA1016C0CC0CDD1CEE1CFF1C2E
:1012C000EF8DF8A1B08281E0C81AD108E108F108D9
:1012D0008FEFC816D806E806F806E1F0CE010E94A6
:1012E0008407F1CF81E0C81AD108E108F1088FEF37
:1012F000C816D806E806F80669F0EF8DF8A1B082A6
:10130000CE010E948407EF8DF8A1A082CE010E9439
:101310008407E8CFDF91CF911F910F91FF90EF905D
:10132000DF90CF90BF90AF909F908F9008958F9255
:101330009F92AF92BF92CF92DF92EF92FF920F9364
:101340001F93CF93DF935C014B016A01E90177FDA5
:1013500052C0DC0118968D919C91681779070CF0AA
:101360004AC0209709F447C037FF07C0C90101965A
:10137000C80ED91ED195C195D109F50182859385F5
:10138000C816D906C4F5A6014C0F5D1F9A0121505D
:10139000310937FD30C0D7FE03C0EA01D12CC12C82
:1013A000281739071CF0EC01CC19DD09D501ED91A6
:1013B000FC910284F385E02DC501199578018E0119
:1013C00021E030E0A601B401C5010E94E608D50184
:1013D000ED91FC910688F789E02DC501DF91CF9151
:1013E0001F910F91FF90EF90DF90CF90BF90AF9043
:1013F0009F908F901994DF91CF911F910F91FF9043
:10140000EF90DF90CF90BF90AF909F908F90089516
:101410008F929F92AF92BF92CF92DF92EF92FF9204
:101420000F931F93CF93DF935C016B014A01E90196
:1014300057FD52C0DC011A968D919C9148175907AF
:101440000CF04AC0209709F447C037FF07C0C90114
:101450000196C80ED91ED195C195D109F501808597
:101460009185C816D906C4F5A6014C0F5D1F9A01D7
:101470002150310937FD30C0D7FE03C0EA01D12C1D
:10148000C12C281739071CF0EC01CC19DD09D50156
:10149000ED91FC910284F385E02DC5011995780149
:1014A00001E010E09E01A401B601C5010E94E6081A
:1014B000D501ED91FC910688F789E02DC501DF91FA
:1014C000CF911F910F91FF90EF90DF90CF90BF9041
:1014D000AF909F908F901994DF91CF911F910F91B2
:1014E000FF90EF90DF90CF90BF90AF909F908F9044
:1014F00008958F929F92AF92BF92CF92DF92EF9218
:10150000FF920F931F93CF93DF934C016B015A010E
:10151000E901209709F46CC00115110509F468C0B0
:1015200037FF07C0C9010196C80ED91ED195C195D4
:10153000D109F401A085B185CA16DB060CF058C0AC
:1015400017FF07C0C8010196A80EB91E1195019595
:101550001109F40182859385A816B9060CF048C0DC
:10156000F601EC0FFD1FAF014150510957FD40C07E
:10157000B501600F711F9B012150310937FD38C043
:10158000D7FE03C0EF01D12CC12CB7FE03C08B01E5
:10159000B12CA12C4A175B071CF0ED01CC19DD0919
:1015A000281739071CF08C010A191B09D401ED9189
:1015B000FC910284F385E02DC40119959E01A501DB
:1015C000B601C4010E94E608D401ED91FC910688A1
:1015D000F789E02DC401DF91CF911F910F91FF900A
:1015E000EF90DF90CF90BF90AF909F908F90199425
:1015F000DF91CF911F910F91FF90EF90DF90CF90EF
:10160000BF90AF909F908F900895EF92FF920F93AD
:101610001F93CF93DF9377FD32C0DC011896ED91D5
:10162000FC916E177F075CF52115310541F137FFFD
:1016300007C0F90131964E0F5F1F31952195310991
:10164000DC011A96ED91FC914E175F07C4F4EA0194
:10165000C20FD31FDE011197B7FD11C057FF03C0A2
:101660009E0150E040E0AE17BF071CF09F01241B15
:10167000350B7801890121E030E00E94E608DF9116
:10168000CF911F910F91FF90EF9008952F923F926D
:101690004F925F926F927F928F929F92AF92BF9282
:1016A000CF92DF92EF92FF920F931F93CF93DF932E
:1016B000CDB7DEB72C970FB6F894DEBF0FBECDBF07
:1016C0003C017C836B835C874B871801270181E099
:1016D00090E05C01A41AB50ACA019195819591091F
:1016E000AC01440F551F5A834983C80101969E835C
:1016F0008D83F12CE12C88248394912C922F91706E
:101700009F8322702887AB014F5F5F4F5A874987BD
:101710008B859C85E816F9060CF07AC0CB84DC84B6
:10172000B7FC0CC06C0191E0C91AD10849815A81FB
:101730004E5F5F4F5A834983A40EB51E5FEFE51AD3
:10174000F50A82E0880E911CA80CB91CCE14DF04A7
:1017500064F19F81992399F09601220F331F4D81E7
:101760005E81240F351F82014B815C814C195D091C
:10177000B701660D771D8BE19BE00E94050B588534
:10178000552399F09601220F331F8D819E81280FDA
:10179000391F82014B815C814C195D09B3016E19BF
:1017A0007F098BE19BE00E94050B4B855C854C1506
:1017B0005D0559F15F81552391F094012250310963
:1017C000220D331D820149855A854E195F096B85AB
:1017D0007C85660D771D8BE19BE00E94050B88855B
:1017E000882399F0940122503109220D331DB30151
:1017F0004B855C85641B750B820149855A854E19A2
:101800005F098BE19BE00E94050BDC86CB8680CFD5
:101810002C960FB6F894DEBF0FBECDBFDF91CF91EF
:101820001F910F91FF90EF90DF90CF90BF90AF90FE
:101830009F908F907F906F905F904F903F902F90F0
:101840000895EF92FF920F931F93CF93DF9357FD6D
:1018500031C0DC011A96ED91FC914E175F0754F5EB
:101860002115310539F137FF07C0F90131966E0FA7
:101870007F1F319521953109DC011896ED91FC917E
:101880006E177F07BCF4EB01C20FD31FDE01119767
:10189000B7FD10C077FF03C09E0170E060E0AE1797
:1018A000BF071CF09F01261B370B780101E010E0F9
:1018B0000E94E608DF91CF911F910F91FF90EF906A
:1018C00008958F929F92AF92BF92CF92DF92EF9244
:1018D000FF920F931F93CF93DF934701211531059B
:1018E00009F44BC00115110509F447C037FF07C0C3
:1018F000F90131966E0F7F1F319521953109DC0179
:101900001896AD90BC906A157B05BCF517FF07C013
:10191000F80131964E0F5F1F119501951109DC01F9
:101920001A96ED91FC914E175F073CF56B01C20EC4
:10193000D31EE6012197D7FD20C07A01E00EF11EEB
:10194000D7011197B7FD19C077FF03C0960170E06A
:1019500060E057FF03C0870150E040E0CA15DB0597
:101960001CF09501261B370BAE17BF071CF08F012B
:10197000041B150B74010E94E608DF91CF911F91A3
:101980000F91FF90EF90DF90CF90BF90AF909F901E
:101990008F900895EF92FF920F931F93CF93DF9351
:1019A000EC0177FD22C08885998568177907ECF4EA
:1019B00057FD1BC08A859B8548175907B4F47901E8
:1019C000E881F98102A4F3A5E02D01E010E021E017
:1019D00030E0CE011995B701CE01DF91CF911F9173
:1019E0000F91FF90EF900C94A807DF91CF911F917A
:1019F0000F91FF90EF9008952F923F924F925F9238
:101A00006F927F928F929F92AF92BF92CF92DF920E
:101A1000EF92FF920F931F93CF93DF9300D01F920B
:101A2000CDB7DEB76C015B015C834B8381E090E056
:101A30004C01841A950A2A01519441945108440C8E
:101A4000551CF12CE12C66246394712C422F4470B8
:101A50004983522F52705A83822F8870282E21700A
:101A6000322E4B815C81E416F5060CF083C097FCA6
:101A700009C0415051095C834B8352E0450E511C13
:101A8000840C951C8FEFE81AF80A92E0690E711C1D
:101A9000860C971C49814423C1F098014B815C81DD
:101AA0004A0D5B1DB6016E0D7F1D8BE19BE00E9410
:101AB000CA0C9801A5014E0D5F1D6B817C816C0DD8
:101AC0007D1D8BE19BE00E94CA0C5A815523C9F011
:101AD0009801A5018B819C81481B590BB6016E0DA5
:101AE0007F1D8BE19BE00E94CA0C9801A5014E1955
:101AF0005F096B817C816C0D7D1D8BE19BE00E94F9
:101B0000CA0C2220C9F09801A5014E0D5F1DB60137
:101B10008B819C81681B790B8BE19BE00E94CA0C36
:101B200098014B815C814A0D5B1DB6016E197F09DE
:101B30008BE19BE00E94CA0C332009F492CF9801FC
:101B4000A5014E195F09B6018B819C81681B790B39
:101B50008BE19BE00E94CA0C9801A5018B819C81BE
:101B6000481B590BB6016E197F098BE19BE00E945F
:101B7000CA0C77CF0F900F900F900F90DF91CF91FD
:101B80001F910F91FF90EF90DF90CF90BF90AF909B
:101B90009F908F907F906F905F904F903F902F908D
:101BA0000895CF93DF93EC010E9470088FA987FD01
:101BB00006C0EB8DFC8D80819AA989238083DF91FB
:101BC000CF9108950895AF92BF92CF92DF92EF9296
:101BD000FF920F931F93CF93DF93EC01E62E8A01C0
:101BE000A22E0E9470088FA987FD06C0EB8DFC8D88
:101BF00080819AA989238083ED8DFE8D80819CA9A7
:101C0000892380836E2DCE010E94EC07ED8DFE8D21
:101C100080819BA9892B8083D12CC12CB12CCA1423
:101C2000DB04E4F48DA97801823079F488A9882353
:101C300061F0F801619171917F01CE010E94A807C6
:101C4000FFEFCF1ADF0A8701EACFFFEFEF1AFF0A93
:101C5000F8016491CE010E94EC07F2CF8FA987FDB5
:101C600006C0EB8DFC8D808199A9892B8083DF9143
:101C7000CF911F910F91FF90EF90DF90CF90BF9089
:101C8000AF900895611106C060E220E050E040E0AE
:101C90000C94E30D61E2F9CFFF920F931F93CF9362
:101CA000DF93EC01F62E8A010E9470088FA987FD50
:101CB00006C0EB8DFC8D80819AA989238083ED8DF0
:101CC000FE8D80819CA9892380836F2DCE010E9487
:101CD000EC07ED8DFE8D80819BA9892B80838DA9DA
:101CE000F801823099F06081CE010E94EC078FA943
:101CF00087FD06C0EB8DFC8D808199A9892B80839F
:101D0000DF91CF911F910F91FF90089588A98823AB
:101D100051F360817181CE010E94A807E8CFCF9373
:101D2000DF931F92CDB7DEB7FC016370668B623024
:101D300071F0633009F188E4613051F488E28983FD
:101D400080E491E09187808780EF90E008C088E888
:101D5000898380EF90E09187808780E491E093878A
:101D60008287AE014F5F5F4F66E3CF010E944C0E4A
:101D70000F90DF91CF91089588EEE1CFFC0187A904
:101D800087FD06C0A38DB48D9C9181A9892B8C936E
:101D900008950F931F93CF93DF931F92CDB7DEB7B4
:101DA000182F80E18983AE014F5F5F4F69ED8BE1B2
:101DB0009BE00E944C0E8BE19BE00E94D10DE091D4
:101DC000380BF091390B808190914F0B89238083E0
:101DD000612F8BE19BE00E94EC07E091380BF091C2
:101DE000390B808190914E0B892B80838091500B11
:101DF000811111C01EBC00000DB407FEFDCF1EB541
:101E00008BE19BE00E94BE0E812F0F90DF91CF915E
:101E10001F910F9108958130E9F48091460B10E0F5
:101E200087FDEECF08E010E08BE19BE00E949D076C
:101E3000110FE0913A0BF0913B0B80819091440B94
:101E4000892309F01F5F8BE19BE00E9492070150FC
:101E500059F7D6CF80914A0B87FD1BC0E091420B0A
:101E6000F091430B80819091470B89238083E0910F
:101E70003E0BF0913F0B1082E0913C0BF0913D0B3B
:101E80008081E0913E0BF0913F0B2FEF2083182FC4
:101E9000B7CF80E0FCCF0895FC016370668B84812E
:101EA000958126813781613039F0633029F091873F
:101EB0008087338722870895318720879387828799
:101EC00008952F923F924F925F926F927F928F92DE
:101ED0009F92AF92BF92CF92DF92EF92FF920F93B9
:101EE0001F93CF93DF93CDB7DEB76A970FB6F89401
:101EF000DEBF0FBECDBF9A8F898F7A8369834A0177
:101F0000D22E18870F833701BC2CDC0159962D91F6
:101F10003C915A972115310509F015C118968D91FC
:101F20009C911997681779070CF0D7C11A968D9173
:101F30009C91481759070CF0D0C14C2C512CB6E09D
:101F4000CB9E600D711D11247C876B8716161706BA
:101F50000CF0C3C1EA2DF0E0FA87E98793E0EE0FB9
:101F6000FF1F9A95E1F7F88BEF87CF01840F951F3C
:101F7000181619060CF0B1C1A98DBA8D58968C911E
:101F8000811104C0BFEABD1508F4D394A98DBA8DA0
:101F9000ED91FC9111970284F385E02DCD01199507
:101FA000B5E0DB9EC0011124E981FA81FC83EB835B
:101FB000312C212C9C0127563B4F388F2F8B4A2DDB
:101FC00050E05E8B4D8BEF89F88DE20DF31D44914F
:101FD0009E828D82D12CC12C69817A81620D731D04
:101FE0007A8B698B842F90E09C8B8B8BE98DFA8D9B
:101FF000A081B18140FF82C0F1E0BF126FC0AF127B
:102000006DC01C96ED91FC912F813885A4014C0D7B
:102010005D1D69897A89898D9A8D1995EB89FC896D
:10202000F595E7954E2F5FEFC51AD50A6D817E8134
:102030008D899E89680F791F7E836D8398E0C9160C
:10204000D10481F6AFEF2A1A3A0AEB81FC81E40D44
:10205000F51DFC83EB83F5E02F16310409F0B3CFB7
:102060002F81388526153705B9F0A98DBA8DED91E8
:10207000FC91B1E0BB1257C0AB1255C069817A81A7
:102080006B5F7F4F0088F189E02D830128E030E00D
:10209000A401898D9A8D1995A98DBA8DED91FC9128
:1020A00011970688F789E02DCD016A960FB6F8944E
:1020B000DEBF0FBECDBFDF91CF911F910F91FF907B
:1020C000EF90DF90CF90BF90AF909F908F907F90D8
:1020D0006F905F904F903F902F9019941E96ED91C6
:1020E000FC91EF80F88409851A8592014D815E810B
:1020F0006B817C81898D9A8D199590CF2F81388540
:102100002615370509F48ACF31E0B31207C0A312B0
:1021100005C01C96ED91FC91930178CF1E96ED9130
:10212000FC917301E0CF6B857C8564197509068489
:10213000F785E02D73010F8518899201A401898D1F
:102140009A8D1995A9CFF9013496949132974591BA
:102150005491D91AB7E0DB9E400D511D1124F901AD
:10216000259134913C8B2B8BFA0125903490FA0108
:102170003296749031963491398B329664903196C0
:10218000449041E04C1518F04A1508F07FC0662DC8
:10219000062C000C770B7C836B83842D042C000CA5
:1021A000990B9E838D83A98DBA8DED91FC9111972A
:1021B0000284F385E02DCD011995512CD12CC12C31
:1021C000EA2DF0E0FA87E9872B2D30E03C872B875A
:1021D000A401440D511D47FC5A95588F4F8B6981BE
:1021E0007A81660D711D67FC7A957E876D87798986
:1021F000C71608F051CF2C2D30E04D815E81420F83
:10220000531FA985BA854A9FC0014B9F900D5A9FC5
:10221000900D1124FC01E80DF91DF88BEF87852D39
:10222000612C4F89588D420F531F5E8B4D8B671465
:1022300008F050C044244394480E877041F4C10113
:102240000196EB89FC89E20DF31DD4901C01D7FEA9
:1022500019C0A98DBA8DED91FC91662D70E0B1E0A9
:10226000BB1219C0AB1217C02D853E85620F731FBC
:102270000484F585E02D2F8138854D895E89898D0F
:102280009A8D1995DD0C6394842DD1CF1E821D8209
:102290001C821B8288CF4B815C81640F751FAB85CC
:1022A000BC856A9FC0016B9F900D7A9F900D112491
:1022B00069817A81680F791F0684F785E02DEF80A8
:1022C000F88409851A859D014F855889898D9A8DD5
:1022D0001995D8CF570CC3948ACF6A960FB6F89445
:1022E000DEBF0FBECDBFDF91CF911F910F91FF9049
:1022F000EF90DF90CF90BF90AF909F908F907F90A6
:102300006F905F904F903F902F9008958F929F9283
:10231000AF92CF92EF92FF920F931F93CF93DF93E1
:10232000EC01262F898D9A8D009709F051C06A30F3
:10233000D1F41D861C868D8948E0849F900111246C
:102340008E859F85820F931F9F878E8781E090E007
:10235000DF91CF911F910F91FF90EF90CF90AF90B1
:102360009F908F9008956D3089F3CC88AD888F89C8
:102370008823C1F08C859D8536E0C39E800D911D1C
:102380001124488559854817590764F44E855F859F
:102390001D861C8638E0A39EC0011124840F951F62
:1023A0009F878E87EA88FB88088919894E855F8513
:1023B0006C857D85CE010E94610F2C898C859D8561
:1023C00046E0249F800D911D11249D878C87BECFF0
:1023D0006A3069F41D861C86FC013896E4912D89CB
:1023E0008E859F85E29F800D911D1124ADCF6D30AC
:1023F00009F4ACCFFC0134963491631708F4A6CFEE
:102400003296E491E61708F4A1CFFC01329685904C
:102410009490462F431B342F47E0349F800C911C2F
:102420001124F401329634913196E4913323A9F1C9
:10243000EE2399F1CC88F4013596E491AD884F896B
:10244000442301F10E2E000CFF0BE30FF11DCE9E75
:10245000A001CF9E500D11246C857D85460F571F1E
:1024600068857985641775076CF44E855F851D86D0
:102470001C86FC013896E491AE9E400D511D11243E
:102480005F874E87EA88FB88088919894E855F85B2
:102490006C857D85CE010E94610FF4013496E49134
:1024A0002C898C859D85E29F800D911D11248DCFF7
:1024B0006F927F928F929F92AF92BF92CF92DF9254
:1024C000EF92FF920F931F93CF93DF93EC016B0179
:1024D0005A0139014801E881F9810284F385E02D30
:1024E0001995E881F9810288F389E02D870193012C
:1024F000A501B601CE011995A501480D591D415000
:102500005109E881F9810288F389E02D9301B60130
:10251000CE011995E881F9810088F189E02D9401B7
:10252000A501B601CE011995C60CD71CB6016150A4
:102530007109E881F9810088F189E02D9401A501F4
:10254000CE011995E881F9810688F789E02DCE0141
:10255000DF91CF911F910F91FF90EF90DF90CF907F
:10256000BF90AF909F908F907F906F9019946F92D3
:102570007F928F929F92AF92BF92CF92DF92EF9213
:10258000FF920F931F93CF93DF935C01EB016A01DE
:10259000490138018701DC01ED91FC916217730755
:1025A00019F5641675062CF0962D872D3A01C92E63
:1025B000D82E9601261937092F5F3F4F048CF58DD1
:1025C000E02DA301BE01C5011995DF91CF911F91A7
:1025D0000F91FF90EF90DF90CF90BF90AF909F90C2
:1025E0008F907F906F9008954615570591F42617A8
:1025F000370724F0892D4B01C22FD82F9E012819AF
:1026000039092F5F3F4F068CF78DE02DA601B401ED
:10261000DACF0284F385E02D1995D501ED91FC9177
:102620000488F589E02D83019401A601BE01C5014E
:102630001995D501ED91FC910688F789E02DC5012A
:10264000DF91CF911F910F91FF90EF90DF90CF908E
:10265000BF90AF909F908F907F906F901994EF9262
:10266000FF920F931F93DC011A960D911C911B97FB
:1026700018962D913C911997ED91FC9100A0F1A134
:10268000E02D7B0150E040E070E060E019951F9183
:102690000F91FF90EF9008954F925F926F927F920B
:1026A0008F929F92AF92BF92CF92DF92EF92FF9262
:1026B0000F931F93CF93DF936C012B015A013901C4
:1026C0004801DC01ED91FC910284F385E02D199520
:1026D000E201640C751CD601ED91FC91C615D7057D
:1026E0005CF40088F189E02D87019401A501BE0109
:1026F000C60119952196EFCF0688F789E02DC6010E
:10270000DF91CF911F910F91FF90EF90DF90CF90CD
:10271000BF90AF909F908F907F906F905F904F9001
:1027200019948F929F92AF92BF92CF92DF92EF92C5
:10273000FF920F931F93CF93DF93EC015B014A014C
:102740006901E881F9810284F385E02D19959501ED
:102750002C0D3D1D21503109E881F9810488F5894E
:10276000E02D78018401A401B501CE011995E8811D
:10277000F9810688F789E02DCE01DF91CF911F9175
:102780000F91FF90EF90DF90CF90BF90AF909F9010
:102790008F9019948F929F92AF92BF92CF92DF92B7
:1027A000EF92FF920F931F93CF93DF93EC015B01A6
:1027B0004A0169017801E881F9810284F385E02DFD
:1027C0001995C80CD91C860101501109E881F981BD
:1027D0000488F589E02D9501A401B501CE01199574
:1027E000E881F9810688F789E02DCE01DF91CF914C
:1027F0001F910F91FF90EF90DF90CF90BF90AF901F
:102800009F908F9019940895EF92FF920F931F93CA
:10281000DC01ED91FC9100A0F1A1E02D19951F9133
:102820000F91FF90EF9008950F931F93DC01ED91AE
:10283000FC91068CF78DE02D19951F910F9108954D
:102840000F931F93DC01ED91FC91048CF58DE02D2D
:1028500019951F910F910895DC01ED91FC91008471
:10286000F185E02D19942F923F924F925F926F92D3
:102870007F928F929F92AF92BF92CF92DF92EF9210
:10288000FF920F931F93CF93DF9300D000D0CDB76B
:10289000DEB73C016A013E832D83FC82EB82580146
:1028A000A41AB50AB7FE03C0B194A194B1088D80F3
:1028B0009E80861A970A97FE03C09194819491088E
:1028C0008A149B045CF0902F812F0D811E819D83C3
:1028D0008E839C2D8D2D6B01692F782F0C151D0576
:1028E0005CF09D818E817E836D83692F782F902F80
:1028F000812F8601C92ED82E1601201A310A2B01EC
:102900002D813E81421A530A57FE03C051944194CF
:102910005108710137FE03C03FEFE31AF30AF59443
:10292000E7948D819E81861797075CF5A1E0B0E062
:10293000BA83A983C016D1064CF1D301ED91FC9165
:102940000484F585E02D2B813C81A8016D817E8179
:102950008A149B041CF04D815E81B801C301199556
:10296000E418F508F7FE0AC02D813E8189819A811D
:10297000280F391F3E832D83E20CF31C0F5F1F4F7E
:10298000D9CF2FEF3FEF3A832983D4CF26960FB6C6
:10299000F894DEBF0FBECDBFDF91CF911F910F9195
:1029A000FF90EF90DF90CF90BF90AF909F908F906F
:1029B0007F906F905F904F903F902F90089581503F
:1029C000823108F05AC0E82FF0E08827E551FB4E2D
:1029D0008F4F0C9458560B150F15FD140315071542
:1029E0003D15121518151C15221526152A1530151A
:1029F00034153D1538153E154215809180008F77AE
:102A0000809380000895809180008F7DF9CF809120
:102A10008000877FF5CF84B58F7784BD089584B516
:102A20008F7DFBCF8091B0008F778093B0000895A9
:102A30008091B0008F7DF9CF809190008F77809347
:102A400090000895809190008F7DF9CF8091900043
:102A5000877FF5CF8091A0008F778093A0000895A5
:102A60008091A0008F7DF9CF8091A000877FF5CF66
:102A7000809120018F77809320010895809120011B
:102A80008F7DF9CF80912001877FF5CF1F93CF9362
:102A9000DF93282F30E0F901ED5AFB4F8491F901C3
:102AA000E45CF54FD491F901E456F54FC491CC2381
:102AB000A9F0162F81110E94DF14EC2FF0E0EE0F29
:102AC000FF1FEE57F54FA591B4918FB7F894EC9195
:102AD000111108C0D095DE23DC938FBFDF91CF9119
:102AE0001F910895DE2BF8CFCF93DF9390E0FC0188
:102AF000E45CF54F24918456954FFC018491882322
:102B0000C9F090E0880F991FFC01E756F64FA59198
:102B1000B491FC01EE57F54FC591D49161110DC0F0
:102B20009FB7F8948C91209582238C9388812823D9
:102B300028839FBFDF91CF910895623051F49FB7F2
:102B4000F8943C91822F809583238C93E8812E2BDF
:102B5000EFCF8FB7F894EC912E2B2C938FBFEACF49
:102B60003FB7F89480917D0990917E09A0917F09EB
:102B7000B091800926B5A89B05C02F3F19F001969A
:102B8000A11DB11D3FBFBA2FA92F982F8827BC01C7
:102B9000CD01620F711D811D911D42E0660F771FEF
:102BA000881F991F4A95D1F708958F929F92AF92EF
:102BB000BF92CF92DF92EF92FF924B015C010E9495
:102BC000B0156B017C010E94B0156C197D098E094E
:102BD0009F09683E734081059105A8F321E0821AA0
:102BE0009108A108B10888EEC80E83E0D81EE11C48
:102BF000F11C81149104A104B10429F7FF90EF9016
:102C0000DF90CF90BF90AF909F908F9008952FB797
:102C1000F8946091790970917A0980917B0990917B
:102C20007C092FBF0895AF92BF92CF92DF92EF92AF
:102C3000FF920F931F93CF93DF936C017B018B0166
:102C4000040F151FEB015E01AE18BF08C017D107B6
:102C500059F06991D601ED91FC910190F081E02D40
:102C6000C6011995892B79F7C501DF91CF911F9185
:102C70000F91FF90EF90DF90CF90BF90AF900895AD
:102C8000089590E080E00895FC01538D448D252F38
:102C900030E0842F90E0821B930B541710F0CF96F6
:102CA000089501970895FC01918D828D981761F028
:102CB000A28DAE0FBF2FB11D5D968C91928D9F5F3F
:102CC0009F73928F90E008958FEF9FEF0895FC011E
:102CD000918D828D981731F0828DE80FF11D858DD1
:102CE00090E008958FEF9FEF0895FC01918D228D64
:102CF000892F90E0805C9F4F821B91098F739927E9
:102D000008958AE69AE00E94751621E0892B09F45D
:102D100020E0822F0895FC01A48DA80FB92FB11DCA
:102D2000A35ABF4F2C91848D90E001968F73992701
:102D3000848FA689B7892C93A089B1898C918370DF
:102D400080648C93938D848D981306C00288F389D8
:102D5000E02D80818F7D80830895EF92FF920F9305
:102D60001F93CF93DF93EC0181E0888F9B8D8C8D37
:102D700098131AC0E889F989808185FF15C09FB72B
:102D8000F894EE89FF896083E889F98980818370EE
:102D9000806480839FBF81E090E0DF91CF911F919D
:102DA0000F91FF90EF900895F62E0B8D10E00F5FBE
:102DB0001F4F0F731127E02E8C8D8E110CC00FB694
:102DC00007FCFACFE889F989808185FFF5CFCE012C
:102DD0000E948B16F1CFEB8DEC0FFD2FF11DE35A06
:102DE000FF4FF0829FB7F8940B8FEA89FB898081AF
:102DF0008062CFCFCF93DF93EC01888D8823B9F029
:102E0000AA89BB89E889F9898C9185FD03C08081F5
:102E100086FD0DC00FB607FCF7CF8C9185FFF2CF72
:102E2000808185FFEDCFCE010E948B16E9CFDF9127
:102E3000CF91089580E090E0892B29F00E948116BF
:102E400081110E94000080E090E0892B49F080E031
:102E500090E0892B29F00E94000081110E9400005F
:102E600080E090E0892B49F080E090E0892B29F008
:102E70000E94000081110E94000080E090E0892BF8
:102E800049F080E090E0892B29F00E940000811138
:102E90000C9400000895272F66956695669570E05E
:102EA000762F6627770F770F770F2695269590E276
:102EB000299F90011124622B732B86958695869508
:102EC0009B01282BC90108957F928F929F92AF9208
:102ED000BF92CF92DF92EF92FF920F931F93CF9307
:102EE000DF935C014B01EA01722EF32E8E2DB601A9
:102EF0000E944B176C01E8848E819F810E94D90546
:102F0000D0922E0BC0922D0BD0922C0BC0922B0B7B
:102F1000B092280BA092270B90922A0B8092290B3B
:102F20008E2DE11001C081E080932F0B8093300B38
:102F3000680183E0C822DD24C72DDF2DE1E0CE1635
:102F4000D10481F01881112381F0612F8BE19BE086
:102F50000E9486111A3021F4B092280BA092270B00
:102F60002196ECCFFE011491EECF90E080E00E941C
:102F7000D90581E0DF91CF911F910F91FF90EF90E4
:102F8000DF90CF90BF90AF909F908F907F900895EB
:102F90000F931F93CF93DF93182F062FEA01642F0F
:102FA0000E947415219741F4602F812FDF91CF91FA
:102FB0001F910F910C944615DF91CF911F910F91A6
:102FC00008950F931F93CF93DF93EB01BC01645CD3
:102FD000754FFB01A4919C012456354FF901449192
:102FE00050E0440F551FFA01E756F64F0591149132
:102FF000F801B081EB2FEA2371F4FA01EE57F54F97
:1030000045915491FA014081A42350E040E029F019
:1030100042E050E002C041E050E0598348838D5ABD
:103020009B4FFC018491FB010491F9011491112340
:1030300079F081110E94DF14E12FF0E0EE0FFF1F05
:10304000EE5DF54FA591B4916C91602381E009F498
:1030500080E081708A83DF91CF911F910F91089555
:103060002F923F924F925F926F927F928F929F9298
:10307000AF92BF92CF92DF92EF92FF920F931F9386
:10308000CF93DF93CDB7DEB72F970FB6F894DEBF9F
:103090000FBECDBF7F836E8359874887D901B901A1
:1030A0006E5F7F4F002309F4B9C0F901F4912F2F0F
:1030B00030E0322F2227FD0131964491E42FF0E0D9
:1030C000FB83EA834A815B81422B532B5F874E87C8
:1030D000AD014C5F5F4F002309F4A9C0FB0164916F
:1030E00070E0762F6627FD013396E491F0E09F01B2
:1030F000262B372B3B832A83BA016F5F7F4F002338
:1031000009F49EC0FA01F491F9839A012E5F3F4FB2
:10311000002309F499C0FB015490F90144901A016D
:10312000B4E02B0E311C2E853F85295F3F4F37FFC2
:1031300004C02E853F85225F3F4FF90123E0F595BE
:10314000E7952A95E1F7FD83EC83D12CC12C10E0A3
:10315000B12CA12C9C0126543F4F3D872C874A81DE
:103160005B81A416B5060CF084C0F12CE12CC101E2
:103170008C0D9D1D9B878A87888499848A0C9B1C53
:10318000AE85BF85EA16FB060CF06BC0C7018770E1
:103190009927110F892B71F4F70183E0F595E795D5
:1031A0008A95E1F7002309F456C0EC0DFD1DE20DF0
:1031B000F31D149117FF2EC06E807F806E0C7F1C54
:1031C000AC85BD85ED91FC91238134816216730637
:1031D0000CF1878190850197820F931F86159705C3
:1031E000CCF02581368182169306A4F081859285E4
:1031F0000197820F931F8815990564F06981752DD9
:10320000842D0E944B179C01A401B3018BE19BE02C
:103210000E949608BFEFEB1AFB0AB2CF2C912983CC
:1032200030E0322F222711964C91119747CF1296FA
:103230006C91129770E0762F66271396EC9156CF1B
:10324000DA01BC91B98361CFDA0111965C901197D4
:1032500012964C9064CF2A853B85E20FF31F1081B4
:10326000A9CFEFEFAE1ABE0A2C813D81C20ED31E4C
:1032700076CF2F960FB6F894DEBF0FBECDBFDF918D
:10328000CF911F910F91FF90EF90DF90CF90BF9063
:10329000AF909F908F907F906F905F904F903F90F6
:1032A0002F9008952F923F924F925F926F927F924C
:1032B0008F929F92AF92BF92CF92DF92EF92FF9246
:1032C0000F931F93CF93DF9300D000D01F921F92D4
:1032D000CDB7DEB709831A832B833C834D835E838E
:1032E0006F83788749815A8186549F4FDC01ED9125
:1032F000FC91A380B4806D807E80B1E06B1A710870
:10330000640E751E6A147B040CF445C0278030845B
:1033100021E0221A31082A0C3B1C24163506DCF168
:103320008B819C81858096804F805884A1E04A1AC9
:103330005108480E591E481459046CF10185128534
:1033400001501109080D191D0817190724F1A416B9
:10335000B5060CF45A01881699060CF44C018E2D12
:10336000B6010E944B17401651060CF48201081951
:1033700019090F5F1F4F621473040CF413012A180C
:103380003B0891012F5F3F4F7C01A401B5018BE108
:103390009BE00E94790A81E028960FB6F894DEBF80
:1033A0000FBECDBFDF91CF911F910F91FF90EF9096
:1033B000DF90CF90BF90AF909F908F907F906F9055
:1033C0005F904F903F902F900895CF93DF93FC0133
:1033D000892B09F45BC0128281E398EF918380838B
:1033E00084E090E09483838389EA94EE96878587CE
:1033F000DF01159688E0ED0119928A95E9F7148EA0
:10340000138E168E158E10A2178E12A211A214A260
:1034100013A216A215A210A617A212A611A6809199
:10342000120290911302A09114028787908BA18BB6
:10343000828B938BA48B858B968BA78B808F918FA0
:10344000A28F11AA10AA16A615A617A682AB93AB37
:10345000A4AB85AB96ABA7AB82E280AF11AE12AE48
:1034600014AE13AE16AE15AEDF01DF9611961C92A8
:103470001E92129611961C921E92129611961C92F2
:103480001E9212961D921C9214A613A6DF91CF9144
:103490000895CF93DF93FC01E753FF4F408150E045
:1034A00020E032973CE1822F022E000C990B84170A
:1034B00095072CF090E080E0DF91CF910895808116
:1034C00091812302800D911D1124EC01AA89BB89F1
:1034D000A617B70789F32F5FE6CF8F929F92AF921F
:1034E000BF92CF92DF92EF92FF920F931F93CF93F1
:1034F000DF93EC015B014A016901802FB7010E9453
:103500004B177C018BE19BE00E94D10D9601220FAD
:10351000331F2F5F3F4FA4014C195D098701B5018F
:103520008BE19BE00E94050B10E000E023E0A60188
:10353000B401C5010E94460B8BE19BE00E94BE0EC8
:10354000209721F0C852DF4F81E08883DF91CF912F
:103550001F910F91FF90EF90DF90CF90BF90AF90B1
:103560009F908F9008952F923F924F925F926F920B
:103570007F928F929F92AF92BF92CF92DF92EF9203
:10358000FF920F931F93CF93DF9300D000D01F9231
:103590001F92CDB7DEB79E838D835B016A0149011F
:1035A000802FB7010E944B178C018F82988681E093
:1035B00090E03C012F813885621A730AC901919508
:1035C000819591099C01220F331F3A8329838BE156
:1035D0009BE00E94D10D4F8158854C0D5D1D9801D7
:1035E000B5018BE19BE00E94CA0CA6018F819885F2
:1035F000481B590B9801B5018BE19BE00E94CA0C56
:103600006F8178856A0D7B1D9801A6018BE19BE097
:103610000E94CA0CB5012F813885621B730B98017B
:10362000A6018BE19BE00E94CA0CF12CE12C81E009
:1036300090E09C838B832F813885E216F3060CF093
:103640006FC077FC0BC02150310938872F838981E7
:103650009A8102969A838983680E791E9FEFE91AF0
:10366000F90A2B813C812E5F3F4F3C832B83620EF6
:10367000731E25014E0C5F1C98018F8098848C0C62
:103680009D1CA401B2018BE19BE00E94CA0C1501B4
:103690002E183F089801A401B1018BE19BE00E9424
:1036A000CA0C980146018F819885881A990AA4014D
:1036B000B2018BE19BE00E94CA0C9801A401B10108
:1036C0008BE19BE00E94CA0C47018C0C9D1C980169
:1036D000A4014F8058844A0C5B1CB2018BE19BE033
:1036E0000E94CA0C9801A40115018F819885281A9F
:1036F000390AB1018BE19BE00E94CA0C46018E1889
:103700009F089801A401B2018BE19BE00E94CA0CC2
:103710009801A401B1018BE19BE00E94CA0C8BCF00
:103720008BE19BE00E94BE0E2D813E81211531056B
:1037300029F0F901E852FF4F81E0808328960FB607
:10374000F894DEBF0FBECDBFDF91CF911F910F91D7
:10375000FF90EF90DF90CF90BF90AF909F908F90B1
:103760007F906F905F904F903F902F900895EF92D1
:10377000FF920F931F93CF93DF9300D000D01F923F
:103780001F92CDB7DEB7DC0109831A832B833C83FC
:103790004D835E836F83788714960D911C911597E6
:1037A0000115110531F01696ED91FC9117973097A0
:1037B000A1F488E0FE01319601900D928A95E1F71F
:1037C00028960FB6F894DEBF0FBECDBFDF91CF9124
:1037D0001F910F91FF90EF90089529813A81EB801E
:1037E000FC806D917C91119712964D915C9113978D
:1037F00001501109060F171F3197E40FF51F261707
:1038000037070CF4B901E416F5060CF4A7018D8115
:103810009E810197820F931F801791070CF4C801B6
:103820002F813885215031092E0D3F1D2E173F075E
:103830000CF49F0111967C936E9313965C934E93B8
:103840001297861B970B019615969C938E9314974F
:10385000241B350B2F5F3F4F17963C932E931697E3
:10386000AFCF0F931F93CF93DF9300D000D01F9261
:103870001F92CDB7DEB728E0FC017496DE011196E9
:1038800001900D922A95E1F780915B0A8823D1F08F
:1038900009811A812B813C814D815E816F81788500
:1038A0008CE59AE00E94B71B81E080935B0A289622
:1038B0000FB6F894DEBF0FBECDBFDF91CF911F9141
:1038C0000F91089588E0FE013196ACE5BAE00190D1
:1038D0000D928A95E1F7E8CF0F931F93CF93DF9373
:1038E000C0914F0AD091500A09E414EF209711F0CB
:1038F0000A891B8970E060E082E899E00E94491A19
:10390000009711F19093500A80934F0A012B19F000
:1039100081E08093590A209719F0CE010E94311C52
:1039200080914F0A9091500A009711F00E94311C2B
:103930008091510A9091520A009731F0DF91CF9116
:103940001F910F910C94311CDF91CF911F910F911A
:103950000895EF92FF920F931F93CF93DF93CDB70C
:10396000DEB760970FB6F894DEBF0FBECDBF2987D4
:103970003A874B875C876D877E878F87988B4D85CD
:103980005E8590E080E09C01201B310B220F331FED
:10399000421753074CF02F8538898E199F09880FDD
:1039A000991F28173907ECF41A8219821C821B828E
:1039B0001E821D8218861F8229813A814B815C817B
:1039C0006D817E818F81988560960FB6F894DEBFF9
:1039D0000FBECDBFDF91CF911F910F91FF90EF9060
:1039E00008958B859C858E199F0969857A85601B52
:1039F000710B7A8369839C838B83000F111F040FE3
:103A0000151F1E830D83EE0CFF1CE20EF31EF886BD
:103A1000EF82D2CF2F923F924F925F926F927F921E
:103A20008F929F92AF92BF92CF92DF92EF92FF92CE
:103A30000F931F93CF93DF93CDB7DEB72E970FB6BB
:103A4000F894DEBF0FBECDBF09831A832B833C835E
:103A50004D835E836F8378874C2D8D809E8081148B
:103A6000910409F467C0CF80D884C114D10409F44B
:103A700061C09E878D8789819A819C878B876B80A7
:103A80007C80842FB5010E944B172C018C149D045F
:103A90002CF4C40197FE05C0019603C0C601D7FCF3
:103AA000FBCF9595879557018E159F050CF45C010A
:103AB0008BE19BE00E94D10DC501880F991F9A8769
:103AC00089872B843C842A0C3B1C9401281B390BCE
:103AD00072018601A301B1018BE19BE00E94610CA0
:103AE00089859A85C81AD90A91E0C91AD1086A0C41
:103AF0007B1C8B859C85880E991EC4018A199B09A5
:103B0000860121E0A501B30101970E94460B22E046
:103B1000A501B301C1010E94460B8BE19BE00E940D
:103B2000BE0E8D859E85009729F0FC01E852FF4F5F
:103B300081E080832E960FB6F894DEBF0FBECDBF16
:103B4000DF91CF911F910F91FF90EF90DF90CF9079
:103B5000BF90AF909F908F907F906F905F904F90AD
:103B60003F902F900895AF92BF92CF92DF92EF9245
:103B70000F931F93CF93DF9300D000D01F921F921B
:103B8000CDB7DEB72B833C834D835E836F8378870D
:103B90002D813E81232B89F02F813885232B69F0DD
:103BA0005C012B813C810E945219A114B10429F0BF
:103BB000F501E852FF4F81E0808328960FB6F89414
:103BC000DEBF0FBECDBFDF91CF911F910F91EF9060
:103BD000DF90CF90BF90AF9008952F923F924F9279
:103BE0005F926F927F928F929F92AF92BF92CF928D
:103BF000DF92EF92FF920F931F93CF93DF93CDB796
:103C0000DEB760970FB6F894DEBF0FBECDBF098355
:103C10001A832B833C834D835E836F8378874D802B
:103C20005E804114510409F496C08F8098848114F9
:103C3000910409F490C0988B8F8769807A808B817A
:103C40009C819A8789878C2DB5010E944B175C0156
:103C5000481459042CF4C20157FE05C0019603C054
:103C6000C40197FCFBCF9595879567018E159F053D
:103C70000CF46C018BE19BE00E94D10D7601EE0CFF
:103C8000FF1CC2018E199F099C878B871601260C89
:103C9000371C85019C0149855A85B1018BE19BE068
:103CA0000E94210C89859A85880D991D9E878D8794
:103CB000AC01415051092B853C85B1018BE19BE062
:103CC0000E94210C8E189F08E984FA84EC0CFD1CDC
:103CD0009401A701B3018BE19BE00E94050B460C08
:103CE000571CB201615071099401A7018BE19BE05F
:103CF0000E94050B21E0A601B701C1010E94FC0C46
:103D00004C185D0891E0491A510822E0A601B7015C
:103D1000C2010E94FC0CED84FE84EC18FD0881E0D9
:103D2000E81AF10824E0A601B701C2010E94FC0CC8
:103D300028E0A601B701C1010E94FC0C8BE19BE0C9
:103D40000E94BE0E8F859889009729F0FC01E852E9
:103D5000FF4F81E0808360960FB6F894DEBF0FBE00
:103D6000CDBFDF91CF911F910F91FF90EF90DF902A
:103D7000CF90BF90AF909F908F907F906F905F900B
:103D80004F903F902F9008952F923F924F925F92C5
:103D90006F927F928F929F92AF92BF92CF92DF925B
:103DA000EF92FF920F931F93CF93DF93CDB7DEB7C0
:103DB0002C970FB6F894DEBF0FBECDBFFC017C83FD
:103DC0006B835E834D8338872F831A870987C08072
:103DD000D180A280B3808480958021E0821A9108EE
:103DE0008C0C9D1CE680F78031E0E31AF108EA0CA8
:103DF000FB1C8C149D040CF46AC01401DA82C98285
:103E000037012501EA14FB0414F43501270170E0A1
:103E100060E090E080E0EB81FC8100811181ED8128
:103E2000FE810190F081E02DFC87EB87EF81F88522
:103E300040815181A985BA85ED91FC9131E00C1545
:103E40001D052CF032E0801691060CF030E0AB85B9
:103E5000BC85AA15BB050CF03EC0346021E04C15B2
:103E60005D052CF022E0841695060CF020E0EA15A2
:103E7000FB05CCF52460A32FA22309F0B2C03111B9
:103E8000232F23FF53C0401B510BD3018B859C85EF
:103E9000A81BB90B4A9FC0014B9F900D5A9F900DD4
:103EA0001124BF014B855C85641B750B0E94445631
:103EB000CB01800F911FB30132138CC0EB81FC81C9
:103EC00091838083ED81FE8171836083A4CF16018D
:103ED0009A82898295CFAB85BC85EA16FB060CF0E9
:103EE000BDCF3860BBCFEE16FF0614F42860C3CFF9
:103EF0003111C1CF2111BFCF81E02C960FB6F894BC
:103F0000DEBF0FBECDBFDF91CF911F910F91FF900C
:103F1000EF90DF90CF90BF90AF909F908F907F9069
:103F20006F905F904F903F902F90089522FF1AC09E
:103F3000401B510BD2018B859C85A81BB90B4A9F56
:103F4000C0014B9F900D5A9F900D1124BF014B85CE
:103F50005C85641B750B0E944456CB01800F911F3A
:103F6000B201AACF21FF19C08B859C85E81BF90BF4
:103F7000D101A01BB10BEA9FC001EB9F900DFA9FEE
:103F8000900D1124BA01601B710B0E944456EB8501
:103F9000FC856E0F7F1FC1018FCF20FF8DCF8B85DA
:103FA0009C85E81BF90B69817A81601B710BE69F88
:103FB000C001E79F900DF69F900D1124BA01601B80
:103FC000710B0E944456EB85FC856E0F7F1F898123
:103FD0009A8172CFEF81F88591838083E985FA8594
:103FE00073CF80E08ACFCF92DF92EF92FF920F9350
:103FF0001F93CF93DF9300D000D01F921F92CDB7B5
:10400000DEB77A8369835C834B833E832D83188775
:104010000F8386549F4FFC01808191818E01095F3F
:104020001F4F9E012B5F3F4FAE014D5F5F4FBE01A3
:104030006F5F7F4F03960E94C41E882389F08E2DE8
:10404000B6010E944B170F8118852D813E814B814F
:104050005C8169817A817C018BE19BE00E94B712CF
:1040600081E028960FB6F894DEBF0FBECDBFDF917A
:10407000CF911F910F91FF90EF90DF90CF90089517
:104080002F923F924F925F926F927F928F929F9268
:10409000AF92BF92CF92DF92EF92FF920F931F9356
:1040A000CF93DF93CDB7DEB762970FB6F894DEBF3C
:1040B0000FBECDBFFC0109871A872B873C874D8730
:1040C0005E876F87788B4D845E844114510409F4B8
:1040D000C5C02F8438882114310409F4BFC08E2D47
:1040E000B601FA8BE98B89849A84AB84BC840E94E4
:1040F0004B173C01E989FA89E654FF4FC080D18013
:1041000098868F82BE82AD8281E0481A5108480CA1
:10411000591C5C824B82BA82A98293E0C90ED11CE1
:104120008E010F5F1F4F9E012D5F3F4FAE014B5F12
:104130005F4FBE01695F7F4FC6010E94C41E882386
:1041400069F009811A812B813C814D815E816F81EB
:10415000788573018BE19BE00E94B71298868F826D
:1041600081E0281A31082A0C3B1C3E822D825C8299
:104170004B823A8229828E010F5F1F4F9E012D5F75
:104180003F4FAE014B5F5F4FBE01695F7F4FC6017E
:104190000E94C41E882369F009811A812B813C8109
:1041A0004D815E816F81788573018BE19BE00E9478
:1041B000B71298868F82BE82AD829C828B823A82B1
:1041C00029828E010F5F1F4F9E012D5F3F4FAE0171
:1041D0004B5F5F4FBE01695F7F4FC6010E94C41EE7
:1041E000882369F009811A812B813C814D815E8190
:1041F0006F81788573018BE19BE00E94B71258862E
:104200004F82BE82AD825C824B823A8229828E01CD
:104210000F5F1F4F9E012D5F3F4FAE014B5F5F4F02
:10422000BE01695F7F4FC6010E94C41E882369F0EA
:1042300009811A812B813C814D815E816F81788556
:1042400073018BE19BE00E94B71289899A890097DC
:1042500029F0FC01E852FF4F81E0808362960FB69F
:10426000F894DEBF0FBECDBFDF91CF911F910F91AC
:10427000FF90EF90DF90CF90BF90AF909F908F9086
:104280007F906F905F904F903F902F90089542E005
:1042900050E066EC72E08AE69AE00C941316CF9335
:1042A000DF93FC0144815581608171818AE69AE047
:1042B0000E941316EC010E9447218C0F9D1FDF9175
:1042C000CF9108958A3069F450E040E068EC72E0E4
:1042D0008AE69AE00E9413160E94472190E080E04F
:1042E0000895682F8AE69AE00E94AD16F7CFCF9323
:1042F000DF93EC01FB0180E090E0309791F080814A
:10430000918122813381237033272230310549F492
:10431000C759DF4F47E450E0BC01CE010E9415525F
:10432000CE01DF91CF9108956115710511F00C94C4
:10433000772190E080E008950F931F93CF93DF9350
:104340008A01E9010E949421FC01892BE1F082811C
:1043500083FF19C04581568187819085618572856B
:10436000238534850417150774F0460F571F40172F
:10437000510748F0C817D90734F0280F391F81E0DA
:104380002C173D0708F480E0DF91CF911F910F912A
:104390000895AF92BF92CF92DF92EF92FF920F9368
:1043A0001F93CF93DF936115710571F4D0E0C0E0E6
:1043B000CE01DF91CF911F910F91FF90EF90DF9091
:1043C000CF90BF90AF900895433328EF520771F319
:1043D0006A018B015C01F12CE12CF8018485958543
:1043E000E816F90618F7F801C085D185C701880FCE
:1043F000991F880F991FC80FD91FBE01C5010E94C0
:104400007721FC0180819181C816D90689F2FFEFDE
:10441000EF1AFF0AE2CF2F923F924F925F926F9274
:104420007F928F929F92AF92BF92CF92DF92EF9244
:10443000FF920F931F93CF93DF93CDB7DEB7C15594
:10444000D1090FB6F894DEBF0FBECDBF3C011B01F2
:104450002A0162963FAF2EAF62972996AFAE299799
:104460002A96BFAE2A972B96CFAE2B972C96DFAE0F
:104470002C972D96EFAE2D972E96FFAE2E972F965A
:104480000FAF2F9760961FAF6097CE0101960E94E5
:10449000E51989E4481684EF580691F1B20182E8E3
:1044A00099E00E94491A009719F587E4FE013196B8
:1044B000D30101900D928A95E1F7C301CF5ADF4FE6
:1044C0000FB6F894DEBF0FBECDBFDF91CF911F9125
:1044D0000F91FF90EF90DF90CF90BF90AF909F90A3
:1044E0008F907F906F905F904F903F902F900895A6
:1044F000A101BC0182E899E00E94C921892BA9F69B
:104500003A82298288E0FE01E85BFF4FDE011696C1
:1045100001900D928A95E1F76296EEADFFAD62973C
:10452000FD83EC8350919B098091980990919909A2
:1045300020E0251311C040E030E04CAF3DAF89A929
:104540009AA9837F81149104B9F418AA9AAB89AB14
:104550008B8180688B83A9CF482F392F0A96FC0165
:104560003A9760817181AA96EEADFFADAA97E617E2
:10457000F70719F32F5FDDCF9FA68EA6A8962FAD64
:10458000A89728AB8860E2CFCF92DF92EF92FF929C
:104590000F931F93CF93DF93EC010E949421009718
:1045A00029F1FC01E080F1808E0105531F4F6E015F
:1045B000F1EDCF0ED11CF801619171918F01611560
:1045C0007105C9F0A701CE010E94C921009799F099
:1045D000FC018281881F8827881FDF91CF911F915E
:1045E0000F91FF90EF90DF90CF90089581E3E82E38
:1045F00088EFF82ED9CF0C151D05E9F680E0EDCF38
:104600002F923F924F925F926F927F928F929F92E2
:10461000AF92BF92CF92DF92EF92FF920F931F93D0
:10462000CF93DF93CDB7DEB760970FB6F894DEBFB8
:104630000FBECDBF5C017B012A011C0189ED280E54
:10464000311CF501E652FF4F4F01E114F104E1F096
:10465000F701C280D380B701C5010E9494213C01BB
:10466000FFECCF2281E04816510439F192E049165F
:10467000510409F44EC0F701D382C282F301E3A4CE
:10468000F4A4E114F10409F760960FB6F894DEBFC4
:104690000FBECDBFDF91CF911F910F91FF90EF9093
:1046A000DF90CF90BF90AF909F908F907F906F9052
:1046B0005F904F903F902F9008956894C4F8B70191
:1046C000C5010E94C4228823B1F288E0F301359627
:1046D000DE01199601900D928A95E1F7F101808132
:1046E000882361F009851A852B853C854D855E857B
:1046F0006F857889C4010E94B71BBDCF81E080839C
:1047000088E0FE013996D40101900D928A95E1F777
:10471000B2CF6894C5F8B701C5010E94C4228823AE
:1047200009F4A9CF88E0F3013596DE0111960190D6
:104730000D928A95E1F7F1018081882349F0098182
:104740001A812B813C814D815E816F817885D2CF2A
:1047500081E0808388E0FE013196D5CFCF92DF9251
:10476000EF92FF920F931F93CF93DF93DC016115BC
:10477000710509F45AC01C96CD91DC911D978E01EC
:104780000F5F1F4F1A968D919C911B978017910771
:1047900008F44BC01496CD90DC90159776018FEFFE
:1047A000E81AF80A12968D919C9113978E159F0521
:1047B000E0F1FB01CD0147E44C9D90014D9D300D92
:1047C00011246D917C91260F371FD90101900D9214
:1047D0004A95E1F7DC011596FC92EE921497AE0132
:1047E000440F551F440F551F1896CD91DC91199712
:1047F000C40FD51F41E850E05B834A833983288387
:104800001D961C930E931C9741E050E0BE0182E878
:1048100099E00E940023CE01DF91CF911F910F916B
:10482000FF90EF90DF90CF900895D0E0C0E0F3CFFD
:10483000EF92FF920F931F93CF93DF93893424EF6E
:10484000920739F1EB01BC0182E899E00E94491A14
:104850007C010097F1F0BE010E94AE23EC01BC0187
:1048600082E899E00E947721FC0105811681278169
:1048700030854185528563857485C70144960E94C1
:10488000B71BCE01DF91CF911F910F91FF90EF9059
:104890000895D0E0C0E0F5CF6F927F928F929F9203
:1048A000AF92BF92CF92DF92EF92FF920F931F933E
:1048B000CF93DF93CDB7DEB7C659D1090FB6F894C1
:1048C000DEBF0FBECDBF3B012996EFAE29972A96DA
:1048D000FFAE2A972B960FAF2B972C961FAF2C97D6
:1048E0002D962FAF2D972E963FAF2E972F964FAF29
:1048F0002F9760965FAF60979F928F92AF9246011D
:104900002996AFAC29972A96BFAC2A972B96CFACA5
:104910002B972C96DFAC2C972D96EFAC2D972E96DF
:10492000FFAC2E972F960FAD2F9760961FAD609717
:1049300023E030E0AB01BC01CE01805B9F4F0E94C1
:104940000B2287E4FE01E05BFF4FDE011196019030
:104950000D928A95E1F71B8A1C8A1D8A198E1A8E80
:104960001B8E8091150290911602A0911702888BE0
:10497000998BAA8B8E8B9F8BA88F80911802909118
:104980001902A0911A028BAB9CABADAB8EAB9FAB67
:10499000A8AF8B8181608B8381E289AF0F900F90EC
:1049A0000F9089E4681684EF7806E1F0BE016F5F2E
:1049B0007F4FC3010E941824CA56DF4F0FB6F894E8
:1049C000DEBF0FBECDBFDF91CF911F910F91FF9042
:1049D000EF90DF90CF90BF90AF909F908F907F909F
:1049E0006F90089587E4FE013196A0EAB9E0019046
:1049F0000D928A95E1F780EA99E09093E809809317
:104A0000E70981E990E09093EA098093E90987EE4C
:104A100099E0D2CFFF920F931F93CF93DF938C0136
:104A2000F42ED52FC62FBC0182E899E00E94942174
:104A3000FC01892B51F183A994A922A92F1104C04B
:104A40008D1302C081E09C1380E080FF0CC086A91A
:104A500097A925A9F21204C0D81302C081E0C91396
:104A600080E080FD12C0F2AAD3ABC4ABF5AAD6ABEE
:104A7000C7AB41E050E0B80182E899E0DF91CF9107
:104A80001F910F91FF900C940023DF91CF911F9104
:104A90000F91FF9008952F923F924F926F927F92C5
:104AA0008F92CF92DF92EF920F931F93CF93DF936A
:104AB000EC011A01462E3801822EBC0182E899E0F1
:104AC0000E949421FC01892B09F444C080899189BA
:104AD0002785211105C0811103C081E0903C09F0B8
:104AE00080E080FF1AC0838994892289211105C042
:104AF000811103C081E0903809F080E080FF0DC093
:104B0000818D928D208D211105C0811103C081E01E
:104B1000903E09F080E080FD1DC02786308A418AE2
:104B2000628A738A848AC08ED18EE28E41E050E020
:104B3000BE0182E899E0DF91CF911F910F91EF9034
:104B4000DF90CF908F907F906F904F903F902F90FD
:104B50000C940023DF91CF911F910F91EF90DF9084
:104B6000CF908F907F906F904F903F902F900895AF
:104B7000FF920F931F93CF93DF936115710521F17E
:104B8000F42EEB018C010E9494210097E9F0FC01C6
:104B9000828182FF19C02A8126FB992790F980E043
:104BA000F11080E42F7B282B30E03B832A83F91619
:104BB00059F042E050E0BE01C801DF91CF911F9152
:104BC0000F91FF900C940023DF91CF911F910F91D3
:104BD000FF9008958F929F92AF92BF92CF92DF92F3
:104BE000EF92FF920F931F93CF93DF93CDB7DEB772
:104BF000CF54D1090FB6F894DEBF0FBECDBF2996B2
:104C00000FAF29972A961FAF2A972B962FAF2B9776
:104C10002C963FAF2C972D964FAF2D972E965FAFCA
:104C20002E972F966FAF2F9760967FAF609730913A
:104C30009B09E0919809F091990920E0231303C0A2
:104C400090E080E071C0AF01465F5F4F608171818D
:104C5000C616D70619F02F5FFA01F0CFEF2B81F3BC
:104C60004701BC01DF92CF9282E08F932996AFACCF
:104C700029972A96BFAC2A972B96CFAC2B972C96C8
:104C8000DFAC2C972D96EFAC2D972E96FFAC2E9780
:104C90002F960FAD2F9760961FAD609722E030E002
:104CA00049E454EFCE0101960E940B228B812091A2
:104CB000120230911302409114022BAB3CAB4DAB6E
:104CC0002EAB3FAB48AF8F608B83188A198A80EC7C
:104CD0008A8B1B8A1C8A90E89D8B1E8A1F8A888F6C
:104CE000198E1A8E80EE8B8F81EB9CE226969FAFF9
:104CF0008EAF269787E4FE013196A0EAB9E00190D5
:104D00000D928A95E1F780EA99E09093E809809303
:104D1000E70981E990E09093EA098093E9090F900F
:104D20000F900F9087EE99E0C15BDF4F0FB6F894BC
:104D3000DEBF0FBECDBFDF91CF911F910F91FF90CE
:104D4000EF90DF90CF90BF90AF909F908F9008959D
:104D50002F923F924F926F927F928F929F92AF923B
:104D6000BF92CF92DF92EF92FF920F931F93CF9358
:104D7000DF93CDB7DEB7C65BD1090FB6F894DEBFBF
:104D80000FBECDBF1C013B016996EFAE69976A96D5
:104D9000FFAE6A976B960FAF6B976C961FAF6C97D1
:104DA0006D962FAF6D976E963FAF6E976F964FAF24
:104DB0006F97A0965FAFA0976C962EAD3FAD6C97A6
:104DC000C555DF4F39832883CB5AD040A0968EAD8E
:104DD0009FADA097C355DF4F99838883CD5AD040AC
:104DE0006E968EAD9FAD6E97FC01E055F109C155F1
:104DF000DF4FF983E883CF5AD040C355DF4F888116
:104E00009981CD5AD040889796958795280F391F5C
:104E1000C755DF4F39832883C95AD0401F921F924C
:104E200089EC92E09F938F931F9287E08F939E016E
:104E3000205B3F4FC955DF4F39832883C75AD04085
:104E40003F932F930E94BC598CEE8F9389E78F93E9
:104E50001F92912C812C6996AFAC69976A96BFAC72
:104E60006A976B96CFAC6B976C96DFAC6C976D9630
:104E7000EFAC6D976E96FFAC6E976F960FAD6F9718
:104E8000A0961FADA0972FE030E150E040E0B101C7
:104E9000CE01805A9F4F0E940B2287E4FE01E05A08
:104EA000FF4FDE01119601900D928A95E1F78B81FB
:104EB0008B7F8B608B8389EA94EE9F878E87F301CB
:104EC000178216821182108283E690E09383828398
:104ED00081E090E0958384838BEA90E491878087DA
:104EE000C3018A969301245F3F4FCF54DF4F39832C
:104EF0002883C15BD04003E010E017870687118A42
:104F0000108A20E030E4338B228B958784870E94BF
:104F1000E519F30184859585895B9F4F0E94E5190A
:104F2000F3018485958582579F4F0E94E519F3010F
:104F3000178B068B118E108EC3014E96958B848B2A
:104F4000178E168E13A212A217A216A2138E128EFD
:104F500081EF98ED958F848F7FAE6EAE8BE296E3F6
:104F600024969FAF8EAF249780EE96E326969FAF50
:104F70008EAF26971B8A1C8A1D8A198E1A8E1B8E4D
:104F80008091150290911602A0911702888B998B3F
:104F9000AA8B2090120230901302409014022E8AA5
:104FA0003F8A488E6A962EAD3FAD6A97CD54DF4F4B
:104FB00039832883C35BD040430139EF831A3EEF26
:104FC000930A6CEC72E0C4010E949859C155DF4FFE
:104FD00088819981CF5AD040CD54DF4FE881F98143
:104FE000C35BD0408E0F9F1FCB54DF4F99838883C4
:104FF000C55BD040CB54DF4F2881C55BD0402A969B
:105000009FAF8EAF2A97C755DF4F4881C95AD0400E
:10501000C755DF4F88819981C95AD0402C969FAFE0
:105020008EAF2C9758E2B52E6B2DEE24EA94FE2C11
:105030000FEF1FEF2A963FAD2A972C965FAD2C9766
:1050400070E08B2D90E00E94A91CD12CC12C740122
:1050500089019A01AB01BC0184E690E00E94EA2537
:105060004C01D12CE0EEEE2E00E010E020E840E014
:1050700050E060EC0E944B25642DA101C4010E9408
:105080000A25B40182E899E00E947721BC01CF543F
:10509000DF4F88819981C15BD0400E94AE234301DC
:1050A00097EF891A9EEF990A6EEC72E0C4010E9494
:1050B0009859CB54DF4F88819981C55BD040889641
:1050C000282F2A969FAF8EAF2A97C755DF4F48816A
:1050D000C95AD040C755DF4FE881F981C95AD0403D
:1050E0002C96FFAFEEAF2C976B2DEE24EA94FE2C9E
:1050F0000FEF1FEF2A963FAD2A972C965FAD2C97A6
:1051000070E08B2D90E00E94A91CD12CC12C740161
:1051100089019A01AB01BC0185E690E00E94EA2575
:105120005C01D12CA0EEEA2E00E010E020E840E087
:1051300050E060EC0E944B25642DA101C5010E9446
:105140000A25B50182E899E00E947721BC01CF547D
:10515000DF4F88819981C15BD0400E94AE23CD543E
:10516000DF4F2881C35BD040CD54DF4F88819981C8
:10517000C35BD0402A969FAF8EAF2A97C555DF4FAD
:105180004881CB5AD040C555DF4FE881F981CB5AD1
:10519000D0402C96FFAFEEAF2C97C155DF4F688102
:1051A000CF5AD040C155DF4F88819981CF5AD04026
:1051B0002E969FAF8EAF2E97C355DF4FE881F981B2
:1051C000CD5AD0406096FFAFEEAF6097EE24EA94E0
:1051D000FE2C0FEF1FEF2A963FAD2A972C965FAD5E
:1051E0002C972E967FAD2E97C355DF4F8881CD5AD1
:1051F000D04060969FAD60970E94A91C29962FAF62
:1052000029972A963FAF2A972B964FAF2B972C962C
:105210005FAF2C972D966FAF2D972E967FAF2E9761
:105220002F968FAF2F9760969FAF60976301FFEF28
:10523000CF0ED11C47E050E0BE01605B7F4FC6013E
:105240000E94AD59F301EA5FFE4F1082912C812C30
:1052500018E0A12E2996EFAC29972A96FFAC2A9741
:105260002B960FAD2B972C961FAD2C972D962FAD0F
:105270002D972E963FAD2E972F964FAD2F97609678
:105280005FAD609769E474EF86E690E00E944C247D
:105290005C01BC0182E899E00E9494210FB6F89469
:1052A000DEBF0FBECDBF009751F022E2FC0120AF60
:1052B00041E050E0B50182E899E00E940023B50189
:1052C00082E899E00E947721BC01CF54DF4F8881AA
:1052D0009981C15BD0400E94AE23BE016F5F7F4FBA
:1052E00090E080E00E9418244C01F30193878287AC
:1052F000B12CA12CF301808D918DA816B906D0F0A8
:10530000C401CA54DF4F0FB6F894DEBF0FBECDBF45
:10531000DF91CF911F910F91FF90EF90DF90CF9091
:10532000BF90AF909F908F907F906F904F903F90E5
:105330002F900895F30164897589C501880F991F1D
:10534000880F991F680F791FFB01828193818370F9
:105350009927019739F482E899E00E947721FC01AE
:1053600094A683A6FFEFAF1ABF0AC4CFCF92DF92F5
:10537000EF92FF920F931F93CF93DF93EC016A019B
:105380007B01C114D104E104F10431F4C12C42E1E8
:10539000D42E4AE7E42EF12C8FA987FD07C061E0E7
:1053A0000E94741561E08FA90E94461561E088ADE6
:1053B0000E94741561E088AD0E9446158DA9811187
:1053C000A3C040E052E16AE770E0C416D506E606E5
:1053D000F70640F476956795579547958F5F863029
:1053E000A1F787E0982F906A969599A38095817090
:1053F0008AA31BA21CA21DA21EA21FB7F894809113
:105400008109811127C0E1EDFAE08491E1E7FAE03A
:105410009491E82FF0E0EE0FFF1FE756F64FA591AD
:10542000B491EC91E92321F461E085E30E944615F3
:1054300061E085E30E9474158CB580618CBD8CB5EC
:1054400080648CBD61E084E30E94741561E083E3B5
:105450000E947415809181098F5F809381091FBF1D
:105460008EA987FD21C061E00E94741561E08EA9BC
:105470000E94461564E670E080E090E00E94D51539
:1054800060E08EA90E94461564E670E080E090E03E
:105490000E94D51561E08EA90E94461568EC70E067
:1054A00080E090E00E94D5158EA987FF0DC020E016
:1054B00050E040E061E0CE010E94E30D66E970E05B
:1054C00080E090E00E94D51503EB19E0C801019639
:1054D000F8016491662309F463C00E5F1F4FFC015D
:1054E000F490EF2CE894E7F82E2DA801CE010E944D
:1054F000E30D0E0D111DF7FEE9CF66E970E080E0C7
:1055000090E00E94D515E2CF0CE91AE0F12C813031
:10551000B9F461E08AA50E94741560E08AA50E9432
:10552000461561E08CA50E94741560E08CA50E9470
:1055300046158BA587FD94CF60E00E94741590CF2F
:10554000F8018491E82FF0E0EE0FFF1FEE57F54FC2
:10555000859194912F8D38A12817390741F461E086
:105560008F2D0E94741560E08F2D0E944615F394D4
:105570000F5F1F4FF6E4FF12E3CF61E08EA50E949C
:10558000741561E08EA50E9446158FA587FD68CF32
:1055900061E00E94741561E08FA50E94461560CFFE
:1055A00080EF90E09987888780E491E09B878A87E5
:1055B000DF91CF911F910F91FF90EF90DF90CF90EF
:1055C00008950E948A590F931F93CF93DF93EC01A4
:1055D00088819981009759F02A813B8126173707E6
:1055E00030F081E0DF91CF911F910F9108958B01F1
:1055F0006F5F7F4F0E94A958009759F09983888365
:105600001B830A832C813D81232B59F7FC011082D7
:10561000E8CF80E0E7CFEF92FF920F931F93CF93F5
:10562000DF936115710541F480E0DF91CF911F9107
:105630000F91FF90EF90089541155105B1F07B0156
:10564000EC010C811D81040F151FB8010E94E32A93
:10565000882351F3288139818C819D81B701820F84
:10566000931F0E9498591D830C8381E0DECFCF9356
:10567000DF93EC0188819981009711F00E942058F6
:10568000198218821D821C821B821A82DF91CF919F
:105690000895EF92FF920F931F93CF93DF93EC0146
:1056A0007B01198218821B821A821D821C82FB01D7
:1056B00001900020E9F731978F01061B170BB80105
:1056C0000E94E32A811109C0CE01DF91CF911F9181
:1056D0000F91FF90EF900C94372B1D830C83B70133
:1056E00088819981DF91CF911F910F91FF90EF9069
:1056F0000C949859EF92FF920F931F93CF93DF93DF
:105700008C017B01EB0109900020E9F72197C61B72
:10571000D70BBE010E94E32A811109C0C801DF91A5
:10572000CF911F910F91FF90EF900C94372BF801C0
:10573000D583C483B70180819181DF91CF911F917F
:105740000F91FF90EF900C9498590F931F93CF9364
:10575000DF9300D000D000D0CDB7DEB78C01862F0C
:10576000F8011182108213821282158214824AE09B
:10577000BE016F5F7F4F90E00E944152BE016F5F9C
:105780007F4FC8010E947A2B29960FB6F894DEBF8E
:105790000FBECDBFDF91CF911F910F910895EF9272
:1057A000FF920F931F93CF93DF93CDB7DEB7A197EF
:1057B0000FB6F894DEBF0FBECDBF7C01CB01BA019E
:1057C000F7011182108213821282158214828E01D7
:1057D0000F5F1F4F22E044E00E94F751009789F0CD
:1057E000BC01C7010E947A2BA1960FB6F894DEBFC8
:1057F0000FBECDBFDF91CF911F910F91FF90EF9022
:105800000895C7010E94372BEFCFCF93DF93EC01B0
:10581000FB0144815581608171810E940B2B8111B4
:1058200003C0CE010E94372BCE01DF91CF910895A6
:10583000FC0180819181009711F00C94205808950B
:105840008F929F92AF92BF92CF92DF92EF92FF9290
:105850000F931F93CF93DF937C016B015A010E943A
:105860009421009759F1FC0187A4C5A5D6A5912CD8
:10587000840101501109A801B501CE010E949F5970
:10588000892BE1F0892841F0A801B501CE010E94E1
:10589000AD59C00FD11F188242E050E0B601C701D8
:1058A000DF91CF911F910F91FF90EF90DF90CF90FC
:1058B000BF90AF909F908F900C940023DF91CF9179
:1058C0001F910F91FF90EF90DF90CF90BF90AF901E
:1058D0009F908F900895CF92DF92EF92FF920F9357
:1058E0001F93CF93DF93CDB7DEB76E970FB6F894C3
:1058F000DEBF0FBECDBF7C018B01FB01468357830A
:105900005F934F9380ED92E09F938F931F928EE170
:105910008F93CE0101966C019F938F930E94BC5987
:10592000B801645F7F4F46E650E0C7010E94C9217D
:10593000A601BC01C7010E94202C0FB6F894DEBF5F
:105940000FBECDBF6E960FB6F894DEBF0FBECDBFB3
:10595000DF91CF911F910F91FF90EF90DF90CF904B
:105960000895EF92FF920F931F93CF93DF937C01E3
:105970008A010E949421009741F480E0DF91CF9149
:105980001F910F91FF90EF900895FC0163A574A5FE
:105990006115710591F3C7010E947721FC01C5AD26
:1059A000D6AD209751F30530110511F081E0E6CF17
:1059B0000E811F816A8D7B8DC7010E947721FC01BA
:1059C0008081918184369105D9F48A819B81081761
:1059D000190724F48C819D81080F191FA801BE01AD
:1059E000C7010E946B2CE885F9853097F9F26A852A
:1059F0007B8530E020E043E050E0C7011995D6CF29
:105A00008536910581F7888199818017910734F750
:105A10008C819D81081B190BE1CF2F923F924F92F1
:105A20005F926F927F928F929F92AF92BF92CF922E
:105A3000DF92EF92FF920F931F93CF93DF93CDB737
:105A4000DEB780915A0390915B03892BB9F07E01F8
:105A500088E1E80EF11CEE89FF89849110E000E0F6
:105A6000512C712C612C88248394912C412C312C45
:105A7000D12CC12CB12CA12C811113C0DF91CF915D
:105A80001F910F91FF90EF90DF90CF90BF90AF905C
:105A90009F908F907F906F905F904F903F902F904E
:105AA00008950115110599F4853271F0E0915A03BA
:105AB000F0915B031995FFEF6F1A7F0AEE89FF895A
:105AC000E60DF71D8491D8CF01E010E0F4CF01304E
:105AD000110509F04AC08436C1F4F701C080D180B5
