:100000000C94E2070C9413080C9413080C94130836
:100010000C9413080C9413080C9413080C941308F4
:100020000C9413080C9413080C9413080C941308E4
:100030000C9413080C9413080C9413080C941308D4
:100040000C9413080C9413080C9413080C941308C4
:100050000C9413080C9413080C9413080C94144477
:100060000C9413080C9488440C945E440C9413086C
:100070000C9413080C9413080C9413080C94130894
:100080000C9413080C9413080C9413080C94130884
:100090000C9413080C9413080C9413080C94130874
:1000A0000C9413080C9413080C9413080C94130864
:1000B0000C9413080C9413080C9413080C94130854
:1000C0000C9413080C9413080C9413080C94130844
:1000D0000C9413080C9413080C9413080C94130834
:1000E0000C9413080C94F31A0C94FA110C94760BDC
:1000F0000C944E170C945C170C944A170C942943DB
:100100000C9433170C94033E0C9488140C94D33B3A
:100110000C94D11A0C9494140C943C170C9427173B
:100120000C949B430C947B150C9461170C9436171C
:100130000C94E51A0C942F170C94781A0C947B0FDE
:100140000C9457160C9421170C9466170C942439B0
:100150000C94830A0C9478140C9458170C9462171E
:100160000C94D6370C942B130C94513E0C94CC1257
:100170000C9493420C9440170C9477140C94C21A6C
:100180000C945F3A0C94781B0C94F90C0C94980F17
:100190000C94AB0F0C9454170C94340D0C942B1B33
:1001A0000C94BE1A0C94BF1A0C942B170C942C466A
:1001B0000C94461700407A10F35A00A0724E1809AA
:1001C0000010A5D4E80000E87648170000E40B54BE
:1001D000020000CA9A3B000000E1F505000080968D
:1001E0009800000040420F000000A08601000000BF
:1001F000102700000000E803000000006400000079
:1002000000000A00000000000100000000002C7641
:10021000D888DC674F0823DFC1DFAE59E1B1B7965C
:10022000E5E3E453C63AE651997696E8E6C28426B9
:10023000EB898C9B62ED407C6FFCEFBC9C9F40F295
:10024000BAA56FA5F490055A2AF75C936B6CF96711
:100250006DC11BFCE0E40D47FEF520E6B500D0EDD6
:10026000902E0300943577050080841E080000203E
:100270004E0A000000C80C333333330F986E1283DC
:100280001141EF8D2114893BE65516CFFEE6DB18B0
:10029000D1844B381BF77C1D901DA4BBE424203275
:1002A00084725E228100C9F124ECA1E53D270000A3
:1002B00020002300260029002C002F00320000011E
:1002C000000003010601090111007F9629000100C9
:1002D0007F9628003A0155C0021010C10141C504A3
:1002E00000228040360168B00100B102B011B401B3
:1002F00002B60302023BB701C63A0155F704A95101
:100300002C82B701C6E808408A00002919A533C02D
:10031000020D0DC1024300C20100C504004800489F
:10032000B40100B60302023BE00F0F211C0B0E08C4
:10033000499838091103141000E10F0F2F2B0C0EF0
:1003400006477637071104231E00B00100B30402EC
:10035000000000B40100D003074218D103000710C9
:10036000D2020102D3020102D4020102C005123BF3
:10037000000211C103101088C50103C60102C80C98
:10038000003236450616377577540C00CC0100F65E
:1003900003010100CF03008130ED0464031281E802
:1003A00003851078CB05392C003402F70120EA02CE
:1003B0000000B00100B102001BB40100C00121C166
:1003C0000111C5023F3CC701B5360148F2010026C4
:1003D0000101E00F0F26240B0E0954A8460C170943
:1003E0000F0700E10F00191B0410072A4739030605
:1003F0000630380F360100B80101C0010EB001000F
:10040000C10410100202C006003500000102C5013F
:1004100004D2020104CA0100EA0180B903FF835734
:100420007F967F96B60125C0065050013C1E08B449
:10043000070240002A2A0D787F01F20B16160308E6
:1004400008080810041616FD03110235B2050C0C3D
:10045000003333B70135BB012BC00104C20201FFD9
:10046000C30111C40120C6010FD002A4A1E00ED027
:1004700000050E150D3743470915121619E10ED068
:1004800000050D0C062D44400E1C1816193A015596
:100490007F0A06000700B1020012B40102B6040090
:1004A000202700CA0101CB0103C001137F14C5013D
:1004B000CCC60100C70104C80103CC0106CD011C54
:1004C000F9021515F3030A020AF603011000FA00F7
:1004D000FB00B00103E2013FC00122E20100B001D4
:1004E00000C0010AB0010000000000000000000090
:1004F00000000000000000FFFF0F00000400620881
:100500000008080003000C01030B5A02030609034C
:1005100003171004030023050300170603096307EC
:1005200003090C08030C10090332221000160011F5
:10053000000101120000001300010000013003015E
:100540000137020301000D800200610201B0C1FF0A
:10055000FF32000100000102000001030030100919
:100560000001000C000000900000800F000000104F
:100570000200001102EF001202000013028F0100BE
:100580000500000105000002055F000104010004F0
:10059000040000FFFF320007000001FFFF320000EF
:1005A0000200000102000000000000000000000046
:1005B00000000000000100A4000100FFFF0A00602D
:1005C00000002708000808300014023100153732F7
:1005D0000004063300160E340011223500001536D3
:1005E00000078537000714380003143900200090F5
:1005F0000015001000100411003702290046002ADF
:10060000004600070000001200890113000011FFDE
:10061000FF96001200B90101000001020000020370
:10062000003010090001000A0000000D0000000E5B
:10063000003000610001006A0000008000000081BD
:1006400000000082005F009200000193000107FF9C
:10065000FF500007000001E500F0780100000102F2
:100660000000020300301004000000050000000834
:10067000000702090000000A0000000C0000000D45
:100680000000000F00000010000000110007001221
:100690000000001300000007000100FFFFC8001069
:1006A00000901611002702FFFF320012000D00FF1C
:1006B000FF32001300001229000A002B000D00FF7A
:1006C000FF32002000000021000000300000003157
:1006D0000004043200030035000504360008083722
:1006E00000070438000303390007073C0004053DF8
:1006F00000080860000027610001006A0000008017
:1007000000000081000000820000008300000084DF
:10071000000000850000009000100092000000071B
:10072000003301E50000800000010001000001022B
:100730000000070300301004000000080002020956
:100740000000000A0000000C0000000D0000000F77
:10075000000000100000001100070012000000134C
:10076000000000FFFF32001000B01711000700FF6B
:10077000FF0A0012003A01FFFF0A001300001A29C5
:10078000000C00FFFF0A00300000003100050532B8
:100790000004003500060036000707370005013861
:1007A000000200390007073C0004073D000708600D
:1007B0000000A7610001006A000000210000002085
:1007C0000000008000000081000000820000008323
:1007D00000000084000000850000009000100092DE
:1007E000000000930003009500100197000000989E
:1007F00000000007007301FFFF320001000001024A
:100800000000070300301008000203090000000A7E
:100810000008001000000011000500120000001385
:10082000000000FFFF64001000B012FFFF32001153
:10083000000700FFFF320012008C00130000172990
:10084000002000FFFF3200300000003100060132BE
:1008500000010135000601360003023700000038B0
:10086000000707390004023C0006013D0003016057
:100870000000A7610001009000300007003301FF75
:10088000FF3200150030009A001000110020001007
:100890000028341200020013003810FFFF28001255
:1008A000001200FFFF28001000203413004530FF25
:1008B000FF4600300000003100020432000703331D
:1008C0000004033400040035000104360007073734
:1008D000000503380010063900100601000001026F
:1008E00000000303003010080008080A0008006038
:1008F0000000276100010090003E0192000001937A
:10090000000001A0000030A3001000070001000754
:100910000021000700230007003300070033011106
:10092000001A001200213113006C0014004942101B
:10093000000008FFFF0A0011001A01FFFF0A001162
:10094000001A03FFFF0A0011001A07FFFF0A001137
:10095000001A0FFFFF0A0011003A0FFFFF1E0001EF
:1009600000280102000001030030100700121008E7
:100970000003030B0000110C0000000F000118150C
:1009800000200050000101510003065200080453EA
:1009900000000054000506550006045600030357E6
:1009A000000303580010005900001007001200FF58
:1009B000FF28000700130007001700000021002493
:1009C0000027002A002D0030003300010100000440
:1009D0000107010A0100000A0B02090C0D0E0807AD
:1009E00003040100000000000000000000000000FF
:1009F00000000000000000000000000000000000F7
:100A000000121110000000000000000000000000B3
:100A100000000000000000000000000000000000D6
:100A20003E5B4F5B3E3E6B4F6B3E1C3E7C3E1C185C
:100A30003C7E3C181C577D571C1C5E7F5E1C0018BA
:100A40003C1800FFE7C3E7FF0018241800FFE7DBAE
:100A5000E7FF30483A060E2629792926407F05050A
:100A600007407F05253F5A3CE73C5A7F3E1C1C0847
:100A7000081C1C3E7F14227F22145F5F005F5F060C
:100A8000097F017F006689956A606060606094A25A
:100A9000FFA29408047E040810207E201008082A73
:100AA0001C08081C2A08081E101010100C1E0C1E12
:100AB0000C30383E3830060E3E0E060000000000B6
:100AC00000005F00000007000700147F147F14245B
:100AD0002A7F2A12231308646236495620500008E0
:100AE000070300001C2241000041221C002A1C7F39
:100AF0001C2A08083E080800807030000808080812
:100B000008000060600020100804023E5149453E84
:100B100000427F400072494949462141494D3318FE
:100B200014127F1027454545393C4A494931412136
:100B30001109073649494936464949291E0000141A
:100B40000000004034000000081422411414141462
:100B500014004122140802015909063E415D594E14
:100B60007C1211127C7F494949363E414141227F26
:100B70004141413E7F494949417F090909013E41BF
:100B80004151737F0808087F00417F4100204041A8
:100B90003F017F081422417F404040407F021C02F9
:100BA0007F7F0408107F3E4141413E7F09090906CD
:100BB0003E4151215E7F09192946264949493203A0
:100BC000017F01033F4040403F1F2040201F3F4026
:100BD00038403F63140814630304780403615949DF
:100BE0004D43007F41414102040810200041414132
:100BF0007F04020102044040404040000307080017
:100C000020545478407F2844443838444444283899
:100C10004444287F385454541800087E090218A40C
:100C2000A49C787F0804047800447D400020404064
:100C30003D007F1028440000417F40007C04780480
:100C4000787C080404783844444438FC1824241878
:100C500018242418FC7C0804040848545454240420
:100C6000043F44243C4040207C1C2040201C3C404D
:100C700030403C44281028444C9090907C4464546C
:100C80004C4400083641000000770000004136085F
:100C90000002010204023C2623263C1EA1A161128F
:100CA0003A4040207A3854545559215555794122BB
:100CB00054547842215554784020545579400C1EA4
:100CC000527212395555555939545454593955544D
:100CD00054580000457C410002457D420001457C9E
:100CE000407D1211127DF0282528F07C54554500D6
:100CF0002054547C547C0A097F4932494949323A8C
:100D00004444443A324A4848303A4141217A3A42CE
:100D1000402078009DA0A07D3D4242423D3D4040A4
:100D2000403D3C24FF2424487E4943662B2FFC2F62
:100D30002BFF0929F620C0887E09032054547941ED
:100D40000000447D413048484A32384040227A0011
:100D50007A0A0A727D0D19317D2629292F28262924
:100D600029292630484D4020380808080808080876
:100D700008382F10C8ACBA2F102834FA00007B00B6
:100D80000008142A142222142A140855005500556C
:100D9000AA55AA55AAFF55FF55FF000000FF0010F5
:100DA0001010FF00141414FF001010FF00FF1010AB
:100DB000F010F0141414FC001414F700FF0000FFEE
:100DC00000FF1414F404FC141417101F10101F104B
:100DD0001F1414141F00101010F0000000001F104A
:100DE0001010101F10101010F010000000FF101055
:100DF00010101010101010FF10000000FF14000061
:100E0000FF00FF00001F10170000FC04F41414176B
:100E100010171414F404F40000FF00F71414141451
:100E2000141414F700F7141414171410101F101FC3
:100E3000141414F4141010F010F000001F101F0010
:100E400000001F14000000FC140000F010F010104F
:100E5000FF10FF141414FF141010101F00000000E6
:100E6000F010FFFFFFFFFFF0F0F0F0F0FFFFFF00DA
:100E700000000000FFFF0F0F0F0F0F3844443844ED
:100E8000FC4A4A4A347E02020606027E027E026361
:100E9000554941633844443C04407E201E200602EC
:100EA0007E020299A5E7A5991C2A492A1C4C7201C9
:100EB000724C304A4D4D303048784830BC625A460A
:100EC0003D3E494949007E0101017E2A2A2A2A2AFB
:100ED00044445F444440514A444040444A514000E5
:100EE00000FF0103E080FF000008086B6B0836126A
:100EF000362436060F090F060000181800000010EF
:100F000010003040FF0101001F01011E00191D17D4
:100F100012003C3C3C3C000000000001021020207C
:100F2000080810204010204080020102010804023D
:100F300001010204081020408080402010080402B3
:100F4000018004020180402010080402010804020C
:100F50000101020408102040800102040810204012
:100F60008000002200250028002B002E00310034D4
:100F70000002010000050108010B01050505050738
:100F80000508080808020202020A0A080804040404
:100F90000401010101010101010303030303030330
:100FA00003040707070C0C0C0C0C0C0C0C020202BF
:100FB0000206060606060606060B0B0B0B0B0B0BB2
:100FC0000B002C4611241FBECFEFD1E2DEBFCDBFF8
:100FD00000E00CBF13E0A0E0B2E0E4EDFFEC00E0C5
:100FE0000BBF02C007900D92A235B107D9F729E0D7
:100FF000A2E5B3E001C01D92A23DB207E1F717E000
:10100000C2EED7E000E006C021970109802FFE0163
:101010000E949C61C13ED10780E00807A9F70E94A9
:10102000EB460C94E8670C9400002091D1083091B5
:10103000D20890E09F5F213F48ED340729F48111E9
:1010400039C022E030E007C0882371F12230310539
:101050008CF52F5F3F4FF901EE0FFF1FED54F74F57
:101060000190F081E02D309741F1D901A754B74F9D
:101070004C91442311F1F093D408E093D3083093BA
:10108000D2082093D108248135813093DA08209347
:10109000D90821503109882311F030E020E0309345
:1010A000D8082093D70808951216130654F6215035
:1010B0003109D1CF30E020E0CECF933009F0BACF64
:1010C0001092D4081092D30881EF98ED9093D20833
:1010D0008093D1081092DA081092D9089093D8081A
:1010E0008093D7080895FC01A0919308B0919408CB
:1010F000892BD1F42091D3073091D4078091D50763
:101100009091D60714961C921E92139716961C92D5
:101110001E92159718963C932E9317971A969C93A8
:101120008E93199781E0089598E0139601900D929F
:101130009A95E1F7F7CF1092C10888E0EAE0F2E073
:10114000A2ECB8E001900D928A95E1F70895209104
:10115000B2093091B309009789F0232B51F4209103
:10116000A7093091A8092A5F3F4F3093A80920931F
:10117000A7099093B3098093B2090895232BC9F36B
:101180002091A7093091A80926503109EECF863366
:1011900008F0865320917B00982F9870277F922B20
:1011A00090937B008770806480937C0080917A00AC
:1011B000806480937A0080917A0086FDFCCF8091D4
:1011C00078009091790008958B988A982091020177
:1011D000277820930201A5982EB1277C2EB9709113
:1011E0000201292F30E0F901A5E0EE0FFF1FAA95BB
:1011F000E1F7E076E72BE09302017EB1F901EE0F13
:10120000FF1FEE0FFF1FE073E72BEEB974B3F90178
:10121000EE0FFF1FE072E72BE4BB7EB1F901F595FD
:10122000E795F595E795E870E72BEEB97091020127
:10123000E3E035952795EA95E1F72871272B209370
:1012400002018998899A209102012778209302014E
:10125000A5982EB1277C2EB9709102019C01F5E072
:10126000880F991FFA95E1F78076872B809302010A
:101270007EB1C901880F991F880F991F8073872B32
:101280008EB974B3C901880F991F8072872B84BBF4
:101290007EB1C90195958795959587958870872B1F
:1012A0008EB980910201F3E035952795FA95E1F723
:1012B0002871282B209302018998899A8A9AFA0129
:1012C000615008F43EC0819190910201977890930B
:1012D0000201A5989EB1977C9EB94091020190E0D1
:1012E0009C0155E0220F331F5A95E1F72076242BFD
:1012F000209302014EB19C01220F331F220F331F96
:101300002073242B2EB944B39C01220F331F20726B
:10131000242B24BB4EB19C013595279535952795F7
:101320002870242B2EB92091020133E095958795E2
:101330003A95E1F78871822B809302018998899A06
:10134000BFCF8B9A08958B988A98E2E0F1E02081D4
:1013500027782083A5982EB1277C2EB9A081292F2C
:1013600030E0A901B5E0440F551FBA95E1F740768A
:101370004A2B4083AEB1A901440F551F440F551F9E
:1013800040734A2B4EB9A4B3A901440F551F4072B4
:101390004A2B44BBAEB1A901559547955595479544
:1013A00048704A2B4EB9408153E0359527955A95A0
:1013B000E1F72871242B20838998899A2081277846
:1013C0002083A5982EB1277C2EB940819C01A5E0F1
:1013D000880F991FAA95E1F78076842B80834EB100
:1013E000C901880F991F880F991F8073842B8EB9AC
:1013F00044B3C901880F991F8072842B84BB4EB1FE
:10140000C90195958795959587958870842B8EB998
:101410008081B3E035952795BA95E1F72871282B9F
:1014200020838998899A8A9A808187788083A59871
:101430008EB1877C8EB94081872F90E09C0155E06A
:10144000220F331F5A95E1F72076242B20834EB1CB
:101450009C01220F331F220F331F2073242B2EB920
:1014600044B39C01220F331F2072242B24BB4EB1A6
:101470009C0135952795359527952870242B2EB9F5
:101480002081A3E095958795AA95E1F78871822B35
:1014900080838998899A808187788083A5988EB186
:1014A000877C8EB94081CB019B01B5E0220F331FB1
:1014B000BA95E1F72076242B20834EB19B01220FB1
:1014C000331F220F331F2073242B2EB944B39B01EB
:1014D000220F331F2072242B24BB4EB19C01359563
:1014E0002795359527952870242B2EB92081A3E0C8
:1014F00095958795AA95E1F78871822B80838998C5
:10150000899A8B9A0895FC01262F358D868D8295B8
:101510008170982F9627692F70E072A361A330FF26
:101520000CC0821307C080E290E050E040E060E031
:101530000C94E40881E290E0F8CF878D90A1833984
:1015400027E7920741F058F4843521E0920791F0A3
:1015500080329445C1F4626081E094E012C086322A
:1015600023E99207C1F3893025EB9207A1F3853275
:10157000924949F4660F771F660F771F636187E012
:1015800090E00C94A30981E690E0FBCF8F929F92AC
:10159000AF92BF92CF92DF92EF92FF920F931F9381
:1015A000CF93DF9300D01F92CDB7DEB77C014B0104
:1015B0005A016901FC01878D90A18732F3E99F07E9
:1015C00009F040C0F7018689823099F5F0E2AF0E4C
:1015D000B11C005E1F4FF701858D80FF4AC085A5B5
:1015E00099828A82DB82CC82AE014F5F5F4F64E0DA
:1015F00090E00E94E408F70181A9B982AA821B83C6
:101600000C83AE014F5F5F4F64E090E00E94E408FE
:101610000F900F900F900F90DF91CF911F910F912E
:10162000FF90EF90DF90CF90BF90AF909F908F9002
:101630000895833081F620E2820E911C80E2C80E6C
:10164000D11CC9CF8632954131F6F701868980FFDA
:10165000C2CFC801841B950B19F40F5F1F4FBBCF7E
:101660006217730709F0B7CF6B01C80ED91E8A0144
:10167000B2CFB40187A190A50E94A309B501F701DB
:1016800081A592A50E94A309C814D90421F40A15C2
:101690001B0509F4BDCFF701858D85FF08C086893C
:1016A00080FF1EC0102F0027A02AB12A8501B40197
:1016B000F70185A596A50E94A309B501F70181A9A7
:1016C00092A90E94A309B601F70187A590A90E94DB
:1016D000A309B801F70183A994A90E94A30998CF8F
:1016E000DC2CCC248C289D286401E1CFAF92BF92E2
:1016F000CF92DF92EF92FF920F931F93CF93DF93DE
:10170000EC018091CD07882349F0C701880F991F0C
:101710008E739927E1ECEE22E82AF92A37FF05C0FB
:10172000620F731F319521953109260F371F77FFFF
:1017300002C070E060E088859985281739070CF4AD
:10174000C9016C01C61AD70A17FF05C0400F511F07
:10175000119501951109040F151F57FF02C050E0A4
:1017600040E02A853B85021713070CF498015901C4
:10177000A41AB50A8901015011099C0121503109AF
:10178000CE010E94C60A8B988A985BA54CA58091D1
:101790000201877880930201A5988EB1877C8EB96B
:1017A00060910201842F90E09C01F5E0220F331F2D
:1017B000FA95E1F72076262B209302016EB19C0169
:1017C000220F331F220F331F2073262B2EB964B331
:1017D0009C01220F331F2072262B24BB6EB19C016B
:1017E00035952795359527952870262B2EB920916C
:1017F000020103E0959587950A95E1F78871822BA0
:10180000809302018998899A809102018778809358
:101810000201A5988EB1877C8EB960910201852F57
:10182000942F9C0145E0220F331F4A95E1F7207663
:10183000262B209302014EB19C01220F331F220F51
:10184000331F2073242B2EB944B39C01220F331F66
:101850002072242B24BB4EB19C01359527953595DC
:1018600027952870242B2EB920910201E3E095954D
:101870008795EA95E1F78871822B80930201899818
:10188000899A8A9ACA14DB042CF09A2D8B2D560162
:10189000C92ED82E8F2D99279C0145E0220F331F8A
:1018A0004A95E1F72076AC01440F551F440F551FB0
:1018B000342F3073AC01440F551F4072BC01759535
:1018C000679575956795562F5870F3E095958795B0
:1018D000FA95E1F78871B701A5E0660F771FAA9521
:1018E000E1F7962F9076B701660F771F660F771F87
:1018F0006073F701EE0FFF1F7E2F7072D701B59551
:10190000A795B595A795A870E3E0F594E794EA95B7
:10191000E1F7EE2DE871EE2E1C141D040CF043C00F
:10192000F501B0910201B778B0930201A598BEB15C
:10193000B77CBEB9B0910201B22BB0930201BEB127
:10194000B32BBEB9B4B3B42BB4BBBEB1B52BBEB9C7
:10195000B0910201B82BB09302018998899AB09195
:101960000201B778B0930201A598BEB1B77CBEB9A9
:10197000B0910201B92BB0930201BEB1B62BBEB932
:10198000B4B3B72BB4BBBEB1BA2BBEB9B091020190
:10199000BE29B09302018998899A319711F6E1E046
:1019A000CE1AD108B9CF8B9A8D8D80FF08C08F8D4C
:1019B00098A18632954191F48E8980FF0FC00A85E7
:1019C0001B8501501109288539852150310950E0C6
:1019D00040E070E060E0CE010E94C60ADF91CF9146
:1019E0001F910F91FF90EF90DF90CF90BF90AF903D
:1019F0000895EF92FF920F931F93CF93DF937C0193
:101A0000E90177FD2AC057FD28C0FC01808591853A
:101A10006817790714F58285938548175907ECF400
:101A20008091CD07882341F0C901880F991F8E73DB
:101A30009927C17CC82BD92B8A019B01C7010E9421
:101A4000C60ABE01F70183A594A5DF91CF911F912E
:101A50000F91FF90EF900C94A309DF91CF911F910C
:101A60000F91FF90EF900895EF92FF920F931F93C5
:101A7000CF93DF9300D000D000D01F92CDB7DEB758
:101A80007C01862F8370F701868B962F917060FF03
:101A9000F1C026813781F70131872087992309F426
:101AA000ECC024813581F70133872287823009F425
:101AB000E9C0833009F4E8C0813009F4E1C088E46A
:101AC0008A87F701258D368D30FF03C08A858058BF
:101AD0008A8731FF04C08A8590E489278A8733FF8B
:101AE00004C08A8598E089278A87F701878D90A1AD
:101AF00020FFFAC08431F8E69F0709F0C7C09A8535
:101B0000892F88728A871F82892F85958074282F54
:101B10002260892F90E09595879580729927822B76
:101B200088878BE38987AE01495F5F4F63E086EB6F
:101B300090E00E94E4082AE230E0F70130A727A3F2
:101B40008BE290E092A781A74CE250E054A743A714
:101B500036A725A730AB27A792AB81AB94AB83AB5D
:101B6000AE01465F5F4F61E086E390E00E94E408CB
:101B70008A8590E0F70194A383A3F701868980FF0B
:101B80001CC0858D968D92FD18C087A190A521A5BA
:101B900032A530A727A392A781A785A596A521A93D
:101BA00032A936A725A792AB81AB87A590A923A917
:101BB00034A930AB27A794AB83ABF701028513851B
:101BC00001501109208531852150310950E040E054
:101BD00070E060E0C7010E94C60AF7016681778164
:101BE000878D90A110E000E020E08732F3E99F07A5
:101BF00069F4F7012689225010E000E0223010F449
:101C000000E210E020E230E0201B310BF701458DAF
:101C100040FF26C119820A837B836C831D822E8339
:101C2000AE014F5F5F4F66E083E390E00E94E408FF
:101C300019820A83AE014F5F5F4F62E087E390E055
:101C40000E94E408F701858D80FF07C050E040E066
:101C500060E083E190E00E94E4082A960FB6F894D1
:101C6000DEBF0FBECDBFDF91CF911F910F91FF90CF
:101C7000EF900895248135810ECF2681378113CFCF
:101C800088E21ECF88E91CCF88EF1ACF833629E17E
:101C9000920749F0813834E9930729F08131E5E171
:101CA0009E0709F048CF2A8527FF02C021602A87B6
:101CB0002A8526FF02C022602A878336F9E19F0722
:101CC00021F48A858F738A8736CF813824E9920779
:101CD00019F48A858F72F7CF8131954109F02BCFA6
:101CE0008A858F7E806CEFCF2A85622F022E000CB2
:101CF000770B8339F7E79F0761F008F042C084351E
:101D0000E1E09E0709F469C08032F4E59F0709F01D
:101D100041C020E032E0F70130A727A321E032E004
:101D200032A721A722E032E034A723A720E132E046
:101D300036A725A721E132E030AB27A722E132E028
:101D400032AB21AB23E132E034AB23AB66277078B2
:101D50008632F3E99F0709F480C08032944509F484
:101D60007CC080E09AE6682B792B80E094E00E94AA
:101D7000A3096A85F4E06F9FB00111246627717092
:101D800054C0863223E9920721F2893035EB93075C
:101D900009F4BFCF80E290E0F70190A787A381E22A
:101DA00090E092A781A782E290E094A783A780E5C4
:101DB00090E096A785A781E590E090AB87A782E5A4
:101DC00090E092AB81AB83E590E094AB83AB662768
:101DD0007078776280E690E0CACF87E390E0F70101
:101DE00096A785A786E390E090AB87A789E390E06C
:101DF00092AB81AB88E390E094AB83AB80E290E060
:101E000090A787A381E290E092A781A782E290E069
:101E100094A783A7662772706862F4E02F9FC001C1
:101E2000112488279170682B792B81E090E00E9423
:101E3000A3098A85682F70E07595679575956795F4
:101E40006870772783FD70616063F70174A363A3F3
:101E500083E090E00E94A30990CE80E095E383CFD9
:101E60008339F7E79F07D9F1F8F4803234E5930717
:101E7000B1F18338E7E79E0739F184359140F9F4F1
:101E8000600F711F6150710981E390E00E94A30906
:101E9000B80182E390E00E94A30970E060E083E370
:101EA00090E00E94A309D9CE863223E99207B9F0C7
:101EB000893035EB930799F08532924909F3F701A0
:101EC00061A172A1626003C0F70161A172A181E604
:101ED00090E00E94A309B8018AE690E0E2CFF70102
:101EE00061A172A1626081E094E00E94A309B8013F
:101EF00084E094E0D6CFEF92FF920F931F93DC0122
:101F00001A960D911C911B9718962D913C9119973B
:101F1000ED91FC9100A0F1A1E02D7B0150E040E0AB
:101F200070E060E019951F910F91FF90EF90089578
:101F3000EF92FF920F931F93DC01ED91FC9100A0B3
:101F4000F1A1E02D780101E010E019951F910F91AA
:101F5000FF90EF900895EF92FF920F931F93DC0193
:101F6000ED91FC9100A0F1A1E02D7801890121E023
:101F700030E019951F910F91FF90EF90089508950B
:101F8000FC016370668B8481958126813781613085
:101F900039F0633029F0918780873387228708954D
:101FA000318720879387828708952F923F924F929F
:101FB0005F926F927F928F929F92AF92BF92CF92D9
:101FC000DF92EF92FF920F931F93CF93DF93CDB7E2
:101FD000DEB76A970FB6F894DEBF0FBECDBF9A8FFB
:101FE000898F7A8369834A01D22E18870F8337013C
:101FF000BC2CDC0159962D913C915A972115310545
:1020000009F015C118968D919C9119976817790759
:102010000CF0D7C11A968D919C91481759070CF076
:10202000D0C14C2C512CB6E0CB9E600D711D1124FB
:102030007C876B87161617060CF0C3C1EA2DF0E0FB
:10204000FA87E98793E0EE0FFF1F9A95E1F7F88B87
:10205000EF87CF01840F951F181619060CF0B1C138
:10206000A98DBA8D58968C91811104C0BFEABD1517
:1020700008F4D394A98DBA8DED91FC911197028447
:10208000F385E02DCD011995B5E0DB9EC00111244B
:10209000E981FA81FC83EB83312C212C9C01255EA4
:1020A000354F388F2F8B4A2D50E05E8B4D8BEF894B
:1020B000F88DE20DF31D44919E828D82D12CC12CAE
:1020C00069817A81620D731D7A8B698B842F90E010
:1020D0009C8B8B8BE98DFA8DA081B18140FF82C0F2
:1020E000F1E0BF126FC0AF126DC01C96ED91FC9174
:1020F0002F813885A4014C0D5D1D69897A89898DF0
:102100009A8D1995EB89FC89F595E7954E2F5FEF30
:10211000C51AD50A6D817E818D899E89680F791FC8
:102120007E836D8398E0C916D10481F6AFEF2A1A39
:102130003A0AEB81FC81E40DF51DFC83EB83F5E0AD
:102140002F16310409F0B3CF2F81388526153705B6
:10215000B9F0A98DBA8DED91FC91B1E0BB1257C0D9
:10216000AB1255C069817A816B5F7F4F0088F1891E
:10217000E02D830128E030E0A401898D9A8D199526
:10218000A98DBA8DED91FC9111970688F789E02D04
:10219000CD016A960FB6F894DEBF0FBECDBFDF91BA
:1021A000CF911F910F91FF90EF90DF90CF90BF9054
:1021B000AF909F908F907F906F905F904F903F90E7
:1021C0002F9019941E96ED91FC91EF80F88409856B
:1021D0001A8592014D815E816B817C81898D9A8DFA
:1021E000199590CF2F8138852615370509F48ACFA8
:1021F00031E0B31207C0A31205C01C96ED91FC910B
:10220000930178CF1E96ED91FC917301E0CF6B8521
:102210007C85641975090684F785E02D73010F85A7
:1022200018899201A401898D9A8D1995A9CFF90178
:1022300034969491329745915491D91AB7E0DB9E28
:10224000400D511D1124F901259134913C8B2B8BAC
:10225000FA0125903490FA013296749031963491B7
:10226000398B329664903196449041E04C1518F0C9
:102270004A1508F07FC0662D062C000C770B7C8376
:102280006B83842D042C000C990B9E838D83A98D68
:10229000BA8DED91FC9111970284F385E02DCD016B
:1022A0001995512CD12CC12CEA2DF0E0FA87E98741
:1022B0002B2D30E03C872B87A401440D511D47FC9A
:1022C0005A95588F4F8B69817A81660D711D67FC15
:1022D0007A957E876D877989C71608F051CF2C2DA6
:1022E00030E04D815E81420F531FA985BA854A9F18
:1022F000C0014B9F900D5A9F900D1124FC01E80DD9
:10230000F91DF88BEF87852D612C4F89588D420F71
:10231000531F5E8B4D8B671408F050C044244394C8
:10232000480E877041F4C1010196EB89FC89E20DEA
:10233000F31DD4901C01D7FE19C0A98DBA8DED9163
:10234000FC91662D70E0B1E0BB1219C0AB1217C052
:102350002D853E85620F731F0484F585E02D2F8146
:1023600038854D895E89898D9A8D1995DD0C639428
:10237000842DD1CF1E821D821C821B8288CF4B816F
:102380005C81640F751FAB85BC856A9FC0016B9F24
:10239000900D7A9F900D112469817A81680F791FC1
:1023A0000684F785E02DEF80F88409851A859D0164
:1023B0004F855889898D9A8D1995D8CF570CC3941C
:1023C0008ACF6A960FB6F894DEBF0FBECDBFDF91FD
:1023D000CF911F910F91FF90EF90DF90CF90BF9022
:1023E000AF909F908F907F906F905F904F903F90B5
:1023F0002F9008958F929F92AF92CF92EF92FF927B
:102400000F931F93CF93DF93EC01262F898D9A8D25
:10241000009709F051C06A30D1F41D861C868D8961
:1024200048E0849F900111248E859F85820F931F21
:102430009F878E8781E090E0DF91CF911F910F9170
:10244000FF90EF90CF90AF909F908F9008956D3058
:1024500089F3CC88AD888F898823C1F08C859D85D0
:1024600036E0C39E800D911D11244885598548177B
:10247000590764F44E855F851D861C8638E0A39E4F
:10248000C0011124840F951F9F878E87EA88FB88DF
:10249000088919894E855F856C857D85CE010E94EE
:1024A000D50F2C898C859D8546E0249F800D911D3C
:1024B00011249D878C87BECF6A3069F41D861C86E7
:1024C000FC013896E4912D898E859F85E29F800DD1
:1024D000911D1124ADCF6D3009F4ACCFFC013496C1
:1024E0003491631708F4A6CF3296E491E61708F406
:1024F000A1CFFC01329685909490462F431B342F38
:1025000047E0349F800C911C1124F40132963491E1
:102510003196E4913323A9F1EE2399F1CC88F401AB
:102520003596E491AD884F89442301F10E2E000CBD
:10253000FF0BE30FF11DCE9EA001CF9E500D112485
:102540006C857D85460F571F6885798564177507EB
:102550006CF44E855F851D861C86FC013896E491DF
:10256000AE9E400D511D11245F874E87EA88FB887F
:10257000088919894E855F856C857D85CE010E940D
:10258000D50FF4013496E4912C898C859D85E29FCA
:10259000800D911D11248DCF6F927F928F929F920B
:1025A000AF92BF92CF92DF92EF92FF920F931F9361
:1025B000CF93DF93EC016B015A0139014801E881A7
:1025C000F9810284F385E02D1995E881F98102886B
:1025D000F389E02D87019301A501B601CE0119957C
:1025E000A501480D591D41505109E881F981028822
:1025F000F389E02D9301B601CE011995E881F981A7
:102600000088F189E02D9401A501B601CE0119954C
:10261000C60CD71CB60161507109E881F9810088A8
:10262000F189E02D9401A501CE011995E881F98188
:102630000688F789E02DCE01DF91CF911F910F9190
:10264000FF90EF90DF90CF90BF90AF909F908F90D2
:102650007F906F9019946F927F928F929F92AF921A
:10266000BF92CF92DF92EF92FF920F931F93CF937F
:10267000DF935C01EB016A01490138018701DC014C
:10268000ED91FC916217730719F5641675062CF02D
:10269000962D872D3A01C92ED82E96012619370975
:1026A0002F5F3F4F048CF58DE02DA301BE01C501C6
:1026B0001995DF91CF911F910F91FF90EF90DF90CF
:1026C000CF90BF90AF909F908F907F906F90089524
:1026D0004615570591F42617370724F0892D4B012D
:1026E000C22FD82F9E01281939092F5F3F4F068C22
:1026F000F78DE02DA601B401DACF0284F385E02D39
:102700001995D501ED91FC910488F589E02D83019F
:102710009401A601BE01C5011995D501ED91FC9169
:102720000688F789E02DC501DF91CF911F910F91A8
:10273000FF90EF90DF90CF90BF90AF909F908F90E1
:102740007F906F901994EF92FF920F931F93DC018B
:102750001A960D911C911B9718962D913C911997E3
:10276000ED91FC9100A0F1A1E02D7B0150E040E053
:1027700070E060E019951F910F91FF90EF90089520
:102780004F925F926F927F928F929F92AF92BF9281
:10279000CF92DF92EF92FF920F931F93CF93DF932D
:1027A0006C012B015A0139014801DC01ED91FC91CA
:1027B0000284F385E02D1995E201640C751CD601A5
:1027C000ED91FC91C615D7055CF40088F189E02DE8
:1027D00087019401A501BE01C60119952196EFCF8D
:1027E0000688F789E02DC601DF91CF911F910F91E7
:1027F000FF90EF90DF90CF90BF90AF909F908F9021
:102800007F906F905F904F9019948F929F92AF92AC
:10281000BF92CF92DF92EF92FF920F931F93CF93CD
:10282000DF93EC015B014A016901E881F9810284CF
:10283000F385E02D199595012C0D3D1D2150310991
:10284000E881F9810488F589E02D78018401A401EB
:10285000B501CE011995E881F9810688F789E02D47
:10286000CE01DF91CF911F910F91FF90EF90DF90FC
:10287000CF90BF90AF909F908F9019948F929F921E
:10288000AF92BF92CF92DF92EF92FF920F931F937E
:10289000CF93DF93EC015B014A0169017801E88184
:1028A000F9810284F385E02D1995C80CD91C8601A5
:1028B00001501109E881F9810488F589E02D95011D
:1028C000A401B501CE011995E881F9810688F7893F
:1028D000E02DCE01DF91CF911F910F91FF90EF90EE
:1028E000DF90CF90BF90AF909F908F9019940895F4
:1028F000EF92FF920F931F93DC01ED91FC9100A0EA
:10290000F1A1E02D19951F910F91FF90EF9008957F
:102910000F931F93DC01ED91FC91068CF78DE02D58
:1029200019951F910F9108950F931F93DC01ED915D
:10293000FC91048CF58DE02D19951F910F91089550
:102940002F923F924F925F926F927F928F929F92BF
:10295000AF92BF92CF92DF92EF92FF920F931F93AD
:10296000CF93DF93CDB7DEB72C970FB6F894DEBFC9
:102970000FBECDBF3C017C836B835C874B87180106
:10298000270181E090E05C01A41AB50ACA01919583
:1029900081959109AC01440F551F5A834983C801A1
:1029A00001969E838D83F12CE12C88248394912CB5
:1029B000922F91709F8322702887AB014F5F5F4FEA
:1029C0005A8749878B859C85E816F9060CF07AC0F2
:1029D000CB84DC84B7FC0CC06C0191E0C91AD1082F
:1029E00049815A814E5F5F4F5A834983A40EB51EB9
:1029F0005FEFE51AF50A82E0880E911CA80CB91C5D
:102A0000CE14DF0464F19F81992399F09601220F7F
:102A1000331F4D815E81240F351F82014B815C8104
:102A20004C195D09B701660D771D89E999E00E948F
:102A300094145885552399F09601220F331F8D81E8
:102A40009E81280F391F82014B815C814C195D09E1
:102A5000B3016E197F0989E999E00E9494144B85AE
:102A60005C854C155D0559F15F81552391F094010A
:102A700022503109220D331D820149855A854E1994
:102A80005F096B857C85660D771D89E999E00E9459
:102A900094148885882399F0940122503109220DDD
:102AA000331DB3014B855C85641B750B8201498521
:102AB0005A854E195F0989E999E00E949414DC86D1
:102AC000CB8680CF2C960FB6F894DEBF0FBECDBF5D
:102AD000DF91CF911F910F91FF90EF90DF90CF90FA
:102AE000BF90AF909F908F907F906F905F904F902E
:102AF0003F902F900895DC01ED91FC910084F185C9
:102B0000E02D19942F923F924F925F926F927F9295
:102B10008F929F92AF92BF92CF92DF92EF92FF92ED
:102B20000F931F93CF93DF9300D01F92CDB7DEB7E3
:102B30006C015B015C834B8381E090E04C01841A63
:102B4000950A2A01519441945108440C551CF12CCA
:102B5000E12C66246394712C422F44704983522FD8
:102B600052705A83822F8870282E2170322E4B810A
:102B70005C81E416F5060CF083C097FC09C0415057
:102B800051095C834B8352E0450E511C840C951C0B
:102B90008FEFE81AF80A92E0690E711C860C971CF8
:102BA00049814423C1F098014B815C814A0D5B1D32
:102BB000B6016E0D7F1D89E999E00E947B15980191
:102BC000A5014E0D5F1D6B817C816C0D7D1D89E91A
:102BD00099E00E947B155A815523C9F09801A501FF
:102BE0008B819C81481B590BB6016E0D7F1D89E9B5
:102BF00099E00E947B159801A5014E195F096B8130
:102C00007C816C0D7D1D89E999E00E947B15222055
:102C1000C9F09801A5014E0D5F1DB6018B819C8105
:102C2000681B790B89E999E00E947B1598014B811B
:102C30005C814A0D5B1DB6016E197F0989E999E037
:102C40000E947B15332009F492CF9801A5014E19FB
:102C50005F09B6018B819C81681B790B89E999E03A
:102C60000E947B159801A5018B819C81481B590B03
:102C7000B6016E197F0989E999E00E947B1577CF2B
:102C80000F900F900F900F90DF91CF911F910F91A8
:102C9000FF90EF90DF90CF90BF90AF909F908F907C
:102CA0007F906F905F904F903F902F9008952F925C
:102CB0003F924F925F926F927F928F929F92AF92CC
:102CC000BF92CF92DF92EF92FF920F931F93CF9319
:102CD000DF9300D000D0CDB7DEB73C016A013E8360
:102CE0002D83FC82EB825801A41AB50AB7FE03C0FB
:102CF000B194A194B1088D809E80861A970A97FEA0
:102D000003C09194819491088A149B045CF0902FE5
:102D1000812F0D811E819D838E839C2D8D2D6B01B6
:102D2000692F782F0C151D055CF09D818E817E83A7
:102D30006D83692F782F902F812F8601C92ED82E71
:102D40001601201A310A2B012D813E81421A530AA5
:102D500057FE03C0519441945108710137FE03C0DE
:102D60003FEFE31AF30AF594E7948D819E8186176D
:102D700097075CF5A1E0B0E0BA83A983C016D1063D
:102D80004CF1D301ED91FC910484F585E02D2B816C
:102D90003C81A8016D817E818A149B041CF04D81C9
:102DA0005E81B801C3011995E418F508F7FE0AC061
:102DB0002D813E8189819A81280F391F3E832D8381
:102DC000E20CF31C0F5F1F4FD9CF2FEF3FEF3A8379
:102DD0002983D4CF26960FB6F894DEBF0FBECDBFA1
:102DE000DF91CF911F910F91FF90EF90DF90CF90E7
:102DF000BF90AF909F908F907F906F905F904F901B
:102E00003F902F9008958150823108F05AC0E82FEA
:102E1000F0E08827E15FF84E8F4F0C949C612F17EC
:102E20003317211727172B17611736173C17401731
:102E300046174A174E175417581761175C17621731
:102E40006617809180008F7780938000089580912D
:102E500080008F7DF9CF80918000877FF5CF84B58A
:102E60008F7784BD089584B58F7DFBCF8091B000AE
:102E70008F778093B00008958091B0008F7DF9CF57
:102E8000809190008F7780939000089580919000BA
:102E90008F7DF9CF80919000877FF5CF8091A00042
:102EA0008F778093A00008958091A0008F7DF9CF47
:102EB0008091A000877FF5CF809120018F7780934C
:102EC00020010895809120018F7DF9CF809120010C
:102ED000877FF5CF1F93CF93DF93282F30E0F90141
:102EE000EB52F64F8491F901E55EF04FD491F90170
:102EF000E558F04FC491CC23A9F0162F81110E9400
:102F00000317EC2FF0E0EE0FFF1FEF59F04FA591E4
:102F1000B4918FB7F894EC91111108C0D095DE23CD
:102F2000DC938FBFDF91CF911F910895DE2BF8CFF7
:102F3000CF93DF9390E0FC01E55EF04F249185583C
:102F4000904FFC0184918823C9F090E0880F991F6D
:102F5000FC01E554F64FA591B491FC01EF59F04FF7
:102F6000C591D49161110DC09FB7F8948C912095B3
:102F700082238C938881282328839FBFDF91CF9160
:102F80000895623051F49FB7F8943C91822F809558
:102F900083238C93E8812E2BEFCF8FB7F894EC919D
:102FA0002E2B2C938FBFEACF3FB7F8948091C9079F
:102FB0009091CA07A091CB07B091CC0726B5A89BEA
:102FC00005C02F3F19F00196A11DB11D3FBFBA2FBB
:102FD000A92F982F8827BC01CD01620F711D811D7B
:102FE000911D42E0660F771F881F991F4A95D1F700
:102FF00008958F929F92AF92BF92CF92DF92EF92FD
:10300000FF926B017C010E94D4174B015C01C1143B
:10301000D104E104F104B9F00E94D41768197909C8
:103020008A099B09683E73408105910580F321E080
:10303000C21AD108E108F10888EE880E83E0981ED4
:10304000A11CB11CE4CFFF90EF90DF90CF90BF9018
:10305000AF909F908F90089581E08093CE07E1E03C
:10306000F1E08081886780839D9A8DB188638DB9F6
:10307000809A819A829A839A849A8B9A889A899A5A
:103080008C9A62E370E080E090E00E94F9178C98DF
:1030900064E670E080E090E00E94F9178C9A64E6A4
:1030A00070E080E090E00E94F91770E060E080EB53
:1030B00090E00C94A309EF92FF920F931F93CF938C
:1030C000DF93EC01E62E8091CE07811102C00E94B1
:1030D0002C188B988A98809102018778809302013E
:1030E000A5988EB1877C8EB98091020180930201F0
:1030F0008EB18EB984B384BB8EB18EB9809102013A
:10310000809302018998899A80910201877880933F
:103110000201A5988EB1877C8EB920910201CE0163
:1031200015E0880F991F1A95E1F78076822B80931E
:1031300002012EB1CE01880F991F880F991F80734D
:10314000822B8EB924B3CE01880F991F8072822BF7
:1031500084BB2EB1CE0195958795959587958870FE
:10316000822B8EB98091020153E0D595C7955A956F
:10317000E1F7C871C82BC09302018998899A8A9A8D
:10318000809101018778809301019D988DB1877CA2
:103190008DB961E070E080E090E00E94F91761E095
:1031A00070E080E090E00E94F917889A88988898EB
:1031B0008898D09100011CB102B3CCB1F09000010D
:1031C000889A61E070E080E090E00E94F917889AA8
:1031D000889888988898409100015CB1E2B39CB1CE
:1031E000F0910001889AEA946FEFE612D8CF889A9E
:1031F0008B9A809101018867809301019D9A8DB11E
:1032000088638DB984E0C89F900111242072332710
:1032100088E0F89EB0011124607C7727262B602F70
:1032200070E07595679560717727262B612F70E0A8
:1032300075956795759567956C707727262B6D2F1B
:1032400070E0B5E075956795BA95E1F763707727FB
:10325000262B64E0969FC0011124807298E0F99FAC
:10326000B0011124607C862BE695E0718E2B56957B
:1032700056955C70852B50E0C5E055954795CA95ED
:10328000E1F74370842B922FDF91CF911F910F9123
:10329000FF90EF9008950F931F93CF93DF938C01CE
:1032A00060E00E945B18EC0161E0C8010E945B18BD
:1032B0008C01BE0190E080E0CB017727662730E0EB
:1032C00020E0602B712B822B932BDF91CF911F91EC
:1032D0000F910895FF920F931F93CF93DF938C016B
:1032E00060E00E945B18EC0161E0C8010E945B187D
:1032F000F82E62E0C8010E945B18AE0170E060E049
:10330000742F66275527442700E030E020E0402B4B
:103310005F29622B732B292F30E0C901B0E0A0E0B8
:103320008A019B01082B192B2A2B3B2BC901B801C1
:10333000DF91CF911F910F91FF9008950F931F93ED
:10334000CF93DF93EC018B01FE0185919491FE01F7
:1033500032962496659174918F3F980771F490E0AE
:1033600080E00E94F917045011091016110664F349
:10337000DF91CF911F910F9108950E94A309F3CF80
:103380000F931F93CF93DF93EC018B01FE01849188
:103390003196649122968F3799F470E090E080E046
:1033A0000E94F91760E070E06E5F7F4F061B170BFD
:1033B000101611065CF3DF91CF911F910F910895C4
:1033C0008B988A9890910201977890930201A59822
:1033D0009EB1977C9EB94091020190E09C0155E01E
:1033E000220F331F5A95E1F72076242B20930201F8
:1033F0004EB19C01220F331F220F331F2073242B49
:103400002EB944B39C01220F331F2072242B24BBFE
:103410004EB19C0135952795359527952870242B1D
:103420002EB920910201A3E095958795AA95E1F721
:103430008871822B809302018998899A50E040E03C
:10344000461708F045C0FE01E40FF51FE4918A9A83
:1034500080910201877880930201A5988EB1877CC4
:103460008EB9709102018E2F90E09C01E5E0220F51
:10347000331FEA95E1F72076272B209302017EB1D6
:103480009C01220F331F220F331F2073272B2EB9CD
:1034900074B39C01220F331F2072272B24BB7EB1F3
:1034A0009C0135952795359527952870272B2EB9A2
:1034B000E091020123E0959587952A95E1F78871BF
:1034C0008E2B809302018998899A4F5F5F4FB8CF06
:1034D000C60FD11D8B9A67CF2FB7F8946091C5079F
:1034E0007091C6078091C7079091C8072FBF0895B4
:1034F000AF92BF92CF92DF92EF92FF920F931F9302
:10350000CF93DF936C017B018B01040F151FEB013F
:103510005E01AE18BF08C017D10759F06991D601F6
:10352000ED91FC910190F081E02DC6011995892B58
:1035300079F7C501DF91CF911F910F91FF90EF9027
:10354000DF90CF90BF90AF900895CF93DF93FC01B1
:10355000448155816081718188EE98E00E94781ADB
:10356000EC0142E050E065EC72E088EE98E00E94E9
:10357000781A8C0F9D1FDF91CF910895089590E0E8
:1035800080E00895FC01538D448D252F30E0842F79
:1035900090E0821B930B541710F0CF96089501977B
:1035A0000895FC01918D828D981761F0A28DAE0F68
:1035B000BF2FB11D5D968C91928D9F5F9F73928FEF
:1035C00090E008958FEF9FEF0895FC01918D828D1B
:1035D000981731F0828DE80FF11D858D90E00895E8
:1035E0008FEF9FEF0895FC01918D228D892F90E040
:1035F000805C9F4F821B91098F739927089588EEF5
:1036000098E00E94F31A21E0892B09F420E0822F30
:103610000895FC01A48DA80FB92FB11DA35ABF4F67
:103620002C91848D90E001968F739927848FA689C1
:10363000B7892C93A089B1898C91837080648C9315
:10364000938D848D981306C00288F389E02D8081C4
:103650008F7D80830895EF92FF920F931F93CF93F6
:10366000DF93EC0181E0888F9B8D8C8D98131AC0BD
:10367000E889F989808185FF15C09FB7F894EE89A4
:10368000FF896083E889F989808183708064808301
:103690009FBF81E090E0DF91CF911F910F91FF904C
:1036A000EF900895F62E0B8D10E00F5F1F4F0F73F4
:1036B0001127E02E8C8D8E110CC00FB607FCFACFAF
:1036C000E889F989808185FFF5CFCE010E94091B29
:1036D000F1CFEB8DEC0FFD2FF11DE35AFF4FF08280
:1036E0009FB7F8940B8FEA89FB8980818062CFCFE6
:1036F000CF93DF93EC01888D8823B9F0AA89BB8929
:10370000E889F9898C9185FD03C0808186FD0DC013
:103710000FB607FCF7CF8C9185FFF2CF808185FF34
:10372000EDCFCE010E94091BE9CFDF91CF91089523
:1037300080E090E0892B29F00E94FF1A81110E94FD
:10374000000080E090E0892B49F080E090E0892B38
:1037500029F00E94000081110E94000080E090E0AA
:10376000892B49F080E090E0892B29F00E9400002D
:1037700081110E94000080E090E0892B49F080E0F8
:1037800090E0892B29F00E94000081110C94000028
:103790000895272F66956695669570E0762F6627C3
:1037A000770F770F770F2695269590E2299F900146
:1037B0001124622B732B8695869586959B01282B69
:1037C000C90108957F928F929F92AF92BF92CF923C
:1037D000DF92EF92FF920F931F93CF93DF935C01E1
:1037E0004B01EA01722EF32E8E2DB6010E94C91BE9
:1037F0006C01E8848E819F810E94A708D092AC0959
:10380000C092AB09D092AA09C092A909B092A609A8
:10381000A092A5099092A8098092A7098E2DE11087
:1038200001C081E08093AD098093AE09680183E017
:10383000C822DD24C72DDF2DE1E0CE16D10481F0B2
:103840001881112381F0612F89E999E00E94FA1112
:103850001A3021F4B092A609A092A5092196ECCFC6
:10386000FE011491EECF90E080E00E94A70881E075
:10387000DF91CF911F910F91FF90EF90DF90CF904C
:10388000BF90AF909F908F907F9008950F931F935C
:10389000CF93DF93182F062FEA01642F0E94981709
:1038A000219741F4602F812FDF91CF911F910F91CC
:1038B0000C946A17DF91CF911F910F9108950F9388
:1038C0001F93CF93DF93EB01BC01655E704FFB014B
:1038D000A4919C012558304FF901449150E0440FC8
:1038E000551FFA01E554F64F05911491F801B08186
:1038F000EB2FEA2371F4FA01EF59F04F45915491FF
:10390000FA014081A42350E040E029F042E050E079
:1039100002C041E050E0598348838B52964FFC012E
:103920008491FB010491F9011491112379F0811123
:103930000E940317E12FF0E0EE0FFF1FE255FD4F4D
:10394000A591B4916C91602381E009F480E08170CD
:103950008A83DF91CF911F910F9108952F923F920B
:103960004F925F926F927F928F929F92AF92BF928F
:10397000CF92DF92EF92FF920F931F93CF93DF933B
:10398000CDB7DEB72F970FB6F894DEBF0FBECDBF11
:103990007F836E8359874887D901B9016E5F7F4F56
:1039A000002309F4B9C0F901F4912F2F30E0322F30
:1039B0002227FD0131964491E42FF0E0FB83EA8356
:1039C0004A815B81422B532B5F874E87AD014C5F51
:1039D0005F4F002309F4A9C0FB01649170E0762FCA
:1039E0006627FD013396E491F0E09F01262B372BEB
:1039F0003B832A83BA016F5F7F4F002309F49EC087
:103A0000FA01F491F9839A012E5F3F4F002309F4E4
:103A100099C0FB015490F90144901A01B4E02B0EB7
:103A2000311C2E853F85295F3F4F37FF04C02E850F
:103A30003F85225F3F4FF90123E0F595E7952A95F1
:103A4000E1F7FD83EC83D12CC12C10E0B12CA12C2B
:103A50009C0120543F4F3D872C874A815B81A416EF
:103A6000B5060CF084C0F12CE12CC1018C0D9D1D1C
:103A70009B878A87888499848A0C9B1CAE85BF8526
:103A8000EA16FB060CF06BC0C70187709927110F6F
:103A9000892B71F4F70183E0F595E7958A95E1F7B5
:103AA000002309F456C0EC0DFD1DE20DF31D149129
:103AB00017FF2EC06E807F806E0C7F1CAC85BD858D
:103AC000ED91FC9123813481621673060CF187819C
:103AD00090850197820F931F86159705CCF025815D
:103AE000368182169306A4F0818592850197820F14
:103AF000931F8815990564F06981752D842D0E94A6
:103B0000C91B9C01A401B30189E999E00E94F90C49
:103B1000BFEFEB1AFB0AB2CF2C91298330E0322F92
:103B2000222711964C91119747CF12966C911297BC
:103B300070E0762F66271396EC9156CFDA01BC9190
:103B4000B98361CFDA0111965C90119712964C906F
:103B500064CF2A853B85E20FF31F1081A9CFEFEFD9
:103B6000AE1ABE0A2C813D81C20ED31E76CF2F968F
:103B70000FB6F894DEBF0FBECDBFDF91CF911F917E
:103B80000F91FF90EF90DF90CF90BF90AF909F90FC
:103B90008F907F906F905F904F903F902F900895FF
:103BA0002F923F924F925F926F927F928F929F924D
:103BB000AF92BF92CF92DF92EF92FF920F931F933B
:103BC000CF93DF9300D000D01F921F92CDB7DEB706
:103BD00009831A832B833C834D835E836F837887AD
:103BE00049815A8180549F4FDC01ED91FC91A38063
:103BF000B4806D807E80B1E06B1A7108640E751E12
:103C00006A147B040CF445C02780308421E0221A1A
:103C100031082A0C3B1C24163506DCF18B819C8173
:103C2000858096804F805884A1E04A1A5108480E3A
:103C3000591E481459046CF101851285015011096F
:103C4000080D191D0817190724F1A416B5060CF460
:103C50005A01881699060CF44C018E2DB6010E946B
:103C6000C91B401651060CF48201081919090F5F8F
:103C70001F4F621473040CF413012A183B089101BE
:103C80002F5F3F4F7C01A401B50189E999E00E94B3
:103C9000760B81E028960FB6F894DEBF0FBECDBF3D
:103CA000DF91CF911F910F91FF90EF90DF90CF9018
:103CB000BF90AF909F908F907F906F905F904F904C
:103CC0003F902F900895CF93DF93FC01892B09F447
:103CD0005DC01382128281E398EF9183808384E038
:103CE00090E09583848389EA94EE97878687DF0145
:103CF000169688E0ED0119928A95E9F7158E148ED3
:103D0000178E168E11A210A213A212A215A214A22F
:103D100017A216A211A610A613A612A6809112022F
:103D200090911302A0911402808B918BA28B838BB4
:103D3000948BA58B868B978BA08F818F928FA38F6F
:103D400012AA11AA17A616A610AA83AB94ABA5AB0C
:103D500086AB97ABA0AF82E281AF12AE13AE15AEC9
:103D600014AE17AE16AEDF01A05CBF4F11961C92C9
:103D70001E92129611961C921E92129611961C92E9
:103D80001E9212961D921C9215A614A6DF91CF9139
:103D90000895CF93DF93FC01E252FF4F408150E042
:103DA00020E032973CE1822F022E000C990B841701
:103DB00095072CF090E080E0DF91CF91089580810D
:103DC00091812302800D911D1124EC01AA89BB89E8
:103DD000A617B70789F32F5FE6CFDC015D968C91BC
:103DE0005D9730E020E090E0891304C0F0E0E0E06F
:103DF000CF0108955A96ED91FC915B97E20FF31F66
:103E0000265F3F4F408151814617570789F39F5FD7
:103E1000EBCF8F929F92AF92BF92CF92DF92EF92B1
:103E2000FF920F931F93CF93DF93EC015B014A0145
:103E30006901802FB7010E94C91B7C019601220FE6
:103E4000331F2F5F3F4FA4014C195D098701B50156
:103E500089E999E00E94941410E000E023E0A601B3
:103E6000B401C5010E94A014209721F0C351DF4F77
:103E700081E08883DF91CF911F910F91FF90EF90A8
:103E8000DF90CF90BF90AF909F908F9008952F922A
:103E90003F924F925F926F927F928F929F92AF92DA
:103EA000BF92CF92DF92EF92FF920F931F93CF9327
:103EB000DF9300D000D01F921F92CDB7DEB79E8354
:103EC0008D835B016A014901802FB7010E94C91BE4
:103ED0008C018F82988681E090E03C012F813885AB
:103EE000621A730AC9019195819591099C01220F6B
:103EF000331F3A8329834F8158854C0D5D1D9801EE
:103F0000B50189E999E00E947B15A6018F8198850A
:103F1000481B590B9801B50189E999E00E947B156E
:103F20006F8178856A0D7B1D9801A60189E999E06A
:103F30000E947B15B5012F813885621B730B980198
:103F4000A60189E999E00E947B15F12CE12C81E022
:103F500090E09C838B832F813885E216F3060CF06A
:103F60006FC077FC0BC02150310938872F838981BE
:103F70009A8102969A838983680E791E9FEFE91AC7
:103F8000F90A2B813C812E5F3F4F3C832B83620ECD
:103F9000731E25014E0C5F1C98018F8098848C0C39
:103FA0009D1CA401B20189E999E00E947B151501CD
:103FB0002E183F089801A401B10189E999E00E94F7
:103FC0007B15980146018F819885881A990AA4016A
:103FD000B20189E999E00E947B159801A401B10121
:103FE00089E999E00E947B1547018C0C9D1C980182
:103FF000A4014F8058844A0C5B1CB20189E999E006
:104000000E947B159801A40115018F819885281ABB
:10401000390AB10189E999E00E947B1546018E18A1
:104020009F089801A401B20189E999E00E947B15DB
:104030009801A401B10189E999E00E947B158BCF19
:104040002D813E812115310529F0F901E351FF4F02
:1040500081E0808328960FB6F894DEBF0FBECDBFF7
:10406000DF91CF911F910F91FF90EF90DF90CF9054
:10407000BF90AF909F908F907F906F905F904F9088
:104080003F902F900895EF92FF920F931F93CF933D
:10409000DF9300D000D01F921F92CDB7DEB7DC01B6
:1040A00009831A832B833C834D835E836F837887D8
:1040B00014960D911C9115970115110531F0169666
:1040C000ED91FC9117973097A1F488E0FE013196AD
:1040D00001900D928A95E1F728960FB6F894DEBF0D
:1040E0000FBECDBFDF91CF911F910F91FF90EF9049
:1040F000089529813A81EB80FC806D917C91119724
:1041000012964D915C91139701501109060F171FDC
:104110003197E40FF51F261737070CF4B901E416A1
:10412000F5060CF4A7018D819E810197820F931FE4
:10413000801791070CF4C8012F813885215031096F
:104140002E0D3F1D2E173F070CF49F0111967C93F7
:104150006E9313965C934E931297861B970B019662
:1041600015969C938E931497241B350B2F5F3F4F0E
:1041700017963C932E931697AFCF0F931F93CF9321
:10418000DF9300D000D01F921F92CDB7DEB7098316
:104190001A832B833C834D835E836F837887FC0176
:1041A000E251FF4F208181519F4F222371F02B81DB
:1041B0000E94432028960FB6F894DEBF0FBECDBFF5
:1041C000DF91CF911F910F91089521E0208328E086
:1041D000FE013196DC0101900D922A95E1F7EACFBC
:1041E000EF92FF920F931F93CF93DF93CDB7DEB77C
:1041F00060970FB6F894DEBF0FBECDBF29873A8710
:104200004B875C876D877E878F87988B4D855E8512
:1042100090E080E09C01201B310B220F331F4217DE
:1042200053074CF02F8538898E199F09880F991FE5
:1042300028173907ECF41A8219821C821B821E820D
:104240001D8218861F8229813A814B815C816D8194
:104250007E818F81988560960FB6F894DEBF0FBE81
:10426000CDBFDF91CF911F910F91FF90EF900895F7
:104270008B859C858E199F0969857A85601B710BDA
:104280007A8369839C838B83000F111F040F151F92
:104290001E830D83EE0CFF1CE20EF31EF886EF82E8
:1042A000D2CF2F923F924F925F926F927F928F92D6
:1042B0009F92AF92BF92CF92DF92EF92FF920F93B5
:1042C0001F93CF93DF93CDB7DEB72E970FB6F89439
:1042D000DEBF0FBECDBF09831A832B833C834D8382
:1042E0005E836F8378874C2D8D809E80811491042E
:1042F00009F45FC0CF80D884C114D10409F459C037
:104300009E878D8789819A819C878B876B807C8033
:10431000842FB5010E94C91B2C018C149D042CF420
:10432000C40197FE05C0019603C0C601D7FCFBCFB0
:104330009595879557018E159F050CF45C01C50175
:10434000880F991F9A8789872B843C842A0C3B1CF1
:104350009401281B390B72018601A301B10189E97F
:1043600099E00E94781489859A85C81AD90A91E043
:10437000C91AD1086A0C7B1C8B859C85880E991EF6
:10438000C4018A199B09860121E0A501B3010197A7
:104390000E94A01422E0A501B301C1010E94A01453
:1043A0008D859E85009729F0FC01E351FF4F81E048
:1043B00080832E960FB6F894DEBF0FBECDBFDF917F
:1043C000CF911F910F91FF90EF90DF90CF90BF9012
:1043D000AF909F908F907F906F905F904F903F90A5
:1043E0002F900895AF92BF92CF92DF92EF920F93EA
:1043F0001F93CF93DF9300D000D01F921F92CDB7B1
:10440000DEB72B833C834D835E836F8378872D815A
:104410003E81232B89F02F813885232B69F05C01A5
:104420002B813C810E94D01DA114B10429F0F5011B
:10443000E351FF4F81E0808328960FB6F894DEBFEA
:104440000FBECDBFDF91CF911F910F91EF90DF9005
:10445000CF90BF90AF9008952F923F924F925F926E
:104460006F927F928F929F92AF92BF92CF92DF9284
:10447000EF92FF920F931F93CF93DF93CDB7DEB7E9
:1044800060970FB6F894DEBF0FBECDBF09831A83C5
:104490002B833C834D835E836F8378874D805E8062
:1044A0004114510409F48EC08F80988481149104C2
:1044B00009F488C0988B8F8769807A808B819C8172
:1044C0009A8789878C2DB5010E94C91B5C0148140D
:1044D00059042CF4C20157FE05C0019603C0C40163
:1044E00097FCFBCF9595879567018E159F050CF47A
:1044F0006C017601EE0CFF1CC2018E199F099C878E
:104500008B871601260C371C85019C0149855A852D
:10451000B10189E999E00E94881489859A85880DFE
:10452000991D9E878D87AC01415051092B853C8593
:10453000B10189E999E00E9488148E189F08E984E6
:10454000FA84EC0CFD1C9401A701B30189E999E000
:104550000E949414460C571CB201615071099401D9
:10456000A70189E999E00E94941421E0A601B7010E
:10457000C1010E9482154C185D0891E0491A51084A
:1045800022E0A601B701C2010E948215ED84FE84DB
:10459000EC18FD0881E0E81AF10824E0A601B70153
:1045A000C2010E94821528E0A601B701C1010E9444
:1045B00082158F859889009729F0FC01E351FF4F00
:1045C00081E0808360960FB6F894DEBF0FBECDBF4A
:1045D000DF91CF911F910F91FF90EF90DF90CF90DF
:1045E000BF90AF909F908F907F906F905F904F9013
:1045F0003F902F9008952F923F924F925F926F922B
:104600007F928F929F92AF92BF92CF92DF92EF9262
:10461000FF920F931F93CF93DF93CDB7DEB72C9705
:104620000FB6F894DEBF0FBECDBFFC017C836B8359
:104630005E834D8338872F831A870987C080D18096
:10464000A280B3808480958021E0821A91088C0C2E
:104650009D1CE680F78031E0E31AF108EA0CFB1CB0
:104660008C149D040CF46AC01401DA82C9823701EB
:104670002501EA14FB0414F43501270170E060E021
:1046800090E080E0EB81FC8100811181ED81FE8171
:104690000190F081E02DFC87EB87EF81F885408168
:1046A0005181A985BA85ED91FC9131E00C151D056C
:1046B0002CF032E0801691060CF030E0AB85BC8522
:1046C000AA15BB050CF03EC0346021E04C155D0519
:1046D0002CF022E0841695060CF020E0EA15FB058C
:1046E000CCF52460A32FA22309F0B2C03111232FEF
:1046F00023FF53C0401B510BD3018B859C85A81B06
:10470000B90B4A9FC0014B9F900D5A9F900D1124E9
:10471000BF014B855C85641B750B0E948861CB01D2
:10472000800F911FB30132138CC0EB81FC81918308
:104730008083ED81FE8171836083A4CF16019A820C
:10474000898295CFAB85BC85EA16FB060CF0BDCF00
:104750003860BBCFEE16FF0614F42860C3CF3111CA
:10476000C1CF2111BFCF81E02C960FB6F894DEBFE8
:104770000FBECDBFDF91CF911F910F91FF90EF90B2
:10478000DF90CF90BF90AF909F908F907F906F9071
:104790005F904F903F902F90089522FF1AC0401BCA
:1047A000510BD2018B859C85A81BB90B4A9FC00178
:1047B0004B9F900D5A9F900D1124BF014B855C8536
:1047C000641B750B0E948861CB01800F911FB201A1
:1047D000AACF21FF19C08B859C85E81BF90BD1015D
:1047E000A01BB10BEA9FC001EB9F900DFA9F900DAB
:1047F0001124BA01601B710B0E948861EB85FC8556
:104800006E0F7F1FC1018FCF20FF8DCF8B859C85C1
:10481000E81BF90B69817A81601B710BE69FC0016F
:10482000E79F900DF69F900D1124BA01601B710B4C
:104830000E948861EB85FC856E0F7F1F89819A81BC
:1048400072CFEF81F88591838083E985FA8573CFF4
:1048500080E08ACFCF92DF92EF92FF920F931F9367
:10486000CF93DF9300D000D01F921F92CDB7DEB759
:104870007A8369835C834B833E832D8318870F8300
:1048800080549F4FFC01808191818E01095F1F4FF1
:104890009E012B5F3F4FAE014D5F5F4FBE016F5FCB
:1048A0007F4F03960E94FB22882389F08E2DB6014C
:1048B0000E94C91B0F8118852D813E814B815C812F
:1048C00069817A817C0189E999E00E942B1381E05A
:1048D00028960FB6F894DEBF0FBECDBFDF91CF9103
:1048E0001F910F91FF90EF90DF90CF9008952F923E
:1048F0003F924F925F926F927F928F929F92AF9270
:10490000BF92CF92DF92EF92FF920F931F93CF93BC
:10491000DF93CDB7DEB762970FB6F894DEBF0FBE58
:10492000CDBFFC0109871A872B873C874D875E879F
:104930006F87788B4D845E844114510409F4C5C09F
:104940002F8438882114310409F4BFC08E2DB6019C
:10495000FA8BE98B89849A84AB84BC840E94C91B3E
:104960003C01E989FA89E054FF4FC080D1809886E4
:104970008F82BE82AD8281E0481A5108480C591CD2
:104980005C824B82BA82A98293E0C90ED11C8E014F
:104990000F5F1F4F9E012D5F3F4FAE014B5F5F4F7B
:1049A000BE01695F7F4FC6010E94FB22882369F028
:1049B00009811A812B813C814D815E816F817885CF
:1049C000730189E999E00E942B1398868F8281E018
:1049D000281A31082A0C3B1C3E822D825C824B82B5
:1049E0003A8229828E010F5F1F4F9E012D5F3F4F3C
:1049F000AE014B5F5F4FBE01695F7F4FC6010E94F2
:104A0000FB22882369F009811A812B813C814D8129
:104A10005E816F817885730189E999E00E942B138B
:104A200098868F82BE82AD829C828B823A82298256
:104A30008E010F5F1F4F9E012D5F3F4FAE014B5FF9
:104A40005F4FBE01695F7F4FC6010E94FB22882332
:104A500069F009811A812B813C814D815E816F81D2
:104A60007885730189E999E00E942B1358864F825B
:104A7000BE82AD825C824B823A8229828E010F5FB8
:104A80001F4F9E012D5F3F4FAE014B5F5F4FBE0139
:104A9000695F7F4FC6010E94FB22882369F009816C
:104AA0001A812B813C814D815E816F8178857301F4
:104AB00089E999E00E942B1389899A89009729F046
:104AC000FC01E351FF4F81E0808362960FB6F894BA
:104AD000DEBF0FBECDBFDF91CF911F910F91FF9031
:104AE000EF90DF90CF90BF90AF909F908F907F908E
:104AF0006F905F904F903F902F900895CF93DF93EA
:104B0000EC01FB0180E090E0309791F08081918191
:104B100022813381237033272230310549F4C25971
:104B2000DF4F48E450E0BC01CE010E946D5DCE0134
:104B3000DF91CF9108956115710511F00C947E25D8
:104B400090E080E00895CF92DF92EF92FF920F9372
:104B50001F93CF93DF93D82E8091D3089091D408E0
:104B6000892B19F48D2D0E9415088091D7089091FA
:104B7000D808813F984D69F48091D9089091DA085E
:104B80000197DD2011F090E080E09093D8088093A9
:104B9000D708C091D308D091D4080091D7081091BC
:104BA000D808C12C8091D7089091D808DD2091F1C8
:104BB0002091D9083091DA082150310982179307E2
:104BC0001CF181E00E941508E091D308F091D4080F
:104BD0008091D7089091D808880F991F880F991F46
:104BE000E084F184E80EF91EB70183ED97E00E949E
:104BF0009B25F70122813381232BE1F1009781F47A
:104C000081E090E00E94E86701969093D808809335
:104C1000D708DACF009711F480E0D4CF0197F5CF11
:104C2000FC01828186FF26C081E0CC24C3942091C0
:104C3000D3083091D408C217D307F1F42091D708D4
:104C40003091D80802171307B9F4C11006C081EFDC
:104C500098ED9093D8088093D7088091D7089091C9
:104C6000D808DF91CF911F910F91FF90EF90DF90C7
:104C7000CF90089580E0DBCF882309F493CFEDCF68
:104C80000F931F93CF93DF938B01EA01BC0183ED58
:104C900097E00E949B25FC01892BE1F0828183FF34
:104CA00019C06681778140855185828593852485E9
:104CB00035850617170774F0860F971F8017910721
:104CC0004CF0C417D50734F0240F351F81E02C17A2
:104CD0003D070CF480E0DF91CF911F910F91089573
:104CE0002F923F924F925F926F927F928F929F92FC
:104CF000AF92BF92CF92DF92EF92FF920F931F93EA
:104D0000CF93DF9300D000D000D0CDB7DEB75C01E9
:104D10008B016A010E949B254C01DC0112968D914A
:104D20009C9128E0F4013696DE01119601900D92D7
:104D30002A95E1F72C01B1E04B2255243C01E2E039
:104D40006E2277249C012074332782FFE6C0011570
:104D5000110509F4E2C0D80112968C9186FB8827D0
:104D600080F9817089872115310509F4D8C00115B2
:104D7000110509F401C1F801328033FA332430F807
:104D8000D80112962C9022FA222420F888E0D6012D
:104D9000E82F1D92EA95E9F7F6013896DF01982F82
:104DA0001D929A95E9F73896DF011D928A95E9F7E9
:104DB000F601108E118E128E138E148E158E168E95
:104DC000178E10A211A212A213A28091120290912A
:104DD0001302A091140284A395A3A6A317A210A660
:104DE00011A6232BF9F088E0FE013196D60101903F
:104DF0000D928A95E1F7EE24EA94FE2C0FEF1FEF57
:104E000029813A814B815C816D817E818F8198857A
:104E10000E94F02029833A834B835C836D837E83D9
:104E20008F83988788E0FE013196D601189601900D
:104E30000D928A95E1F7672809F478C0EE24EA9488
:104E4000FE2C0FEF1FEF29813A814B815C816D8130
:104E50007E818F8198850E94F020F601208B318B16
:104E6000428B538B648B758B868B978BF50122203D
:104E700009F466C0E25FFE4F80819181A281F60154
:104E8000808F918FA28FF40183899489A589F6017F
:104E900081A392A3A3A3F40183899489A589F985A9
:104EA000FF2309F455C0F40186899789A08DF60186
:104EB000838F948FA58FF401818D928DA38DF60140
:104EC000868F978FA0A3F40186A997A9A0ADF601BC
:104ED00084A395A3A6A3452809F44AC0868D978D7F
:104EE000A0A187A390A7A1A729960FB6F894DEBF2B
:104EF0000FBECDBFDF91CF911F910F91FF90EF902B
:104F0000DF90CF90BF90AF909F908F907F906F90E9
:104F10005F904F903F902F90089580E022CF312CEA
:104F20000115110509F02CCF212C30CF88E0FE01AE
:104F30003196D601509601900D928A95E1F796CF61
:104F400030FE03C0E55FFE4F97CFE85FFE4F94CF82
:104F5000F401208931894289F601238F348F458FEE
:104F6000868F978FA0A3F40183A994A9A5A9AFCF99
:104F700084A195A1A6A1B5CF312CD6CFAF92BF9277
:104F8000CF92DF92EF92FF920F931F93CF93DF9315
:104F9000433328EF520759F5D0E0C0E0CE01DF914E
:104FA000CF911F910F91FF90EF90DF90CF90BF9026
:104FB000AF900895F701C085D185C801880F991F6A
:104FC000880F991FC80FD91FBE01C5010E947E25F9
:104FD000FC0180819181C816D90601F30F5F1F4F34
:104FE000F701848595850817190720F3D5CF6A0145
:104FF0007B015C0110E000E0F3CF2F923F924F92D3
:105000005F926F927F928F92AF92BF92CF92DF9218
:10501000EF92FF920F931F93CF93DF93CDB7DEB73D
:10502000C055D1090FB6F894DEBF0FBECDBF3C010D
:105030002B011A012A96CFAE2A972B96DFAE2B971B
:105040002C96EFAE2C972D96FFAE2D972E960FAF88
:105050002E972F961FAF2F9760962FAF6097619670
:105060003FAF6197CE0101960E94631E70E060E041
:1050700083ED97E00E94C91E009711F588E4FE01B8
:105080003196D30101900D928A95E1F7C301C05B7F
:10509000DF4F0FB6F894DEBF0FBECDBFDF91CF91CB
:1050A0001F910F91FF90EF90DF90CF90BF90AF9046
:1050B0008F907F906F905F904F903F902F900895CA
:1050C000A201BC0183ED97E00E94BE27892BB1F6B7
:1050D0005A82498288E0FE01E75BFF4FDE011796A6
:1050E00001900D928A95E1F73E822D82A7966EADD2
:1050F0007FADA79783ED97E00E94ED1E9EAF8DAF29
:105100008AA99BA9837FA114B10449F419AA9BAB76
:105110008AAB8B819C8180689C838B83AFCFB8AA3C
:10512000AFA689AA8860F3CF2F923F924F925F92E9
:105130006F927F928F929F92AF92BF92CF92DF92A7
:10514000EF92FF920F931F93CF93DF935C017B014C
:105150004A011C0122EC220E311C2C0146EE440EA9
:10516000511CE114F10409F448C0F701C280D38056
:10517000B701C5010E949B25EC01C6018F7C8114FB
:10518000910409F476C096012073332741E0F101C0
:105190004083E2E08E16910409F442C0F3E08F16DA
:1051A000910409F444C06C016894C4F8B701C501C6
:1051B0000E949B25009709F446C0FC016080718025
:1051C000850100521F4FF801619171918F016115A6
:1051D0007105F1F1A301C5010E94BE270097C1F13D
:1051E000FC01828187FD39C0F701D382C282ECA421
:1051F000FDA4E114F10409F0B4CFDF91CF911F9128
:105200000F91FF90EF90DF90CF90BF90AF909F9065
:105210008F907F906F905F904F903F902F90089568
:105220002031310519F26C016894C5F8BFCF2031E7
:10523000310509F4BBCF2032310509F4B7CF6C0139
:1052400020E3C22AB3CF81E3682E88EF782EB8CF4F
:105250004016510609F0B7CFC7CF0E811F812885B0
:1052600039854A855B856C857D85C5010E94BD2099
:10527000BBCF6C01B9CFAF92BF92CF92DF92EF92CA
:10528000FF920F931F93CF93DF93CDB7DEB768974D
:105290000FB6F894DEBF0FBECDBF8C0170E060E0AA
:1052A00083ED97E00E94C91E5C01D12CC12C0097B0
:1052B00009F4F6C0DC011C96CD90DC901D97A60188
:1052C0004F5F5F4F1A968D919C911B97841795079E
:1052D00008F450C01496ED91FC911597BF016F5FD3
:1052E0007F4F12968D919C9113978617970708F41C
:1052F00041C028E42E9FC0012F9F900D1124ED91F5
:10530000FC918E0F9F1FF801DC0101900D922A95F0
:10531000E1F7F50175836483CC0CDD1CCC0CDD1C3E
:1053200020853185C20ED31E21E830E0D6011396C8
:105330003C932E9312978D939C935587448741E01D
:1053400050E0B60183ED97E00E949428B60183ED0A
:1053500097E00E949B25FC01828193819C0120742F
:105360003327827091708230914079F401E0232BD1
:1053700081F410C0D12CC12CE9CF98E03696D90128
:1053800001900D929A95E1F715C0232B09F476C090
:1053900000E00F5FB60183ED97E00E949B25FC01C2
:1053A0009E012F5F3F4F892B41F788E0D9011D9265
:1053B0008A95E9F788E0F901DE01519601900D9296
:1053C0008A95E1F7002E000C110B780129893A89A2
:1053D0004B895C896D897E898F89988D0E94F02028
:1053E000298B3A8B4B8B5C8B6D8B7E8B8F8B988F45
:1053F00088E0FE017196DE01199601900D928A9562
:10540000E1F7B60183ED97E00E949B257C010097B0
:10541000A9F1FC01068117812085318542855385DC
:105420006485758583ED97E00E94BD2009851A8506
:105430002B853C854D855E856F85788983ED97E06A
:105440000E94BD2041E050E0B60183ED97E00E944C
:10545000942881E08093BF088093950888E0FE013E
:105460003996D701169601900D928A95E1F741E0A1
:1054700050E0B60183ED97E00E949428B60183EDD9
:1054800097E00E947E25FC010681178120853185E9
:105490004285538564857585C50144960E944320E5
:1054A000C60168960FB6F894DEBF0FBECDBFDF9180
:1054B000CF911F910F91FF90EF90DF90CF90BF9011
:1054C000AF9008958F92AF92BF92CF92DF92EF92FA
:1054D000FF920F931F93CF93DF93CDB7DEB7C859D9
:1054E000D1090FB6F894DEBF0FBECDBF2A960FAF1D
:1054F0002A972B961FAF2B972C962FAF2C972D9674
:105500003FAF2D972E964FAF2E972F965FAF2F97C9
:1055100060966FAF609761967FAF6197BF92AF92D1
:105520008C2C57012A96CFAC2A972B96DFAC2B9761
:105530002C96EFAC2C972D96FFAC2D972E960FAD99
:105540002E972F961FAD2F9760962FAD609761967F
:105550003FAD619743E050E0BC01CE018F5A9F4FB1
:105560000E94FD2788E4FE01EF5AFF4FDE011196ED
:1055700001900D928A95E1F71C8A1D8A1E8A1A8E67
:105580001B8E1C8E8091150290911602A09117021D
:10559000898B9A8BAB8B8F8B988FA98F80911802F8
:1055A00090911902A0911A028CAB9DABAEAB8FAB60
:1055B00098AFA9AF8B819C8181609C838B8381E2B2
:1055C0008AAFCE0101960E943B290F900F90C856DA
:1055D000DF4F0FB6F894DEBF0FBECDBFDF91CF9186
:1055E0001F910F91FF90EF90DF90CF90BF90AF9001
:1055F0008F900895FF920F931F93CF93DF936115C0
:10560000710521F1F42EEB018C010E949B2500977E
:10561000E9F0FC01828186FF19C02A8123FB9927CA
:1056200090F980E0F11088E0277F282B30E03B8361
:105630002A83F91659F043E050E0BE01C801DF911A
:10564000CF911F910F91FF900C949428DF91CF91EF
:105650001F910F91FF9008950F931F93CF93DF93A6
:10566000C091B508D091B60809E414EF209711F065
:105670000A891B8970E060E083ED97E00E94C91EF3
:10568000009709F446C09093B6088093B508012BA3
:1056900029F081E08093BF0880939508209779F0E6
:1056A0000C891D892E893F89488D598D6A8D7B8D86
:1056B00083ED97E00E94BD2081E08093C108E091D6
:1056C000B508F091B608309779F0048915892689D4
:1056D0003789408D518D628D738D83ED97E00E94E7
:1056E000BD2081E08093C108E091B708F091B8082F
:1056F000309779F00489158926893789408D518D35
:10570000628D738D83ED97E00E94BD2081E08093D0
:10571000C1088091D1089091D208813F984D09F439
:105720005BC0E091D308F091D4083097C1F080912C
:10573000D7089091D808880F991F880F991F608506
:105740007185680F791F6115710549F040E083ED9F
:1057500097E00E94FA2A1092D6081092D50881E0AC
:1057600090E09093D2088093D108E091B508F09131
:10577000B608F093D408E093D308309769F181EF2D
:1057800098ED9093D8088093D70884819581909361
:10579000DA088093D90881E00E94A325E091D3081C
:1057A000F091D4083097C1F08091D7089091D80833
:1057B000880F991F880F991FC085D185C80FD91FE1
:1057C000209751F041E0BE0183ED97E00E94FA2A54
:1057D000D093D608C093D508DF91CF911F910F9138
:1057E0000895FF920F931F93CF93DF936115710577
:1057F00021F1F42EEB018C010E949B250097E9F02A
:10580000FC01828182FF19C02A8126FB992790F929
:1058100080E0F11080E42F7B282B30E03B832A834B
:10582000F91659F042E050E0BE01C801DF91CF9176
:105830001F910F91FF900C949428DF91CF911F91AD
:105840000F91FF9008952F923F924F925F926F9227
:105850007F928F92AF92BF92CF92DF92EF92FF92A0
:105860000F931F93CF93DF93CDB7DEB7CC59D109F8
:105870000FB6F894DEBF0FBECDBF3B012A96EFAE48
:105880002A972B96FFAE2B972C960FAF2C972D9621
:105890001FAF2D972E962FAF2E972F963FAF2F9796
:1058A00060964FAF609761965FAF61972B962EAD74
:1058B0003FAD2B97C756DF4F39832883C959D04056
:1058C00061962EAC3FAC61972F962EAD3FAD2F97D2
:1058D000A90140555109C556DF4F59834883CB591B
:1058E000D040210158E2451A5108569447942D960C
:1058F0002EAD3FAD2D97420E531E2CEE2F9329E770
:105900002F93812CB12CA12C2A96CFAC2A972B96C1
:10591000DFAC2B972C96EFAC2C972D96FFAC2D97E8
:105920002E960FAD2E972F961FAD2F9760962FAD09
:10593000609761963FAD61974FE050E1BC01CE01A9
:105940008F5A9F4F0E94FD2788E4FE01EF5AFF4FB8
:10595000DE01119601900D928A95E1F78B819C8171
:105960008F649C838B8389EA94EE988B8F87F301F5
:10597000178216821182108283E690E093838283DD
:1059800081E090E09583848389E293E49187808726
:105990001586148621967FAE6EAE219786ED97E32D
:1059A00025969FAF8EAF259784E299E327969FAF08
:1059B0008EAF27971C8A1D8A1E8A1A8E1B8E1C8EFC
:1059C0008091150290911602A0911702898B9A8BF3
:1059D000AB8B8091120290911302A09114028F8BD5
:1059E000988FA98FC556DF4FA880B980CB59D0407A
:1059F000C756DF4F28813981C959D040A20EB31E46
:105A00002A2DB78AA68A442D518E408E38E2D32E95
:105A1000C12C6D2DD28EC38ED48EC58EEE24EA9409
:105A2000FE2C0FEF1FEF3789518D70E08D2D90E028
:105A30000E94F020F301268B378B408F518F628FAD
:105A4000738F848F958F68EC72E0C3018E960E94ED
:105A5000E164F8E2AF0EB11C2A2DF301B78EA68ED9
:105A6000442D51A240A26D2DD2A2C3A2D4A2C5A2A0
:105A7000378D51A170E08D2D90E00E94F020F30150
:105A8000268F378F40A351A362A373A384A395A34A
:105A90006AEC72E0C301C0960E94E164C756DF4F12
:105AA0002881C959D040C756DF4F48815981C9590B
:105AB000D040F30157874687442D518A408AC55606
:105AC000DF4F6881CB59D040C556DF4F888199811F
:105AD000CB59D040938B828B358A248A3785518964
